:100000000C94C5120C94ED120C94ED120C94ED129C
:100010000C94ED120C94ED120C94ED120C94ED1264
:100020000C94ED120C94ED120C94151C0C94841C81
:100030000C94ED120C94ED120C94ED120C94ED1244
:100040000C94ED120C94ED120C94ED120C94ED1234
:100050000C94ED120C94ED120C94ED120C94B61E4F
:100060000C94ED120C94ED120C94ED120C94ED1214
:100070000C94ED120C94ED120C94ED120C94ED1204
:100080000C94ED120C94ED120C94ED120C94ED12F4
:100090000C94ED120C94ED120C94ED120C94ED12E4
:1000A0000C94ED120C94ED120C94ED1205A84CCDAD
:1000B000B2D44EB93836A9020C50B9918688083CA2
:1000C000A6AAAA2ABE000000803F00000000003E51
:1000D0005B4F5B3E3E6B4F6B3E1C3E7C3E1C183CB8
:1000E0007E3C181C577D571C1C5E7F5E1C00183C14
:1000F0001800FFE7C3E7FF0018241800FFE7DBE75D
:10010000FF30483A060E2629792926407F05050743
:10011000407F05253F5A3CE73C5A7F3E1C1C08089F
:100120001C1C3E7F14227F22145F5F005F5F060964
:100130007F017F006689956A606060606094A2FFBD
:10014000A29408047E040810207E201008082A1CAF
:1001500008081C2A08081E101010100C1E0C1E0C7B
:1001600030383E3830060E3E0E060000000000001B
:10017000005F00000007000700147F147F14242A8A
:100180007F2A12231308646236495620500008075C
:100190000300001C2241000041221C002A1C7F1C7D
:1001A0002A08083E0808008070300008080808087F
:1001B000000060600020100804023E5149453E00E6
:1001C000427F400072494949462141494D33181444
:1001D000127F1027454545393C4A49493141211193
:1001E00009073649494936464949291E0000140085
:1001F00000004034000000081422411414141414A8
:10020000004122140802015909063E415D594E7C05
:100210001211127C7F494949363E414141227F41BA
:1002200041413E7F494949417F090909013E414118
:1002300051737F0808087F00417F41002040413F03
:10024000017F081422417F404040407F021C027F12
:100250007F0408107F3E4141413E7F090909063E67
:100260004151215E7F091929462649494932030136
:100270007F01033F4040403F1F2040201F3F403848
:10028000403F631408146303047804036159494D23
:1002900043007F4141410204081020004141417F59
:1002A00004020102044040404040000307080020CF
:1002B000545478407F2844443838444444283844CF
:1002C00044287F385454541800087E090218A4A406
:1002D0009C787F0804047800447D40002040403D25
:1002E000007F1028440000417F40007C047804789F
:1002F0007C080404783844444438FC182424181832
:10030000242418FC7C08040408485454542404048D
:100310003F44243C4040207C1C2040201C3C40307A
:10032000403C44281028444C9090907C4464544CA9
:100330004400083641000000770000004136080004
:1003400002010204023C2623263C1EA1A161123AAE
:100350004040207A385454555921555579412154FB
:10036000547841215554784020545579400C1E5200
:1003700072123955555559395454545939555454A4
:10038000580000457C410002457D420001457C400B
:10039000F0292429F0F0282528F07C545545002028
:1003A00054547C547C0A097F4932494949323248C5
:1003B000484832324A4848303A4141217A3A42402C
:1003C0002078009DA0A07D39444444393D40404000
:1003D0003D3C24FF2424487E4943662B2FFC2F2BD1
:1003E000FF0929F620C0887E090320545479410072
:1003F00000447D413048484A32384040227A007AF1
:100400000A0A727D0D19317D2629292F28262929CE
:10041000292630484D4020380808080808080808F0
:10042000382F10C8ACBA2F102834FA00007B000017
:1004300008142A142222142A14089500220095AACE
:10044000005500AAAA55AA55AA000000FF001010E6
:1004500010FF00141414FF001010FF00FF1010F024
:1004600010F0141414FC001414F700FF0000FF0037
:10047000FF1414F404FC141417101F10101F101F85
:100480001414141F00101010F0000000001F1010B2
:1004900010101F10101010F010000000FF101010AE
:1004A000101010101010FF10000000FF140000FFCB
:1004B00000FF00001F10170000FC04F414141710B4
:1004C000171414F404F40000FF00F71414141414A7
:1004D0001414F700F7141414171410101F101F141D
:1004E0001414F4141010F010F000001F101F00007E
:1004F000001F14000000FC140000F010F01010FFAA
:1005000010FF141414FF141010101F00000000F04E
:1005100010FFFFFFFFFFF0F0F0F0F0FFFFFF000023
:10052000000000FFFF0F0F0F0F0F38444438447CCA
:100530002A2A3E147E02020606027E027E026355CD
:100540004941633844443C04407E201E2006027E1C
:10055000020299A5E7A5991C2A492A1C4C7201722E
:100560004C304A4D4D303048784830BC625A463D98
:100570003E494949007E0101017E2A2A2A2A2A444D
:10058000445F444440514A444040444A5140000082
:10059000FF0103E080FF000008086B6B083612368D
:1005A0002436060F090F060000181800000010106E
:1005B000003040FF0101001F01011E00191D17122C
:1005C000003C3C3C3C0000000000F0F89C8E87831F
:1005D000878E9CF8F00000FEFF0303030303070E61
:1005E000FCF80000FEFF0303030303070EFCF80002
:1005F00000FFFF00000000000000FFFF0000FEFF02
:100600008383838383C7EE7C380000F8FC0E0703E6
:100610000303070EFCF800003F7FE0C08080C0E0CD
:100620007F3FFFFF01010101010101FFFF0000FF0A
:10063000FF0C0C0C0C1C3E77E3C100007FFFC0C018
:10064000C0C0C0E0703F1F00001F3F70E0C0C0C0CE
:10065000E0703F1F00007FFFC1C1C1C1C1E3773E11
:100660001C00001F3F70E0C0C0C0E0703F1F0000D2
:1006700000000001FFFF01000000D5F08D14A1C8AB
:1006800081CFD9F1AF200008088026767E7E7626BD
:1006900080807E6D3D5D2D7E80FF017E4A527E8191
:1006A000FFFFFFFFFF017E80FFFF057A4A4A4E9160
:1006B000FFFF354A4A4A7E81FFFFF1EEE8087E815E
:1006C000FFFF114E4A4A7A85FFFF817E4A4A7A85AA
:1006D000FFFFFDFAFA027E81FFFF017E4A4A7E811A
:1006E000FFFFF1EEEA0A7E81FFFF017E0A0A7D83A9
:1006F000FFFF017E494B7B87FFFF017E425A5A9DD7
:10070000FFFF077B4B497E81FFFF017E4A4A4AB1CA
:10071000FFFF017E8AEAEAF1FFFF016E4A4A7E810D
:10072000FFFF017E090B7B87FFFFFF3D427E42BD3D
:10073000FFFF1D6A4A427E81FFFF017E0808768125
:10074000FFFF017E415F5FBFFFFF017E050B057E5E
:1007500081FF017E05097E81FFFF013C42423C8111
:10076000FFFF017E8AEAE4F1FFFFF1EEEA0A7E4133
:100770009FFF017E0A0A7583FFFF31444A4A328196
:10078000FFFF013E4445218FFFFF017E40407E81F7
:10079000FFFF017E2090CEE1FFFF017E2117217E29
:1007A00081FF096214C9146289FF014648483E81ED
:1007B000FFFF0962524A4691FFFFFF99666699FF63
:1007C000FFFFE7DBDBDBDBE7FFFFFF9F6F6F9FFFD9
:1007D000FF9F6F6F6F6F6F6F9FFF9F6976B6C9FF47
:1007E000FF877B454242457B87E1DEA24242A2DE93
:1007F000E1E7DBA54242427E81817E424242A5DBA7
:10080000E7877B7D7E7E7D7B87E1DEBE7E7EBEDEF2
:10081000E1E7DBBD7E7E7E7E81817E7E7E7EBDDBEE
:10082000E7CF874900004987CFFFE741000041E754
:10083000FFE1DEBE7D7DBEDEE1E7DBBD7E7EBDDBB2
:10084000E7FF007E7E7E7E00FFFF000000000000CC
:10085000FFFF007E66667E00FFFF000018180000A4
:10086000FF000000000000000055AA55AA55AA5537
:10087000AAFF55FFAAFF55FFAA77FEDFFB7FEEFF19
:10088000BBFFFFFFFFFFFFFFFF7FD989818189D970
:100890007F7F8192C2A2D2817F00FE81B5AD817E31
:1008A0000000000000FE817F0000FA85B5B5B16E42
:1008B0000000CAB5B5B5817E00000E1117F7817E24
:1008C0000000EEB1B5B5857A00007E81B5B5857AB8
:1008D0000000020505FD817E0000FE81B5B5817E28
:1008E00000000E1115F5817E0000FE81F5F5827C79
:1008F0000000FE81B6B484780000FE81BDA5A5622B
:100900000000F884B4B6817E0000FE81B5B5B54E16
:100910000000FE817515150E0000FE91B5B5817EB3
:100920000000FE81F6F48478000000C2BD81BD4263
:100930000000E295B5BD817E0000FE81F7F7897E5B
:100940000000FE81BEA0A0400000FE81FAF4FA8102
:100950007E00FE81FAF6817E0000FEC3BDBDC37E2F
:100960000000FE8175151B0E00000E1115F581BEED
:100970006000FE81F5F58A7C0000CEBBB5B5CD7E6A
:100980000000FEC1BBBADE700000FE81BFBF817EE9
:100990000000FE81DF6F311E0000FE81DEE8DE8197
:1009A0007E00F69DEB36EB9D7600FEB9B7B7C17EB3
:1009B0000000F69DADB5B96E00000066999966001D
:1009C0000000182424242418000000609090600087
:1009D00000609090909090906000609689493600F9
:1009E000007884BABDBDBA84781E215DBDBD5D218D
:1009F0001E18245ABDBDBD817E7E81BDBDBD5A2459
:100A00001878848281818284781E214181814121EC
:100A10001E182442818181817E7E818181814224D0
:100A2000183078B6FFFFB678300018BEFFFFBE184A
:100A3000001E2141828241211E18244281814224CC
:100A40001800FF81818181FF0000FFFFFFFFFFFF92
:100A50000000FF81999981FF0000FFFFE7E7FFFF9A
:100A600000FFFFFFFFFFFFFFFFAA55AA55AA55AAE7
:100A70005500AA005500AA005588012004801100E5
:100A800044000000000000000008088026767E7EFA
:100A9000762680807E6D3D5D2D7E80FF017E4A52F0
:100AA0007E81FFFFFFFFFF017E80FFFF057A4A4A3C
:100AB0004E91FFFF354A4A4A7E81FFFFF1EEE8087A
:100AC0007E81FFFF114E4A4A7A85FFFF817E4A4AA6
:100AD0007A85FFFFFDFAFA027E81FFFF017E4A4A16
:100AE0007E81FFFFF1EEEA0A7E81FFFF017E0A0AA6
:100AF0007D83FFFF017E494B7B87FFFF017E425ACA
:100B00005A9DFFFF077B4B497E81FFFF017E4A4ACA
:100B10004AB1FFFF017E8AEAEAF1FFFF016E4A4A0D
:100B20007E81FFFF017E090B7B87FFFFFF3D427E39
:100B300042BDFFFF1D6A4A427E81FFFF017E080819
:100B40007681FFFF017E415F5FBFFFFF017E050BE6
:100B5000057E81FF017E05097E81FFFF013C424247
:100B60003C81FFFF017E8AEAE4F1FFFFF1EEEA0A31
:100B70007E419FFF017E0A0A7583FFFF31444A4A86
:100B80003281FFFF013E4445218FFFFF017E40403F
:100B90007E81FFFF017E2090CEE1FFFF017E2117C5
:100BA000217E81FF096214C9146289FF0146484809
:100BB0003E81FFFF0962524A4691FFFFFF99666638
:100BC00099FFFFFFE7DBDBDBDBE7FFFFFF9F6F6FDB
:100BD0009FFFFF9F6F6F6F6F6F6F9FFF9F6976B66D
:100BE000C9FFFF877B454242457B87E1DEA2424247
:100BF000A2DEE1E7DBA54242427E81817E424242A3
:100C0000A5DBE7877B7D7E7E7D7B87E1DEBE7E7E0A
:100C1000BEDEE1E7DBBD7E7E7E7E81817E7E7E7EE6
:100C2000BDDBE7CF874900004987CFFFE7410000E0
:100C300041E7FFE1DEBE7D7DBEDEE1E7DBBD7E7E1E
:100C4000BDDBE7FF007E7E7E7E00FFFF0000000030
:100C50000000FFFF007E66667E00FFFF00001818A0
:100C60000000FF000000000000000055AA55AA5532
:100C7000AA55AAFF55FFAAFF55FFAA77FEDFFB7F03
:100C8000EEFFBBFFFFFFFFFFFFFFFF7FD9898181E1
:100C900089D97F7F8192C2A2D2817F00FE81B5ADCA
:100CA000817E0000000000FE817F0000FA85B5B55E
:100CB000B16E0000CAB5B5B5817E00000E1117F700
:100CC000817E0000EEB1B5B5857A00007E81B5B5B4
:100CD000857A0000020505FD817E0000FE81B5B524
:100CE000817E00000E1115F5817E0000FE81F5F574
:100CF000827C0000FE81B6B484780000FE81BDA530
:100D0000A5620000F884B4B6817E0000FE81B5B50E
:100D1000B54E0000FE817515150E0000FE91B5B5AB
:100D2000817E0000FE81F6F48478000000C2BD815F
:100D3000BD420000E295B5BD817E0000FE81F7F75F
:100D4000897E0000FE81BEA0A0400000FE81FAF472
:100D5000FA817E00FE81FAF6817E0000FEC3BDBDF1
:100D6000C37E0000FE8175151B0E00000E1115F5E7
:100D700081BE6000FE81F5F58A7C0000CEBBB5B572
:100D8000CD7E0000FEC1BBBADE700000FE81BFBF99
:100D9000817E0000FE81DF6F311E0000FE81DEE8F3
:100DA000DE817E00F69DEB36EB9D7600FEB9B7B78F
:100DB000C17E0000F69DADB5B96E00000066999940
:100DC000660000001824242424180000006090907D
:100DD00060000060909090909090600060968949CB
:100DE0003600007884BABDBDBA84781E215DBDBDD1
:100DF0005D211E18245ABDBDBD817E7E81BDBDBD55
:100E00005A241878848281818284781E21418181CC
:100E100041211E182442818181817E7E81818181D0
:100E20004224183078B6FFFFB678300018BEFFFFB6
:100E3000BE18001E2141828241211E182442818158
:100E400042241800FF81818181FF0000FFFFFFFF26
:100E5000FFFF0000FF81999981FF0000FFFFE7E796
:100E6000FFFF00FFFFFFFFFFFFFFFFAA55AA55AAE4
:100E700055AA5500AA005500AA00558801200480F3
:100E800011004400000000000000000808802676E1
:100E90007E7E762680807E6D3D5D2D7E80FF017E8C
:100EA0004A527E81FFFFFFFFFF017E80FFFF057A30
:100EB0004A4A4E91FFFF354A4A4A7E81FFFFF1EED2
:100EC000E8087E81FFFF114E4A4A7A85FFFF817E46
:100ED0004A4A7A85FFFFFDFAFA027E81FFFF017E12
:100EE0004A4A7E81FFFFF1EEEA0A7E81FFFF017E22
:100EF0000A0A7D83FFFF017E494B7B87FFFF017E4E
:100F0000425A5A9DFFFF077B4B497E81FFFF017EBE
:100F10004A4A4AB1FFFF017E8AEAEAF1FFFF016E09
:100F20004A4A7E81FFFF017E090B7B87FFFFFF3D61
:100F3000427E42BDFFFF1D6A4A427E81FFFF017E65
:100F400008087681FFFF017E415F5FBFFFFF017EE2
:100F5000050B057E81FF017E05097E81FFFF013CB7
:100F600042423C81FFFF017E8AEAE4F1FFFFF1EE9D
:100F7000EA0A7E419FFF017E0A0A7583FFFF314422
:100F80004A4A3281FFFF013E4445218FFFFF017E27
:100F900040407E81FFFF017E2090CEE1FFFF017E79
:100FA0002117217E81FF096214C9146289FF01465D
:100FB00048483E81FFFF0962524A4691FFFFFF9970
:100FC000666699FFFFFFE7DBDBDBDBE7FFFFFF9FE9
:100FD0006F6F9FFFFF9F6F6F6F6F6F6F9FFF9F69B7
:100FE00076B6C9FFFF877B454242457B87E1DEA29B
:100FF0004242A2DEE1E7DBA54242427E81817E429F
:101000004242A5DBE7877B7D7E7E7D7B87E1DEBE7E
:101010007E7EBEDEE1E7DBBD7E7E7E7E81817E7EE2
:101020007E7EBDDBE7CF874900004987CFFFE741E0
:10103000000041E7FFE1DEBE7D7DBEDEE1E7DBBD16
:101040007E7EBDDBE7FF007E7E7E7E00FFFF000030
:1010500000000000FFFF007E66667E00FFFF0000CC
:1010600018180000FF000000000000000055AA55FD
:10107000AA55AA55AAFF55FFAAFF55FFAA77FEDF7A
:10108000FB7FEEFFBBFFFFFFFFFFFFFFFF7FD98965
:10109000818189D97F7F8192C2A2D2817F00FE8126
:1010A000B5AD817E0000000000FE817F0000FA8562
:1010B000B5B5B16E0000CAB5B5B5817E00000E11A0
:1010C00017F7817E0000EEB1B5B5857A00007E810C
:1010D000B5B5857A0000020505FD817E0000FE8120
:1010E000B5B5817E00000E1115F5817E0000FE81F0
:1010F000F5F5827C0000FE81B6B484780000FE81A4
:10110000BDA5A5620000F884B4B6817E0000FE8112
:10111000B5B5B54E0000FE817515150E0000FE91A7
:10112000B5B5817E0000FE81F6F48478000000C22F
:10113000BD81BD420000E295B5BD817E0000FE810B
:10114000F7F7897E0000FE81BEA0A0400000FE816E
:10115000FAF4FA817E00FE81FAF6817E0000FEC379
:10116000BDBDC37E0000FE8175151B0E00000E1173
:1011700015F581BE6000FE81F5F58A7C0000CEBBCE
:10118000B5B5CD7E0000FEC1BBBADE700000FE81A9
:10119000BFBF817E0000FE81DF6F311E0000FE8137
:1011A000DEE8DE817E00F69DEB36EB9D7600FEB933
:1011B000B7B7C17E0000F69DADB5B96E0000006600
:1011C0009999660000001824242424180000006067
:1011D0009090600000609090909090906000609679
:1011E00089493600007884BABDBDBA84781E215D75
:1011F000BDBD5D211E18245ABDBDBD817E7E81BD51
:10120000BDBD5A241878848281818284781E214150
:10121000818141211E182442818181817E7E8181CC
:1012200081814224183078B6FFFFB678300018BEAE
:10123000FFFFBE18001E2141828241211E18244258
:10124000818142241800FF81818181FF0000FFFF1E
:10125000FFFFFFFF0000FF81999981FF0000FFFF62
:10126000E7E7FFFF00FFFFFFFFFFFFFFFFAA55AA11
:1012700055AA55AA5500AA005500AA005588012074
:1012800004801100440000000000000000080880F5
:1012900026767E7E762680807E6D3D5D2D7E80FF6B
:1012A000017E4A527E81FFFFFFFFFF017E80FFFF2C
:1012B000057A4A4A4E91FFFF354A4A4A7E81FFFF2E
:1012C000F1EEE8087E81FFFF114E4A4A7A85FFFF62
:1012D000817E4A4A7A85FFFFFDFAFA027E81FFFF8E
:1012E000017E4A4A7E81FFFFF1EEEA0A7E81FFFF1E
:1012F000017E0A0A7D83FFFF017E494B7B87FFFF4A
:10130000017E425A5A9DFFFF077B4B497E81FFFFBA
:10131000017E4A4A4AB1FFFF017E8AEAEAF1FFFFF5
:10132000016E4A4A7E81FFFF017E090B7B87FFFF2A
:10133000FF3D427E42BDFFFF1D6A4A427E81FFFFA4
:10134000017E08087681FFFF017E415F5FBFFFFFDE
:10135000017E050B057E81FF017E05097E81FFFF71
:10136000013C42423C81FFFF017E8AEAE4F1FFFF3B
:10137000F1EEEA0A7E419FFF017E0A0A7583FFFFB4
:1013800031444A4A3281FFFF013E4445218FFFFF2D
:10139000017E40407E81FFFF017E2090CEE1FFFF75
:1013A000017E2117217E81FF096214C9146289FF21
:1013B000014648483E81FFFF0962524A4691FFFFBD
:1013C000FF99666699FFFFFFE7DBDBDBDBE7FFFFEB
:1013D000FF9F6F6F9FFFFF9F6F6F6F6F6F6F9FFF1D
:1013E0009F6976B6C9FFFF877B454242457B87E10F
:1013F000DEA24242A2DEE1E7DBA54242427E8181DB
:101400007E424242A5DBE7877B7D7E7E7D7B87E156
:10141000DEBE7E7EBEDEE1E7DBBD7E7E7E7E81813E
:101420007E7E7E7EBDDBE7CF874900004987CFFF08
:10143000E741000041E7FFE1DEBE7D7DBEDEE1E782
:10144000DBBD7E7EBDDBE7FF007E7E7E7E00FFFF94
:10145000000000000000FFFF007E66667E00FFFFC8
:10146000000018180000FF000000000000000055F8
:10147000AA55AA55AA55AAFF55FFAAFF55FFAA7754
:10148000FEDFFB7FEEFFBBFFFFFFFFFFFFFFFF7FE6
:10149000D989818189D97F7F8192C2A2D2817F003F
:1014A000FE81B5AD817E0000000000FE817F00005E
:1014B000FA85B5B5B16E0000CAB5B5B5817E00003C
:1014C0000E1117F7817E0000EEB1B5B5857A0000E8
:1014D0007E81B5B5857A0000020505FD817E00009C
:1014E000FE81B5B5817E00000E1115F5817E0000EC
:1014F000FE81F5F5827C0000FE81B6B484780000A0
:10150000FE81BDA5A5620000F884B4B6817E00000E
:10151000FE81B5B5B54E0000FE817515150E0000B3
:10152000FE91B5B5817E0000FE81F6F4847800005E
:1015300000C2BD81BD420000E295B5BD817E0000C4
:10154000FE81F7F7897E0000FE81BEA0A04000006A
:10155000FE81FAF4FA817E00FE81FAF6817E0000B7
:10156000FEC3BDBDC37E0000FE8175151B0E0000CD
:101570000E1115F581BE6000FE81F5F58A7C000034
:10158000CEBBB5B5CD7E0000FEC1BBBADE7000009B
:10159000FE81BFBF817E0000FE81DF6F311E000033
:1015A000FE81DEE8DE817E00F69DEB36EB9D760067
:1015B000FEB9B7B7C17E0000F69DADB5B96E0000AB
:1015C000006699996600000018242424241800005D
:1015D000006090906000006090909090909060000B
:1015E000609689493600007884BABDBDBA84781EF9
:1015F000215DBDBD5D211E18245ABDBDBD817E7E0D
:1016000081BDBDBD5A241878848281818284781E70
:101610002141818141211E182442818181817E7E68
:10162000818181814224183078B6FFFFB67830007E
:1016300018BEFFFFBE18001E2141828241211E18E4
:101640002442818142241800FF81818181FF0000B2
:10165000FFFFFFFFFFFF0000FF81999981FF00005E
:10166000FFFFE7E7FFFF00FFFFFFFFFFFFFFFFAA0E
:1016700055AA55AA55AA5500AA005500AA00558892
:10168000012004801100440000000000000000FF61
:10169000FFFFFFFFFFFF8F0723737373F3F3F3F372
:1016A000F3F3F3F3F3F3F3F3F3F3F3F3F3F3F3F30A
:1016B000F3F3F373B333B3B333B3B333B3B333B37A
:1016C000B333B3B333B3B333B373F3F3F3F3F3F32A
:1016D000F3F3F3F3F3F3F3F3F3F3F3F3F3F3F3F3DA
:1016E000F3F3F3F3F3F3F3F3F3F3F3F3F3F3F3F3CA
:1016F000F3F3F3F3F3F3F3F3F3F3F3F3F3F3F3F3BA
:10170000F3F3F3F3F3F3F3F3E30307FFFFFFFFFF59
:10171000FFFFFFFFFFFFFFFFFEFE00007F7F7FFF59
:10172000FFFFFFFFFF7F7F7F7F7F7FFFFFFFFFFFC9
:10173000FF7F7F7C7A7B797A7B797A7B797A7B7978
:101740007A7B797A7B797A7B797C7F7F7F7F7F7FD9
:101750007F7F7F7F7F7F7F7F7F7F7F7F7F7F7F7F99
:101760007F0F576737576737576737576737576759
:10177000375767370F7F7F7F7F7F7F7F7F7FFFFFB9
:10178000FFFFFFFFFFFFFFFFFF0000FFFFFFFFFF67
:10179000FFFFFFFFFFFFFFFFFFFFFFFEFEF8F0E38D
:1017A000E7E7E7E7E3F0F8FEFEF8F0E3E7E7E7E76F
:1017B000E3F0F8FEFEFEFEFEFEFEFEFEFEFEFEFE78
:1017C000FEFEFEFEFEFEFEFEFEFEFEFEFEFEFEFE39
:1017D000FEFEFEFEFEFEFEFEFEFEFEFEFEFEFEFE29
:1017E000FEFEFEFEFEFEFEFEFEFEFEFEFEFEFEFE19
:1017F000FEFEFEFEFEFEFEFEFEFEFEFEFC0000FF06
:10180000FFFFFFFFFFFFFFFFFF0000FFFFFFFFFFE6
:10181000FFFFFFFFFFFFFFFFFFFFFFFFFFFFFFFFD8
:10182000FFFFFFFFFFFFFFFFFFFFFFFF000000FFC5
:10183000FFFFFFFFFF0000FCFC0000FFFF0000FCBB
:10184000FC0000FFFF0000FCFC3C3CFFFF00000030
:10185000F8F8F8F8F8F8FFFF1F1F9F9F1F1FFFFF02
:101860009F9F1F1F9F9FFFFFFFFFFFFFFFFFFFFFC8
:10187000FFFFFFFF7F7F7FFFFFFFFFFFFF0000FFF6
:10188000FFFFFFFFFFFFFFFFFF0000FFFFFFFFFF66
:10189000FFFFFF0703C78F1F3F7FFFFFFFFFFFFF14
:1018A000FFFF7F3F1F8FC70307FFFFFF8080808FF1
:1018B0008F8F8F8F8FFCFCFCFCFCFCFFFFFCFCFF80
:1018C000FFFCFCFFFFFCFCFCFCFCFCFFFF808080BD
:1018D0008F8F8F8F8F8FFFFF8080F9F98080FFFFC0
:1018E000FFFF8080FFFFFF1FEFF71B5B1BF7EF1F62
:1018F000FF837DFE83ABA38E7D83FFFFFF0000FF90
:10190000FFFFFFFFFFFFFFFFFF0000FFFFFFFFFFE5
:10191000FFFFFF0000FCFC7CBCB03C7CFCC0FCFC7E
:101920007C30BCBC7CFCFC00003F3F3F3F3F3F3F66
:101930003F3F3F3F3F3F3F3F3F3F3F3F3F3F3F3FB7
:101940003F3F3F3F3F3F3F3F3F3F3F3F3F3F3F3FA7
:101950003F3F3F3F3F3F3F3F3F3F3F3F3F3F3F3F97
:101960003F3F3F3F3F3F3F3C3B372C2F2C373B3CDB
:101970003F3F3F3E3D3D3D3E3F3F3F3F3F0080FFBD
:10198000FF0F67B7D70FFFFFFF0000FFFFFFFFFF4D
:10199000D7D7D70000D7D7FFFFFFDFBF772727773D
:1019A000BFDFFFFFFFD7D70000D7D7D7FFFFFFFF6D
:1019B000FFFFFFFFFFFFFFFFFFFFFFFFFFFFF8F548
:1019C000F6F3F5F6F3F5F6F3F5F6F3F5F6F3F5F6CB
:1019D000F3F8FFFFFFFFFFFFFFFFFFFFFFFFFFFF2A
:1019E000FFFFFFFFFFFFFFFFFFFFFFFFFFFFFFFF07
:1019F000FFFFFFFFFFFFFFFF8F576737576737571F
:101A000067305B6D3680FFFFFF0000FFFFFFFFFFC9
:101A1000FFFFFFF8F0F3F3F3F3F3C3831F3F3F3F00
:101A20003F1F83C3F3F3C3831F3F3F3F3F1F83C366
:101A3000F3F3F3F3F3F3F3F3F3F3F3F3F3F3F3F376
:101A4000F3F3F3F3F3F3F3F3F3F3F3F3F3F3F3F366
:101A5000F3F3F3F3F3F3F3F3F3F3F3F3F3F3F3F356
:101A6000F3F3F3F3F3F3F3F3F3F3F3F3F3F3F3F346
:101A7000F3F3F3F3F3F3F3F3F3F3F3F3F3F3F3F336
:101A8000F3F3F3F3F3F3F3F3F3F0F8FFFFFFFF08DF
:101A90000B00020202000009040000010202000023
:101AA0000524001001052401010104240206052477
:101AB0000600010705810310004009040100020A25
:101AC00000000007050202400000070583024000F5
:101AD000000403090412010002EF02014041233710
:101AE0008000010102030141726475696E6F204C30
:101AF0004C430041726475696E6F204D6963726F6B
:101B00000000FEFE06060606060606060606060691
:101B100006C6264646868606068686868686868685
:101B20008686868686868686860606868646462635
:101B3000C606060606060606060606060606FEFE95
:101B40000000FFFF0000000000000000808080E037
:101B50009F8100000000404141408080C0000000A3
:101B60000000000000C080804041414000000000B3
:101B7000819FE08080800000000000000000FFFFE7
:101B80000000FFFF000000000000CC3C0D0F0D0D19
:101B90000D0D00000000000000002040818082C682
:101BA0004646C68280814020000000000000000000
:101BB0000D0D0D0D0F0D3CCC000000000000FFFFCF
:101BC0000000FFFF0000000000003FC00000000018
:101BD00000808080000000000000000000000FF87E
:101BE0000404F80F000000000000000000008080E6
:101BF000800000000000C03F000000000000FFFF68
:101C00000000FFFF0000000000000000071810E0C7
:101C10003F0000000F1010101020C0000000000056
:101C200001010000000000C020101010100F000083
:101C3000003FE01018070000000000000000FFFF58
:101C40000000FFFF000000000000000000000F3057
:101C50004040808080808080804039060000000005
:101C60000000000000000639408080808080808075
:101C70004040300F00000000000000000000FFFFA7
:101C80000000FFFF00000000000000000000000056
:101C900000000000FF000000000000000000000045
:101CA00000000000000000000000000000FF000035
:101CB0000000000000000000000000000000FFFF26
:101CC00000007F7F60606060606060606060606096
:101CD0006060606063606060606060606060606001
:101CE00060606060606060606060606060636060F1
:101CF00060606060606060606060606060607F7FA6
:101D00000047616D6520436F6D706C65746564217B
:101D10000008088026767E7E762680807E6D3D5D7A
:101D20002D7E80FF017E4A527E81FFFFFFFFFF0173
:101D30007E80FFFF057A4A4A4E91FFFF354A4A4AA4
:101D40007E81FFFFF1EEE8087E81FFFF114E4A4AD7
:101D50007A85FFFF817E4A4A7A85FFFFFDFAFA0203
:101D60007E81FFFF017E4A4A7E81FFFFF1EEEA0A93
:101D70007E81FFFF017E0A0A7D83FFFF017E494BC2
:101D80007B87FFFF017E425A5A9DFFFF077B4B492D
:101D90007E81FFFF017E4A4A4AB1FFFF017E8AEA47
:101DA000EAF1FFFF016E4A4A7E81FFFF017E090BC7
:101DB0007B87FFFFFF3D427E42BDFFFF1D6A4A4217
:101DC0007E81FFFF017E08087681FFFF017E415F73
:101DD0005FBFFFFF017E050B057E81FF017E0509C8
:101DE0007E81FFFF013C42423C81FFFF017E8AEA87
:101DF000E4F1FFFFF1EEEA0A7E419FFF017E0A0A4D
:101E00007583FFFF31444A4A3281FFFF013E44455A
:101E1000218FFFFF017E40407E81FFFF017E2090E9
:101E2000CEE1FFFF017E2117217E81FF096214C9E7
:101E3000146289FF014648483E81FFFF0962524A09
:101E40004691FFFFFF99666699FFFFFFE7DBDBDB4B
:101E5000DBE7FFFFFF9F6F6F9FFFFF9F6F6F6F6F4E
:101E60006F6F9FFF9F6976B6C9FFFF877B45424230
:101E7000457B87E1DEA24242A2DEE1E7DBA54242EA
:101E8000427E81817E424242A5DBE7877B7D7E7E6A
:101E90007D7B87E1DEBE7E7EBEDEE1E7DBBD7E7E52
:101EA0007E7E81817E7E7E7EBDDBE7CF874900001E
:101EB0004987CFFFE741000041E7FFE1DEBE7D7DBE
:101EC000BEDEE1E7DBBD7E7EBDDBE7FF007E7E7E22
:101ED0007E00FFFF000000000000FFFF007E66663E
:101EE0007E00FFFF000018180000FF000000000047
:101EF00000000055AA55AA55AA55AAFF55FFAAFFEA
:101F000055FFAA77FEDFFB7FEEFFBBFFFFFFFFFF62
:101F1000FFFFFF7FD989818189D97F7F8192C2A20A
:101F2000D2817F00FE81B5AD817E0000000000FE01
:101F3000817F0000FA85B5B5B16E0000CAB5B5B5B0
:101F4000817E00000E1117F7817E0000EEB1B5B55D
:101F5000857A00007E81B5B5857A0000020505FD11
:101F6000817E0000FE81B5B5817E00000E1115F561
:101F7000817E0000FE81F5F5827C0000FE81B6B412
:101F800084780000FE81BDA5A5620000F884B4B687
:101F9000817E0000FE81B5B5B54E0000FE8175154D
:101FA000150E0000FE91B5B5817E0000FE81F6F4AD
:101FB0008478000000C2BD81BD420000E295B5BD3D
:101FC000817E0000FE81F7F7897E0000FE81BEA0C1
:101FD000A0400000FE81FAF4FA817E00FE81FAF64C
:101FE000817E0000FEC3BDBDC37E0000FE8175156D
:101FF0001B0E00000E1115F581BE6000FE81F5F587
:102000008A7C0000CEBBB5B5CD7E0000FEC1BBBA58
:10201000DE700000FE81BFBF817E0000FE81DF6FA9
:10202000311E0000FE81DEE8DE817E00F69DEB368B
:10203000EB9D7600FEB9B7B7C17E0000F69DADB549
:10204000B96E0000006699996600000018242424E7
:1020500024180000006090906000006090909090C4
:1020600090906000609689493600007884BABDBDC2
:10207000BA84781E215DBDBD5D211E18245ABDBDE8
:10208000BD817E7E81BDBDBD5A2418788482818148
:102090008284781E2141818141211E182442818140
:1020A00081817E7E818181814224183078B6FFFF54
:1020B000B678300018BEFFFFBE18001E2141828294
:1020C00041211E182442818142241800FF81818110
:1020D00081FF0000FFFFFFFFFFFF0000FF819999D4
:1020E00081FF0000FFFFE7E7FFFF00FFFFFFFFFFAB
:1020F000FFFFFFAA55AA55AA55AA5500AA005500E8
:10210000AA0055880120048011004400000000004E
:102110000000000808FFFFFFFFFFFFFFFF817E4276
:102120005A5A427E81807E653D5D257E807C7E653B
:102130003D5D257E80807E255D3D657E7C00FEFDCB
:10214000FDFDFDFE00807F7F4F375F7F8001FEFE3B
:10215000FEFEFEFE017D7D7D7D655D1BE7E71B5D6F
:10216000657D7D7D7D7D7D7D7D7D7D7D7D00FFFF30
:10217000FFFFFFFF007C7F7F7F7F7F7F00007F7FEF
:102180007F7F7F7F7C7DFDFDFDFDFDFD0101FDFD70
:10219000FDFDFDFD7DFFFFC7C7C7FFFFFF0303FF79
:1021A000C3C3CBC3FFFFFF0402FF81A5A5A5BD816B
:1021B000FF0301FF81BD85B58581FF0205FF8F8784
:1021C000C7C7FFFFFF0303FFFF8787B787FFFF0333
:1021D00003FF818199998181FF0301FFFFC1D5C16F
:1021E000E3FFFF0305FFFFF3C39B9BC3FF0104FF56
:1021F000FFE383B3B383FF0504FF81A5A5A5A581F4
:10220000FF0405FF87878F838181FF0202FF8181A1
:1022100091918181FF0305FF8FA7838B83FFFF02CD
:1022200003000020001000000001003F3F0F0F03DB
:102230000300000007FFE3CBC3C3C3FFFF0304FF9A
:10224000818181818181FF01010000212121210003
:1022500000040100000808180000000303F8F9F862
:10226000FAF80144100500FF81A581998181FF03DF
:102270000100465010381246000502FF81A1A199C5
:102280008181FF0204FF87A38BC3CFFFFF040100FE
:10229000021801210941110000812462485046249E
:1022A00081070300020262282F6F0F0105FF03035D
:1022B0007303000600000100027A023E007E000067
:1022C00000FFFF838BA383C3FF0203000001010310
:1022D000030F3F000000000C0C0C0C00000202FF7A
:1022E000FF818181A581FF02040040003030200879
:1022F000000500006021BC260415110206FFE38BD7
:10230000C38383FFFF0504FFC787A38BE3FFFF049D
:102310000200008080C010101C070024242420002C
:102320000000000707007E00200C0C00000703FFE0
:10233000838B838B83FFFF0304000000E0202000D9
:10234000000000FFC383A393C7FFFF040200000047
:102350000000000000000080244912843973070344
:102360000080921044404000E00201007E0018020C
:10237000020200020303082000404140000705FF5D
:1023800083B383A383FFFF04020000000618030148
:10239000010303FF83A3AB83CFFFFF040207870F73
:1023A0004010C4878702034000B084007E421807B3
:1023B00000FF838387838BFFFF0204FFE38BB981D8
:1023C000B981FF020480A0A8AAAAA8A08007008162
:1023D0008191818181B18104048080988080809F77
:1023E0009F0303FFC1C9CB81A581FF0302FF818148
:1023F00091818181FF0403FF8185859D8181FF0596
:1024000005FFC19D85B581F3FF0406FF81890B4B54
:1024100003F3FF0302FFC7C1C5D19381FF0302236A
:10242000292412492492C00407202001402282104E
:10243000040404FF81B5A58D8183FF0405FFC7D186
:102440008C8E80E7FF0204FF89A181898181FF02D0
:1024500005FF9989A1818189FF0205FFC185A389B3
:102460009D81FF0205FF918181958581FF0502FF16
:10247000998181818181FF0403FF818DC9C191818F
:10248000FF0503FF818189818181FF0503017111AE
:1024900011550521FF0503F1012111450133FF0508
:1024A0000100028202400100000204FF030B01113F
:1024B00005353105040501C3D1056107FF03050199
:1024C000790383998181FF010300000040400000EF
:1024D0000003021145610B2181CFFF04040000813C
:1024E0000C4218E0E00303FF030B898585C5D10288
:1024F00002FF9184A088C8C0C00604115101810563
:102500007101FF050100000218441400000702FFDA
:102510009092808380848104040101015919010192
:10252000FF0501FF84B4B180E088800506E1819158
:10253000C1194101FF05010501C3D1056107FF0371
:1025400005FF80C0C48480FAF80304FF8380C6E0DE
:1025500081B4870302E10D4143435B03FF0404FFA1
:1025600080BE808184868002060101871141490175
:10257000FF0201FF808080E080A08C0405303004E1
:102580004410800800030300781F11241FBECFEF02
:10259000DAE0DEBFCDBF12E0A0E0B1E0ECE4FBE5A5
:1025A00002C005900D92A432B107D9F727E0A4E24A
:1025B000B2E001C01D92AD34B207E1F712E1C5EC03
:1025C000D2E104C02197FE010E94992DC43CD1079D
:1025D000C9F70E94D01F0C94A42D0C9400008830E1
:1025E00080F4683070F498E06902F0011124E80F7B
:1025F000F11D87FDFA95EE0FFF1FED56F94F50873D
:1026000047830895AF92BF92CF92DF92EF92FF92ED
:102610000F931F93CF93DF93C09199062AE0C29F37
:10262000E0011124CB56DE4D10E000E087E0A82E3B
:10263000B12CFE01E00FF11FE491F12CE12CCE2E24
:10264000D12CC5018E199F09960102C03595279599
:102650008A95E2F741E050E020FD02C050E040E002
:10266000602F8E2D0E94EF123FEFE31AF30A88E0ED
:10267000E816F10431F70F5F1F4F08301105C9F656
:10268000FE013896E491E0931A07FE013996E49131
:10269000E0931B07DF91CF911F910F91FF90EF9077
:1026A000DF90CF90BF90AF900895E3E4F2E0A0E018
:1026B000B8E000800EBC8111012C1197A0FDFDCF68
:1026C0000192B9F70DB40895E3E4F2E081118FEFC0
:1026D000002481938193819381930394D1F708958A
:1026E00090912C07982329F490912B07982381E04F
:1026F00009F480E00895883088F4683078F498E030
:102700006902F0011124E80FF11D87FDFA95EE0F23
:10271000FF1FED56F94F87819085089581E090E085
:1027200008954F925F926F927F928F929F92AF9295
:10273000BF92CF92DF92EF92FF920F931F93CF93AE
:10274000DF93FB01E00FF11DF7FD8AC060347105D6
:102750000CF086C0DB0177FF04C0AA27BB27A61BAD
:10276000B70BA770BB27EB0177FD2796E3E0D59564
:10277000C795EA95E1F777FF07C0219768E070E019
:10278000FB01EA1BFB0BDF0130E006950695069581
:10279000802E912C8A01AE015695542F44275795CF
:1027A0004795480F591F4D5B5D4FBE01E0E8F0E0D3
:1027B0007F01E81AF90A88E090E03C016A1A7B0A76
:1027C0006F3FFFEF7F070CF43BC090E080E05A01C1
:1027D000E0E8AE0EB11C6F3F760709F452C0FC0171
:1027E000E00FF11FE4916A01C80ED91EF0E02F013D
:1027F0000A2E01C0440C0A94EAF7F60150804528DD
:1028000040821097B1F06730710599F0F801E80F38
:10281000F91FE4916501C80ED91EF0E02F01062CC6
:1028200002C0559447940A94E2F7F6015080452877
:1028300040820196821793071CF4E816F90659F6B0
:102840006F5F7F4F020F131F40585F4FCB018C1BF0
:102850009D0B8815990524F46830710509F0B0CFF7
:10286000DF91CF911F910F91FF90EF90DF90CF906C
:10287000BF90AF909F908F907F906F905F904F90A0
:102880000895109709F0C2CFD4CF883020F4683073
:1028900010F40C947B1380E098E00895CF92DF92BF
:1028A000FF920F931F93CF93DF93F22E415020E0BE
:1028B00090E0443048F450E0FA01E55EFE4F90812C
:1028C000495E5E4FFA012081620F890FD1E08830A6
:1028D00018F4683008F4D0E0022F060F192F180FF3
:1028E000C1E0183018F4083008F4C0E00E94451424
:1028F0006C01602F812F0E944514C11106C0C1E0F8
:1029000093FF03C08F1508F0C0E0D1110BC0D3FEB8
:10291000DC2F8D2FDF91CF911F910F91FF90DF90D2
:10292000CF900895D0E0F5CFFC018091420288233A
:1029300011F13FB7F89482E08093E9002091F20012
:10294000822F90E01816190614F481E090E0882395
:1029500039F0289A44E6409341024091F1004083C7
:10296000222339F02091F200211103C02BE620939D
:10297000E8003FBF08958FEF9FEF08952FB7F894B9
:1029800083E08093E9009091E800892F807295FFA1
:1029900004C09091F20080E4891B2FBF08958091BC
:1029A000390281110DC082E08093350284E080936A
:1029B0003602109238021092370281E08093390279
:1029C00085E392E00895CF93DF931F92CDB7DEB7F2
:1029D0006983DC01ED91FC910280F381E02D41E0FF
:1029E00050E0BE016F5F7F4F09950F90DF91CF914F
:1029F000089583E08093E9008091F200882319F024
:102A00008AE38093E80008950E94BE1490E0089540
:102A1000CF93DF931F92CDB7DEB7FC0184859585F8
:102A200097FD08C02FEF3FEF358724870F90DF9188
:102A3000CF910895CE0101960E949414019719F444
:102A4000898190E0F3CF8FEF9FEFF0CF0F931F932B
:102A5000CF93DF931F92CDB7DEB78C01FC01848545
:102A6000958597FF0BC0CE0101960E9494140197A3
:102A700071F4898190E0F80195878487F801848555
:102A800095850F90DF91CF911F910F9108958FEF52
:102A90009FEFF1CFFC018485958597FD0BC09FB713
:102AA000F89482E08093E9008091F2009FBF90E06B
:102AB000019608959FB7F89482E08093E900809191
:102AC000F2009FBF90E0089540912F025091300294
:102AD00020912D0230912E0242175307B4F49091A9
:102AE000E8009570E1F39091E80092FD19C08093A1
:102AF000F10080912F029091300201968F739927F7
:102B0000892B19F48EEF8093E80080912F02909129
:102B1000300201969093300280932F0281E0089555
:102B200080E00895DF92EF92FF920F931F93CF936F
:102B3000DF93D82E8A01EB017B01E40EF51ECE1542
:102B4000DF0559F0D7FE12C0FE0184910E94641582
:102B500021968111F4CF0FEF1FEFC801DF91CF91C4
:102B60001F910F91FF90EF90DF9008958881EECF35
:102B70000F931F93CF93DF931F92CDB7DEB782E001
:102B8000898342E450E06FE87AE180E80E94921580
:102B90000E94CF14DC0112960D911C9101151105B4
:102BA00089F0D801ED91FC910280F381E02DBE0106
:102BB0006F5F7F4FC801099597FD04C0F80100853C
:102BC0001185ECCF89810F90DF91CF911F910F91EB
:102BD0000895615030F02091F100FC0120830196AE
:102BE000F8CF289A84E6809341020895AF92BF926D
:102BF000CF92DF92EF92FF920F931F93CF93DF93C9
:102C00006C017B018B01040F151FEB015E01AE18F7
:102C1000BF08C017D10759F06991D601ED91FC9119
:102C20000190F081E02DC6010995892B79F7C50146
:102C3000DF91CF911F910F91FF90EF90DF90CF9098
:102C4000BF90AF9008953FB7F8948091250290917E
:102C50002602A0912702B091280226B5A89B05C0A4
:102C60002F3F19F00196A11DB11D3FBFBA2FA92F0B
:102C7000982F8827BC01CD01620F711D811D911D08
:102C800042E0660F771F881F991F4A95D1F7089574
:102C90000F931F93CF93DF93809164008E7F809377
:102CA000640080917A00806480937A0080917A0039
:102CB00086FDFCCFC0917800D09179000E94231648
:102CC000AB01BC0180916400816080936400CE01FF
:102CD000B0E0A0E0DC01992788278C019D01040F5A
:102CE000151F261F371FC901B801DF91CF911F9112
:102CF0000F9108958F929F92AF92BF92CF92DF92E1
:102D0000EF92FF926B017C010E9423164B015C0144
:102D1000C114D104E104F104B9F00E94231668192A
:102D200079098A099B09683E73408105910580F302
:102D300021E0C21AD108E108F10888EE880E83E08C
:102D4000981EA11CB11CE4CFFF90EF90DF90CF90B4
:102D5000BF90AF909F908F9008958F929F92AF9267
:102D6000BF92CF92DF92EF92FF920F931F93CF9378
:102D7000DF936C017B018A0180910B01882309F4A8
:102D80005CC080914202882309F457C080913402CC
:102D900080FF05C08091E00082608093E000E80140
:102DA000B12C8AEFA82E93E0892E2AE3922E209749
:102DB00011F4BB20D9F10E94BE1481110AC0AA945B
:102DC000AA20D9F161E070E080E090E00E947A16DC
:102DD000EECF8C171D0611F00CF08C2F9FB7F894D6
:102DE0008092E9002091E80025FD02C09FBFDFCF5F
:102DF000282F30E0C21BD30BF701815020F0419106
:102E00004093F100FACFE20EF31EBB2021F0909226
:102E1000E800B12CEBCF8091E80085FDE7CF9092E0
:102E2000E800BB24B394209709F3F3CF5D9A84E6BE
:102E300080933302101611063CF081E090E0F60119
:102E40009383828310E000E0C801DF91CF911F914E
:102E50000F91FF90EF90DF90CF90BF90AF909F9039
:102E60008F9008957F928F929F92AF92BF92CF9250
:102E7000DF92EF92FF920F931F93CF93DF93DC01CA
:102E8000FA01D490319694914E5F5F4FCD2DD0E0F2
:102E90002223E1F001E010E0892F877011F410E0A7
:102EA00000E0E92FE695E695E695E00FF12FF11D9C
:102EB000EC9F8001ED9F100DFC9F100D1124209FB1
:102EC000F001219FF00D11244E0F5F1F7E01EA0ECD
:102ED000FB1E1E141F040CF0A6C0A038B1050CF098
:102EE000A2C09B01290F311D121613060CF09BC0C6
:102EF000603471050CF097C04115510509F493C079
:102F0000062F07709B0177FF02C0295F3F4F83E0C8
:102F1000359527958A95E1F7F22F77FF04C00023B6
:102F200011F0FFEFF20F222733272A1B3B0BB7FDCF
:102F300002C030E020E010E81A1B712E10E8E11604
:102F4000F1040CF47D2C721A6F2F0F2E000C770BEE
:102F5000F62EF094FF3F0CF0F12CE1E0892F877002
:102F600009F4E0E09695969596959E0F690F711D70
:102F70006930710514F098E09F1B9F2C9F0E692DFE
:102F800070E8670350011124AA0DBB1DA20FB31FE7
:102F9000DF9C200D311D1124420F531FC02E002E27
:102FA000000CDD082FEF30E0002E02C0220F331F8F
:102FB0000A94E2F720953095832E9F0F991599F189
:102FC000FD01ED5BFD4F7F01B12CA12CA71428F56D
:102FD000FA01EA0DFB1D649170E00C2C02C0660F33
:102FE000771F0A94E2F797FC05C0F70180818223DE
:102FF000862B8083002351F0F6E0F9153CF0F701B1
:10300000E058FF4F80818821872B80831FEFA11A12
:10301000B10A6FEFE61AF60AD9CF93944C0F5D1FF1
:10302000A058BF4FCBCFDF91CF911F910F91FF9051
:10303000EF90DF90CF90BF90AF909F908F907F9058
:10304000089590911F07923029F1D0F49923E1F06F
:103050009130F1F040911B0798E04902A001112442
:10306000640F752F711DE0911A0798E0E902F001D5
:10307000112443E151E28E0F9F2F911D0C943217C2
:10308000933021F0943031F722E0E4CF25E0E2CF15
:1030900024E0E0CF23E0DECFDF92EF92FF920F93A8
:1030A0001F93CF93DF93D82EC62FD0E010E0ED2CE6
:1030B000F12C00E0612F802F0E947B13282F43E129
:1030C00051E2BE01C7010E9432170F5F88E0E80E8F
:1030D000F11C083079F71F5F2896183041F7DF910F
:1030E000CF911F910F91FF90EF90DF9008952D9A4F
:1030F0000895BC0190E080E00C947A160F9300E4F0
:1031000020E441E05BE170E060E08FE390E00E944A
:10311000911380E00E94551388EE93E00F910C9478
:1031200079188FB18095807F669B88601C9B846036
:10313000089520E191E061FD94E060FD990F62FD4A
:103140009295687F269FD0011124A80FAD5BBD4FDB
:103150008C9140FF03C0892B8C930895909589230F
:10316000FBCF8F929F92AF92BF92CF92DF92EF925E
:10317000FF920F93CF93DF935B01EC014C01840E20
:10318000911C6B01C20ED11CC815D905ECF4750158
:10319000B7FE02C0F12CE12CC60121E4C216D10415
:1031A00014F080E490E0E816F90664F4C038D10524
:1031B00028F4402FB701CE010E9499188FEFE81A2A
:1031C000F80AEACF2196E0CFDF91CF910F91FF90DF
:1031D000EF90DF90CF90BF90AF909F908F90089529
:1031E0002F923F924F925F926F927F928F929F9217
:1031F000AF92BF92CF92DF92EF92FF920F931F9305
:10320000CF93DF93CDB7DEB728970FB6F894DEBF24
:103210000FBECDBF9E838D836A3061F5DC0155966C
:103220008C91B8E08B9F90011124ED81FE81818902
:103230009289820F931F928B818B108A178681E06F
:1032400090E028960FB6F894DEBF0FBECDBFDF9199
:10325000CF911F910F91FF90EF90DF90CF90BF9093
:10326000AF909F908F907F906F905F904F903F9026
:103270002F9008956D3019F32D813E8138872F836B
:10328000D9011F960D911C915097003811050CF033
:103290007CC05196AD90BC90B0E4AB16B1040CF07C
:1032A00074C0F901258825E0C801229E800D911D7A
:1032B0001124181619060CF068C0622C712CC30179
:1032C00033E0880F991F3A95E1F78A0D9B1D181678
:1032D00019060CF05AC0F489FB83AF81B885539668
:1032E000BC91BC83629FB0011124FB01E653FF4FE8
:1032F0002F011982F2018491F981F53009F480E0FF
:10330000450128E02A83A82FB0E0BE83AD833C802E
:1033100080FF3B80311004C0BB81EC81BE17F9F007
:1033200078018E2D801B8215D0F4D12CC12CC214B3
:1033300090F4F0E8EF16F10450F4B601680D791D31
:103340006034710520F4432DC7010E9499182FEFB6
:10335000C21AD20AECCF3FEFE31AF30AE2CF8D8113
:103360009E81959587959A8191509A83860C971C9A
:103370009111C9CFA981AF5FA983BFEF4B1A5B0A37
:10338000060D171DA63009F0B5CFEF81F885258908
:10339000422F50E087859089F6E02F9F800D911D88
:1033A0001124AF81B88550969C938E931F975696A3
:1033B0002C915697222309F442CF6AEF64039001BF
:1033C000659F300D112420583F4F281739070CF006
:1033D00036CFED91FC9111970190F081E02D6AE0DC
:1033E000CD0109952CCFCF93DF9380E00E94641329
:1033F0008AE090E090933207809331078EE190E06D
:103400009093340780933307C1E0DDE1FE016491BE
:10341000662339F082E297E00E94F0182196892B0A
:10342000A9F780E00E94551388EB9BE0DF91CF91D4
:103430000C9479180895089590E080E00895EF9233
:10344000FF920F931F93CF93DF93382F062FE42E15
:10345000D22F822FC0E04AE0882329F0642F0E94F7
:10346000792DCF5FF9CF10E0D11111C022E4E11026
:1034700001C022E041E15DE1B801832F90E0DF91DE
:10348000CF911F910F91FF90EF900C943217C15E76
:10349000CC0FCC0FCC0FC30F8AE0F82E8D2F6F2DE1
:1034A0000E94792D22E0E11022E4290F41E15DE143
:1034B000B8018C2F90E00E9432178D2F6F2D0E9443
:1034C000792DD82FC8508111E9CFDF91CF911F916D
:1034D0000F91FF90EF9008959C0180E0F901E80FB3
:1034E000F11D9081992311F08F5FF8CF0895CF924D
:1034F000DF92FF920F931F93CF93DF93C82FF42E89
:103500006901D0E0062F10E0F601ED0FF11D80817A
:103510008823D9F1282F8134A8F08B3568F42553FE
:10352000F110205C41E15DE1B8018C2F90E00E9438
:103530003217DF5FC85FE8CF813630F08B3730F469
:103540002555EECF803380F08A3390F08A3399F09E
:103550008B3399F08E3299F08F3599F08D3299F046
:103560008C33F1F621E0DCCF803291F72FE3D8CF16
:1035700022ED280FD5CF26E2D3CF2AE2D1CF28E201
:10358000CFCF29E2CDCF27E2CBCFDF91CF911F91D3
:103590000F91FF90DF90CF900895BF92CF92DF926E
:1035A000EF92FF920F931F93CF93DF93CDB7DEB7C8
:1035B00029970FB6F894DEBF0FBECDBF60E080E064
:1035C0000E944C1860E080E00E9421182EEB31E050
:1035D00041E064E186E40E94771A209199062F5F0A
:1035E00041E064E180E70E941F1A25E431E041E0F8
:1035F00068E286E40E94771A2DE431E041E062E35C
:1036000086E40E94771A00911B07F0901A07602F3A
:103610008FEF8F0D0E947B1311E0892B09F010E0D2
:10362000602F81E08F0D0E947B13892B09F41F5FAF
:103630006FEF600F8F2D0E947B13892B09F41F5FA2
:1036400061E0600F8F2D0E947B13892BD9F011113F
:1036500019C001E023E24AE361E070E083E490E016
:103660000E94B11800E025E14CE268E070E08AE4D5
:1036700090E00E94B11824E531E041E06EE08CE476
:103680000E94771A80919306813009F044C04091DE
:1036900095065091960660919706709198068E0156
:1036A0000F5F1F4FF80130E020E09FE0C92ED12CC2
:1036B000E12CF12CD701C601022E04C0880F991FFE
:1036C000AA1FBB1F0A94D2F784239523A623B723EE
:1036D000022E04C0B695A795979587950A94D2F7C0
:1036E00081932C5F3F4F2032310521F780E4E82E93
:1036F000F12CF80121918F012E5B41E15DE170E039
:1037000060E0C7010E943217F8E0EF0EF11C80E87C
:10371000E816F10471F729960FB6F894DEBF0FBED4
:10372000CDBFDF91CF911F910F91FF90EF90DF9070
:10373000CF90BF9008952AE531E040E062E082E05A
:103740000E94771A2AE531E040E066E382E00C94BB
:10375000771ADF92EF92FF920F931F93CF93DF932D
:103760007C018C01C4E6D0E0F801D1908F01CE013C
:103770000E94672AD81621F06D2DCE010E946F2A73
:103780002196C936D10581F7C701DF91CF911F91ED
:103790000F91FF90EF90DF900895EF92FF920F93BB
:1037A0001F93CF93DF937C018C01C4E6D0E0CE0160
:1037B0000E94672AF80181938F012196C936D105AD
:1037C000B1F7C701DF91CF911F910F91FF90EF905B
:1037D0000895CF93DF93CDB7DEB72A970FB6F8944D
:1037E000DEBF0FBECDBFCE0106960E94CD1B85E089
:1037F000FE013696DE01119601900D928A95E1F751
:1038000029813A814B815C816D8170E080E090E09C
:103810002A960FB6F894DEBF0FBECDBFDF91CF91D1
:1038200008950C94672A0E949F2D1F920F920FB645
:103830000F9211248F939F938091E1009091E1006A
:10384000937F9093E10083FF0FC01092E90091E015
:103850009093EB001092EC0092E39093ED001092A5
:10386000420298E09093F00082FF22C093E0909390
:10387000E9009091F200992319F09AE39093E800FF
:1038800090913302992341F090913302915090939B
:103890003302911101C05D9890914102992341F04A
:1038A00090914102915090934102911101C028984A
:1038B00084FF18C08091E2008E7E81608093E200D8
:1038C0008091E1008F7E8093E100809134028E7EB2
:1038D0008061809334029F918F910F900FBE0F9063
:1038E0001F90189580FFF7CF8091E2008E7E806157
:1038F0008093E2008091E1008E7E8093E1008091D0
:1039000034028E7E8160E5CF1F920F920FB60F9228
:103910001124CF92DF92EF92FF920F931F932F9378
:103920003F934F935F936F937F938F939F93AF9347
:10393000BF93EF93FF93CF93DF93CDB7DEB76C9731
:10394000DEBFCDBF1092E9008091E80083FF25C063
:1039500068E0CE0145960E94E91582EF8093E80069
:103960008D8987FF39C09091E80090FFFCCF982F98
:10397000907609F034C19E894F89588D2F89F88C33
:10398000911131C0803861F5809132028093F1004D
:103990001092F1008EEF8093E8006C960FB6F894C9
:1039A000DEBF0FBECDBFDF91CF91FF91EF91BF91F1
:1039B000AF919F918F917F916F915F914F913F91C7
:1039C0002F911F910F91FF90EF90DF90CF900F906C
:1039D0000FBE0F901F9018959EEF9093E800C7CFF1
:1039E0001092F100D5CF913059F48111D3CF4130ED
:1039F000510581F6809132028D7F80933202CACFC9
:103A0000933049F48111C6CF4130510519F68091A8
:103A100032028260F2CF953041F48091E80080FF5D
:103A2000FCCF20682093E300B5CF963009F0A9C001
:103A30000B8D1C8D22E01092E90010923002109242
:103A40002F02F2122EC010922E0210922D020E940E
:103A5000B8151F8299E09983FA8291E09E8390EADB
:103A600098879AEF998720912F0230913002275F33
:103A70003F4F3C832B838D831092E90010923002DC
:103A800010922F0210932E0200932D0249E050E075
:103A9000BE016F5F7F4F80E00E9492150E94B815B3
:103AA00079CF10932E0200932D020E94CF14DC01D7
:103AB00012960D911C910115110509F451C1D801FF
:103AC000ED91FC910480F581E02DBE016B5E7F4F8E
:103AD000C8010995009709F03EC1F80100851185DC
:103AE000EACFF3E0FF120EC08F89882309F440C0AB
:103AF000823061F440E86DE083EF9AE10E94001F9C
:103B0000811148CF81E28093EB0047CF813029F4C7
:103B100040E86BE087EE9AE1F1CF833099F70E949D
:103B2000CF14DC011296ED90FC908E010F5F1F4FB9
:103B30006801E114F10479F0D701ED91FC91068060
:103B4000F781E02DB801C7010995080F111DF70194
:103B5000E084F184EECFD8011C92F60101900020A0
:103B6000E9F73197BF016C197D0940E0C601C6CF66
:103B700061ED7AE1FB01449150E080E80E949215EA
:103B800009CF973009F4BECF983021F481E08093BB
:103B9000F10000CF993009F0FDCE837009F0B2CF6B
:103BA000E1E1F1E081E031E096E32191222371F03F
:103BB0008093E9003093EB00DF0111972C91209363
:103BC000EC009093ED008F5F873079F78EE780935C
:103BD000EA001092EA008F8980934202DBCE8B8D3F
:103BE0009C8D1092E9001092300210922F02909357
:103BF0002E0280932D02898D811192C08E899D891C
:103C0000913A49F4813209F07DCF47E050E064E019
:103C100071E080E0B3CF913209F074CF833269F460
:103C20008F89988DB0E0A0E080930001909301010E
:103C3000A0930201B0930301ADCE803269F480916C
:103C4000E80082FFFCCF67E084E091E00E94E91584
:103C50008BEF8093E8009ECE823209F09BCE8F8955
:103C600080930B01EEEFFFE7859194918B3F9C4D84
:103C700051F1E0E0F8E08091040190910501A091FC
:103C80000601B0910701803B9440A105B105F1F414
:103C900080910B0180FD1AC0EE3F8AE0F80789F59C
:103CA00087E797E79183808380916000809331025A
:103CB00088E19BE00FB6F894A895809360000FBE52
:103CC0009093600067CEEEEFFAE0D5CF80819181CE
:103CD0008737974709F05ECEA8958091600088618C
:103CE000809360008091310280936000EE3F2AE073
:103CF000F20789F08091FE0A9091FF0A91838083F8
:103D000049CE808191818737980751F29093FF0ABD
:103D10008093FE0AC5CF1092FF0A1092FE0A3ACE97
:103D20000E94CF14DC0112960D911C910115110512
:103D300009F4E8CED801ED91FC910190F081E02DDD
:103D4000BE016B5E7F4FC8010995811123CEF8013A
:103D500000851185EBCF181619060CF41BCED2CEB8
:103D6000F1E0FF12BECE65ED7AE104CF1F920F9213
:103D70000FB60F9211242F933F938F939F93AF937E
:103D8000BF938091290290912A02A0912B02B091B9
:103D90002C023091240223E0230F2D3758F5019691
:103DA000A11DB11D209324028093290290932A0221
:103DB000A0932B02B0932C028091250290912602B1
:103DC000A0912702B09128020196A11DB11D8093F8
:103DD000250290932602A0932702B0932802BF9158
:103DE000AF919F918F913F912F910F900FBE0F90A8
:103DF0001F90189526E8230F0296A11DB11DD2CF62
:103E0000EF92FF920F931F93CF93DF93F82E192F0A
:103E1000E62E042F81E0860F880F0E94641583E050
:103E20000E946415CF2DD12FEC0EFD2EF11CCE1566
:103E3000DF05B9F007FF13C0FE0184910E946415ED
:103E4000182F80E00E946415812321968111EFCF05
:103E5000DF91CF911F910F91FF90EF90089588818E
:103E6000EDCF81E0F5CF0F931F93CF93DF938C01BC
:103E700081E090E00E94111C80FF32C08AE090E057
:103E80000E94111C9FEF980F9E3F50F522E330E0F7
:103E9000D80150963C932E931F9728E330E052961A
:103EA0003C932E935197CBE0D0E0D801ED91FC915B
:103EB0000190F081E02D682FC8010995CE010E9484
:103EC000111C2196C131D10581F780E00E94551364
:103ED00088EE93E0DF91CF911F910F910C947918A8
:103EE000DF91CF911F910F91089504970C94331F88
:103EF000E3E4F6E01382128288EE93E0A0E0B0E003
:103F000084839583A683B78383E291E09183808342
:103F10008FEF9FEF95878487E3E9F6E082E0808367
:103F20001182128213821482158285E08683109298
:103F300025071092240710922B0710922C0780E17E
:103F400080932D0710922A071092290710922F07AD
:103F500085E391E0909323078093220783E491E027
:103F6000909327078093260710923207109231070B
:103F7000109234071092330781E080933507109236
:103F80003607809337071092380710923A0710923D
:103F90003B071092490710924A0710924C07089568
:103FA000CF93DF93CDB7DEB7AB970FB6F894DEBFF4
:103FB0000FBECDBF789484B5826084BD84B5816026
:103FC00084BD85B5826085BD85B5816085BD8091E4
:103FD0006E00816080936E0010928100809181005C
:103FE0008260809381008091810081608093810054
:103FF0008091800081608093800080919100826038
:1040000080939100809191008160809391008091D4
:1040100090008160809390008091C10084608093C3
:10402000C1008091C10082608093C1008091C10075
:1040300081608093C1008091C30081608093C30040
:104040008091C00082608093C0008091C200816036
:104050008093C20080917A00846080937A0080917E
:104060007A00826080937A0080917A0081608093E8
:104070007A0080917A00806880937A0010924202E0
:1040800010923202109234028091D70081608093A6
:10409000D70080EA8093D80089B5806189BD89B551
:1040A000826089BD09B400FEFDCF61E070E080E070
:1040B00090E00E947A168091D8008F7C8061809376
:1040C000D8008091E000807F8093E0008091E10043
:1040D0008E7E8093E1008DE08093E200559A209AD5
:1040E0005D98289881EC80937C0085B1806F85B9BC
:1040F00084B1877E84B984B1876E84B95E9A5F98F3
:104100008AB1806D8AB9769A6E9881B3806F81BBCF
:10411000899880B38D7080BB80E58CBD81E08DBDBA
:1041200085E090E00E9479185F9A85E090E00E9417
:1041300079185E985C98EAE7F6E087E896E02491C3
:104140002EBD00000DB407FEFDCF31968E179F07E0
:10415000B1F75C9A81E8809364008091650081608A
:104160008093650080E00E9455130E94911887FF9C
:1041700015C05C9885EA8EBD00000DB407FEFDCF2A
:104180005C9A2E982F982D9880916400806280937D
:10419000640081E083BF889513BEFCCF0E94911814
:1041A00082FF48C02D980E94911884788438E1F4E9
:1041B0000E94771888EC90E00E9479182F9882E08E
:1041C00090E00E94672A8F3F29F06FEF82E090E035
:1041D0000E946F2A84EF91E00E9479182F9A0E9422
:1041E000911884788438D9F30E94911884718431AD
:1041F000E1F40E94771888EC90E00E9479182E98DC
:1042000082E090E00E94672A882329F060E082E043
:1042100090E00E946F2A84EF91E00E9479182E9A14
:104220000E94911884718431D9F388EC90E00E9447
:104230007918B4CF0E94771882E090E00E94111C98
:10424000882309F472C03E9A3F9A81E090E00E9470
:10425000111C182F147081FF0EC011112E98A0EFA1
:10426000EA2EFF24FA940E94911886FF61C02E9ACC
:104270002F9A0E94771882E390E00E9479180E949A
:1042800091188111F8CF80E180932D070E94481684
:10429000611571058105910511F00E945E2ACE011C
:1042A00001960E94CD1B89819A81892B09F472C0E5
:1042B0001092990681E080932007109221078C8349
:1042C0001B821D8285E0FE013196DE0191960190F0
:1042D0000D928A95E1F71AA219A2CE0181960E9449
:1042E000A91B0E940213F9E07F2E8FB7F89440912A
:1042F000290250912A0260912B0270912C028FBFEB
:1043000080912E07942F981B892F90912F07992326
:1043100009F44AC08093300710922F0780E090E0A4
:10432000892B19F30E940000DECF3E983F988DCF75
:10433000112331F024E0E216F10411F42E9A2F98A3
:1043400081E00E94551300E128E54AEC55E0B701F1
:1043500084E190E00E94911380E00E9455138FE069
:1043600090E00E9479184FEFE41AF40A59E1E5163B
:10437000F10409F078CF112311F02F9A2D9880E9DC
:1043800091E00E9479180E94771882E297E00E94DB
:10439000331F71CF8B81809399068C818093200786
:1043A0008D81809321079DCF90912D07891748F427
:1043B0008F5F891708F0B2CF81E083BF889513BE65
:1043C000ADCF81E080932F0740932E07809129077E
:1043D00090912A07019690932A078093290780914C
:1043E0002B0780932C070E94911880932B0780E065
:1043F0000E94641310923407109233071092320710
:1044000010923107E0919406EB3008F0B9C7F0E064
:10441000E45FFD4D0C94992D17222D22FA26F927E1
:10442000ED28CA28EB224B2331247B25FC2588E08C
:104430000E947013882319F081E08093940600E4B1
:1044400020E84FE856E170E060E090E080E00E94F4
:10445000911380E00E94551361CF80E80E94701391
:10446000882339F080913A07882319F0815080938E
:104470003A0780E10E947013882339F080913A074F
:10448000833018F48F5F80933A0788E00E9470139E
:10449000882369F080913A07813009F490C008F4CC
:1044A00088C0823009F48FC0833009F490C084E062
:1044B0000E947013882321F010923A0710929406FC
:1044C00081E00E94641389E691E09B878A8784E7F4
:1044D00091E09D878C878DE791E09F878E8787E8A5
:1044E00091E0998B888B7E01AAE0EA0EF11CB12C39
:1044F0000CE010E0F701C190D1907F01960140E0FF
:10450000602F80E00E94771A80913A07B81248C065
:10451000C6010E946C1AD82E6091290770912A0753
:1045200090E080E00E94EE2B20E030E040E751E494
:104530000E944D2B0E94E92C20E030E040E85FE330
:104540000E94E12A20E030E040E05FE30E947C2C02
:1045500020E030E040EA50E40E947C2C1B012C015A
:10456000F8E0DF9EB0011124072E000C880B990B98
:104570000E94F02B9B01AC01C201B1010E94E12A13
:1045800020E030E040E85FE30E94E12A0E94BF2B78
:10459000862F2DE24DE852E1B80190E00E943217DB
:1045A000B394075F1F4F24E0B212A4CF0E949B1B5D
:1045B00050CF10923A0782E08093940678CF109201
:1045C0003A0783E0F9CF10923A0784E0F5CF1092D2
:1045D0003A0785E0F1CF80E10E947013882369F1EA
:1045E00080913B07882319F0815080933B0780918D
:1045F0003B07809399060E94021381E991E00E9493
:104600006C1A182F21E931E040E060E080E00E9460
:10461000771A20913B072F5F40E060E0812F880FE1
:10462000880F880F0E941F1A68E080E20E944C18D1
:1046300068E080E20E9421180CCF80E80E9470138D
:10464000882331F080913B078F3488F68F5FCDCF80
:1046500088E00E9470138823A1F0109295061092B2
:104660009606109297061092980680913B078093C9
:10467000990610923B071092930688E08093940667
:10468000BCCF84E00E947013882309F4B6CF109247
:104690003B0782E0F3CF80E20E9470138823B1F1E0
:1046A00080914507882319F0815080934507ECE3FA
:1046B000EE2EE7E0FE2ED12C00E210E080914507BF
:1046C0008D11BBC02BE64BE85EE060E170E0C801F5
:1046D0000E943217D7012C912E5B41E15DE168E128
:1046E00070E0C8010E9432172CE64BE85EE060E201
:1046F00070E0C8010E943217D394085F1F4FFFEF8C
:10470000EF1AFF0A28E0D212D9CFA3CE80E40E948C
:104710007013882331F080914507883040F68F5F11
:10472000C4CF80E10E947013882361F0E0914507B7
:10473000F0E0E45CF84F8081882309F4B8CF815021
:104740008083B5CF80E80E947013882359F0E091F0
:104750004507F0E0E45CF84F80818F3008F0A7CF88
:104760008F5FEECF88E00E947013882309F44BC05E
:1047700089E0ECE3F7E0DE01119601900D928A9555
:10478000E1F7FE01319630E020E0819190E0B0E069
:10479000A0E0022E04C0880F991FAA1FBB1F0A9415
:1047A000D2F74EA15FA168A579A5480F591F6A1FCE
:1047B0007B1F4EA35FA368A779A72C5F3F4F2032D2
:1047C000310519F740939506509396066093970626
:1047D0007093980610923C0710923D0710923E0786
:1047E00010923F0710924007109241071092420723
:1047F000109243071092450781E08093930688E06A
:104800008093940654CF84E00E947013882309F4A7
:104810004ECF1092450710923C0710923D07109220
:104820003E0710923F0710924007109241071092E6
:1048300042071092430783E0E3CF2FE64BE85EE0A8
:1048400060E170E0C8010E943217F70120812E5B01
:1048500041E15DE168E170E0C8010E94321720E7A4
:1048600044CF8091930610921C0710921D0710925E
:104870001A0710921B0710921E0710921F07813013
:1048800009F036C160919506709196068091970661
:10489000909198066F5F7F4F8F4F9F4F11F00E944E
:1048A0005E2A609195067091960680919706909188
:1048B0009806611571058105910511F00E945E2A27
:1048C0000E940F2A28E030E040E050E00E947D2A5C
:1048D00060931A070E940F2A28E030E040E050E081
:1048E0000E947D2A60931B0710E000E050E040E04A
:1048F000612F802F0E94EF120F5F0830B9F71F5F02
:10490000183099F7F0901A07E0901B070E940F2AC1
:1049100024E030E040E050E00E947D2A44244394AB
:10492000460E442D50E0542F4427442757705860BA
:104930006E2D8F2D0E94EF1200E0512C612C6E2DF8
:104940008FEF8F0D0E9445149695969596959AA790
:104950001BA68AA59BA541E08427182F11706E2DF8
:1049600081E08F0D0E94451493FF1F5F6FEF6E0D66
:104970008F2D0E94451493FF1F5F61E06E0D8F2DF8
:104980000E94451493FF03C0112309F494C0D52C51
:10499000C62C0E940F2A24E030E040E050E00E9444
:1049A0007D2AB62E11E0160F1230A9F168F51130EC
:1049B000D1F1202F412F6E2D8F2D0E944E14882370
:1049C00041F353E0912C312C5B1550F08B2D90E08E
:1049D000FC01E55EFE4F3080895E9E4FDC019C90BD
:1049E000812CBE2CAF2C202F280D412F6B2D8A2D12
:1049F0000E944E148823D9F0A30CB90C8394F3CFF2
:104A00005D2C6C2C412E9BCF133049F0143089F66D
:104A1000DD24D39406C0D12CCC24C394CACFDD248A
:104A2000DA94C12CC6CFD12CCC24CA94C2CF912CFD
:104A3000B12CA12C81149104A104B10439F00E947D
:104A40000F2AA50194010E947D2A4B01141579F0CB
:104A50005E0C6F0C652D862D0E94451493FD07C0DA
:104A6000402F50E05860652D862D0E94EF12A12E38
:104A7000B12CBA2CAA24AA24B7E0BB226894B3F8BC
:104A800081E0800F880E882D801B18160CF0B8CF9F
:104A9000202F412F6E2D8F2D0E944E14882309F454
:104AA000AFCF0F5FFC0CED0CA501402B6E2D8F2DB1
:104AB0000E94EF12E8CF10E000E0612F802F0E94EB
:104AC0007B1393FF05C0892F877050E040E011F4FD
:104AD00041E050E0612F802F0E94EF120F5F0830FD
:104AE00061F71F5F183041F7E9E0E0939406B1CC1D
:104AF0000E940213F9CF0E94911887FF1BC060919A
:104B00001B07615080911A070E947B13892B79F44F
:104B100010921C078FEF80931D0780911E078093D2
:104B20001F0783E080931E078AE0809394060E940B
:104B3000CD1A8FCC0E94911886FF14C080911A075D
:104B400060911B078F5F0E947B13892B81F781E0A7
:104B500080931C0710921D0780911E0780931F07EA
:104B600082E0E0CF0E94911884FF14C060911B077F
:104B70006F5F80911A070E947B13892BC1F61092F8
:104B80001C0781E080931D0780911E0780931F07FB
:104B900084E0C8CF0E94911885FF15C080911A0744
:104BA00060911B0781500E947B13892B09F0BFCFB6
:104BB0008FEF80931C0710921D0780911E07809332
:104BC0001F0781E0AFCF0E94911882FF0DC0809136
:104BD0009306813029F010F0823021F482E0A5CFD5
:104BE00083E0A3CF81E0A1CF88E00E9470138823E7
:104BF00009F49DCF88E099CF8091290790912A07E9
:104C000065E070E00E94852D892B09F042C060911B
:104C10001B0780911A0790911E07923009F477C004
:104C200008F052C0913009F460C080911E07809353
:104C30001F0720911B0780911D07082E000C990B60
:104C4000820F911D27FD9A958830910514F087E019
:104C500090E097FD80E0F82E80911A0700911C07E4
:104C6000002E000C110B080F111D87FD1A9508303E
:104C7000110514F007E010E017FD00E06F2D802F04
:104C80000E947B13892B09F070C000931A07F092E1
:104C90001B07EAE9F6E08AE197E021913191232BA5
:104CA00009F445CF8E179F07C1F710919306113075
:104CB00009F48EC008F461C0123009F038CF0E94A8
:104CC000F3191093940633CF9330B1F1943009F077
:104CD000ACCF90911F07913009F441C0E8F19230B8
:104CE00009F440C0943091F1A0CF90911F0791300A
:104CF00001F140F09330B1F1943009F096CF4CE0DF
:104D000050E002C048E050E00E94EF128ECF909138
:104D10001F07923071F028F449E050E09923A1F385
:104D200084CF9330E1F0943009F07FCF4DE050E034
:104D3000EBCF4AE050E0E8CF90911F079130B1F3FC
:104D400040F09230E1F2933009F06FCF4BE050E049
:104D5000DBCF46E050E0D8CF47E050E0D5CF4FE082
:104D600050E0D2CF4EE050E0CFCF10921C0710920F
:104D70001D07F9E0F09394068CCF809199068F344B
:104D800018F00E94F3192ACF0E947E18809199068C
:104D90008F5F809399060E94E91B2A873B874C8787
:104DA0005D876E8780919906481708F023CF8C871E
:104DB00085E0FE013A96DE015C9601900D928A959F
:104DC000E1F71D8E1C8ECE014C960E94A91B12CFBE
:104DD0000E947E18809199068F5F809399060E94A9
:104DE0004816609395067093960680939706909365
:104DF000980600CF80E80E947013882309F489C0C8
:104E000080914907882319F081508093490781E0F8
:104E10000E94641388E991E09B878A8782EA91E087
:104E20009D878C878DEA91E09F878E8785EB91E047
:104E3000998B888B5E012AE0A20EB11CCC24CA9407
:104E4000DC2C5CE0E52ED5018D909D905D019401F8
:104E500040E06E2D80E00E94771A009149070C1502
:104E60001D0409F04DC0C4010E946C1AF82E609117
:104E7000290770912A0790E080E00E94EE2B20E045
:104E800030E040E751E40E944D2B0E94E92C079D41
:104E9000002D11240C5E10E020E030E040E85FE3DC
:104EA0000E94E12A20E030E040E05FE30E947C2C99
:104EB00020E030E040EA50E40E947C2C1B012C01F1
:104EC000B8E0FB9EB0011124072E000C880B990B53
:104ED0000E94F02B9B01AC01C201B1010E94E12AAA
:104EE00020E030E040E85FE30E94E12A0E94BF2B0F
:104EF000862F2DE241E15DE1B80190E00E9432177A
:104F0000E9E0EE0EFFEFCF1ADF0A20E3E2129BCFBB
:104F10004DCB80E10E947013882339F080914907BE
:104F2000823008F074CF8F5F70CF88E00E947013DA
:104F3000882309F454C010914907113079F1A8F081
:104F4000123009F064CF10929506109296061092D6
:104F500097061092980610929906109249070E949F
:104F600002131093930686E016C0109295061092D5
:104F7000960610929706109298060E94E91B2A87BF
:104F80003B874C875D876E8740939906109249074F
:104F90001092930688E08093940639CF0E94E91B13
:104FA0002A873B875D876E871C8685E0FE013A96DF
:104FB000DE01579601900D928A95E1F7188E1F8AAF
:104FC000CE0147960E94A91B109295061092960654
:104FD000109297061092980610929906D7CF84E007
:104FE0000E947013882309F412CF1092490781E0C0
:104FF000D2CF80E80E947013882309F485C0809185
:105000004A07882319F0815080934A0781E00E9463
:10501000641384EC91E09B878A878DEA91E09D87F9
:105020008C878CEC91E09F878E875E014AE0A40E0E
:10503000B11CCC24CA94DC2C3CE0E32ED5018D902D
:105040009D905D01940140E06E2D80E00E94771AF2
:1050500000914A070C151D0409F04DC0C4010E94BF
:105060006C1AF82E6091290770912A0790E080E071
:105070000E94EE2B20E030E040E751E40E944D2BEF
:105080000E94E92C079D002D11240C5E10E020E009
:1050900030E040E85FE30E94E12A20E030E040E0B9
:1050A0005FE30E947C2C20E030E040EA50E40E9464
:1050B0007C2C1B012C01B8E0FB9EB0011124072EB3
:1050C000000C880B990B0E94F02B9B01AC01C201D4
:1050D000B1010E94E12A20E030E040E85FE30E9455
:1050E000E12A0E94BF2B862F2DE249E85AE0B80141
:1050F00090E00E943217E9E0EE0EFFEFCF1ADF0AD0
:1051000027E2E2129BCF52CA80E10E9470138823EB
:1051100031F080914A07811179CF81E075CF88E025
:105120000E947013882361F180914A07882399F0C7
:10513000813009F06BCF109295061092960610926E
:105140009706109298061092990610924A0780933B
:10515000930687E012C00E944816609395067093EC
:10516000960680939706909398061092990610924F
:105170004A0781E08093930688E08093940646CFA7
:1051800084E00E947013882309F440CF10924A07EC
:1051900081E0F3CF88E00E947013811105C084E0A4
:1051A0000E947013882319F081E0809394062AED01
:1051B00031E041E06FE083E00E94771A23EE31E0B6
:1051C00041E063E283E00E94771A23EF31E041E09F
:1051D0006DE283E00E94771A3CC984E00E9470135C
:1051E000882319F081E08093940680E80E94701370
:1051F000882309F491C080914C07882319F08150CD
:1052000080934C0781E00E94641343E052E05B8787
:105210004A876CE072E07D876C878091200781115E
:1052200004C087E192E09D878C87DE011A965D01BC
:105230009CE0E92ED12CC12CF501819091905F0169
:10524000940140E06E2D80E00E94771A00914C0797
:10525000202F30E08FEF9FEFC114D10411F090E0C8
:1052600080E02817390709F04DC0C4010E946C1A6C
:10527000F82E6091290770912A0790E080E00E9443
:10528000EE2B20E030E040E751E40E944D2B0E94DD
:10529000E92C079D002D11240C5E10E020E030E089
:1052A00040E85FE30E94E12A20E030E040E05FE375
:1052B0000E947C2C20E030E040EA50E40E947C2CEC
:1052C0001B012C01F8E0FF9EB0011124072E000CF9
:1052D000880B990B0E94F02B9B01AC01C201B1011C
:1052E0000E94E12A20E030E040E85FE30E94E12AEA
:1052F0000E94BF2B862F2DE247E856E0B80190E0D0
:105300000E94321729E0E20ECA94CD2809F44EC952
:10531000CC24C394D12C90CF80E10E9470138111D2
:1053200071CF88E00E947013882309F46BCF8091BD
:105330004C07811167CF8091200791E089278093E6
:105340002007CE010A960E94CD1B8A859B85892B5A
:10535000A1F01C86809120078D871E8685E0FE01C6
:105360003A96DE01529601900D928A95E1F71B8ADA
:105370001A8ACE0142960E94A91B10924C0742CF76
:105380001092940666C88F929F92AF92BF92CF926E
:10539000DF92EF92FF92CF93DF93EC0168817981E6
:1053A0008A819B81611571058105910521F464E273
:1053B00079ED8BE597E02DE133EF41E050E00E947D
:1053C0007D2A49015A019B01AC01A7EAB1E40E9480
:1053D0009C2A6B017C01ACEEB4EFA50194010E9404
:1053E000AA2AC60ED71EE81EF91EF7FE06C081E0E7
:1053F000C81AD108E10880E8F80AC882D982EA828E
:10540000FB82C701B6019F77DF91CF91FF90EF90AC
:10541000DF90CF90BF90AF909F908F9008958F9224
:105420009F92AF92BF92CF92DF92EF92FF926091E4
:105430000C0170910D0180910E0190910F01611589
:1054400071058105910521F464E279ED8BE597E022
:105450002DE133EF41E050E00E947D2A49015A01DD
:105460009B01AC01A7EAB1E40E949C2A6B017C017C
:10547000ACEEB4EFA50194010E94AA2AC60ED71E75
:10548000E81EF91EF7FE06C081E0C81AD108E1083F
:1054900080E8F80AC0920C01D0920D01E0920E0152
:1054A000F0920F01C701B6019F77FF90EF90DF9058
:1054B000CF90BF90AF909F908F90089560930C0114
:1054C00070930D0180930E0190930F010895F99947
:1054D000FECF92BD81BDF89A992780B50895262FF9
:1054E000F999FECF1FBA92BD81BD20BD0FB6F894C9
:1054F000FA9AF99A0FBE01960895052E97FB1EF4AD
:1055000000940E94942A57FD07D00E94AF2A07FCFE
:1055100003D04EF40C94942A5095409530952195E3
:105520003F4F4F4F5F4F08959095809570956195CF
:105530007F4F8F4F9F4F08950E94D12AA59F900DB6
:10554000B49F900DA49F800D911D11240895B7FF65
:105550000C949C2A0E949C2A821B930B0895A1E222
:105560001A2EAA1BBB1BFD010DC0AA1FBB1FEE1FDD
:10557000FF1FA217B307E407F50720F0A21BB30B28
:10558000E40BF50B661F771F881F991F1A9469F7A4
:1055900060957095809590959B01AC01BD01CF0100
:1055A0000895A29FB001B39FC001A39F700D811DFC
:1055B0001124911DB29F700D811D1124911D08951C
:1055C0005058BB27AA270E94F82A0C94422C0E940C
:1055D000342C38F00E943B2C20F039F49F3F19F412
:1055E00026F40C94312C0EF4E095E7FB0C942B2C54
:1055F000E92F0E94532C58F3BA17620773078407E8
:10560000950720F079F4A6F50C94752C0EF4E0952E
:105610000B2EBA2FA02D0B01B90190010C01CA016C
:10562000A0011124FF27591B99F0593F50F4503E17
:1056300068F11A16F040A22F232F342F4427585F09
:10564000F3CF469537952795A795F0405395C9F721
:105650007EF41F16BA0B620B730B840BBAF09150D9
:10566000A1F0FF0FBB1F661F771F881FC2F70EC078
:10567000BA0F621F731F841F48F48795779567954B
:10568000B795F7959E3F08F0B0CF9395880F08F037
:105690009927EE0F9795879508950E94612B0C949A
:1056A000422C0E943B2C58F00E94342C40F029F4EC
:1056B0005F3F29F00C942B2C51110C94762C0C94F8
:1056C000312C0E94532C68F39923B1F3552391F3A5
:1056D000951B550BBB27AA2762177307840738F061
:1056E0009F5F5F4F220F331F441FAA1FA9F335D0BE
:1056F0000E2E3AF0E0E832D091505040E695001C72
:10570000CAF72BD0FE2F29D0660F771F881FBB1F2B
:10571000261737074807AB07B0E809F0BB0B802D09
:10572000BF01FF2793585F4F3AF09E3F510578F035
:105730000C942B2C0C94762C5F3FE4F3983ED4F31E
:10574000869577956795B795F7959F5FC9F7880F09
:10575000911D9695879597F90895E1E0660F771F5B
:10576000881FBB1F621773078407BA0720F0621BEC
:10577000730B840BBA0BEE1F88F7E09508950E9417
:105780005B2C88F09F5798F0B92F9927B751B0F04C
:10579000E1F0660F771F881F991F1AF0BA95C9F7B5
:1057A00014C0B13091F00E94752CB1E008950C94B2
:1057B000752C672F782F8827B85F39F0B93FCCF365
:1057C000869577956795B395D9F73EF49095809532
:1057D000709561957F4F8F4F9F4F0895E89409C052
:1057E00097FB3EF490958095709561957F4F8F4F14
:1057F0009F4F9923A9F0F92F96E9BB279395F6952A
:10580000879577956795B795F111F8CFFAF4BB0FA7
:1058100011F460FF1BC06F5F7F4F8F4F9F4F16C00B
:10582000882311F096E911C0772321F09EE8872F95
:10583000762F05C0662371F096E8862F70E060E051
:105840002AF09A95660F771F881FDAF7880F9695CA
:10585000879597F9089597F99F6780E870E060E071
:1058600008959FEF80EC089500240A9416161706F9
:1058700018060906089500240A9412161306140641
:1058800005060895092E0394000C11F4882352F0A4
:10589000BB0F40F4BF2B11F460FF04C06F5F7F4F5C
:1058A0008F4F9F4F089557FD9058440F551F59F043
:1058B0005F3F71F04795880F97FB991F61F09F3FFD
:1058C00079F087950895121613061406551FF2CF26
:1058D0004695F1DF08C0161617061806991FF1CF76
:1058E00086957105610508940895E894BB2766279D
:1058F0007727CB0197F908950E948F2C0C94422CA6
:105900000E94342C38F00E943B2C20F0952311F09B
:105910000C942B2C0C94312C11240C94762C0E947A
:10592000532C70F3959FC1F3950F50E0551F629F64
:10593000F001729FBB27F00DB11D639FAA27F00DE8
:10594000B11DAA1F649F6627B00DA11D661F829F0F
:105950002227B00DA11D621F739FB00DA11D621FF4
:10596000839FA00D611D221F749F3327A00D611D11
:10597000231F849F600D211D822F762F6A2F1124F3
:105980009F5750409AF0F1F088234AF0EE0FFF1F26
:10599000BB1F661F771F881F91505040A9F79E3F7D
:1059A000510580F00C942B2C0C94762C5F3FE4F383
:1059B000983ED4F3869577956795B795F795E795D3
:1059C0009F5FC1F7FE2B880F911D9695879597F9DC
:1059D00008959F930E94F32C0F9007FCEE5F0C94A8
:1059E0001C2D0C94312C0E945B2CD8F3E894E0E041
:1059F000BB279F57F0F02AED3FE049EC06C0EE0FC1
:105A0000BB0F661F771F881F28F0B23A6207730723
:105A1000840728F0B25A620B730B840BE3959A95B6
:105A200072F7803830F49A95BB0F661F771F881F76
:105A3000D2F790480C94322DEF93E0FF07C0A2EA12
:105A40002AED3FE049EC5FEB0E94F82A0E94422CCD
:105A50000F90039401FC9058ECEAF0E00C943E2D7A
:105A60009F3F31F0915020F4879577956795B795D2
:105A7000880F911D9695879597F908959F938F9319
:105A80007F936F93FF93EF939B01AC010E947C2C5B
:105A9000EF91FF910E94522D2F913F914F915F9175
:105AA0000C947C2CDF93CF931F930F93FF92EF9274
:105AB000DF927B018C01689406C0DA2EEF010E9410
:105AC0008F2CFE01E894A591259135914591559132
:105AD000A6F3EF010E94F82AFE019701A801DA94CB
