:100000000C94650D0C948D0D0C948D0D0C948D0D30
:100010000C948D0D0C948D0D0C948D0D0C948D0DF8
:100020000C948D0D0C948D0D0C946A150C94D915AF
:100030000C948D0D0C948D0D0C948D0D0C948D0DD8
:100040000C948D0D0C948D0D0C948D0D0C948D0DC8
:100050000C948D0D0C948D0D0C948D0D0C940B182F
:100060000C948D0D0C948D0D0C948D0D0C948D0DA8
:100070000C948D0D0C948D0D0C948D0D0C948D0D98
:100080000C948D0D0C948D0D0C948D0D0C948D0D88
:100090000C948D0D0C948D0D0C948D0D0C948D0D78
:1000A0000C948D0D0C948D0D0C948D0D05A84CCDDC
:1000B000B2D44EB93836A9020C50B9918688083CA2
:1000C000A6AAAA2ABE000000803F00000000003E51
:1000D0005B4F5B3E3E6B4F6B3E1C3E7C3E1C183CB8
:1000E0007E3C181C577D571C1C5E7F5E1C00183C14
:1000F0001800FFE7C3E7FF0018241800FFE7DBE75D
:10010000FF30483A060E2629792926407F05050743
:10011000407F05253F5A3CE73C5A7F3E1C1C08089F
:100120001C1C3E7F14227F22145F5F005F5F060964
:100130007F017F006689956A606060606094A2FFBD
:10014000A29408047E040810207E201008082A1CAF
:1001500008081C2A08081E101010100C1E0C1E0C7B
:1001600030383E3830060E3E0E060000000000001B
:10017000005F00000007000700147F147F14242A8A
:100180007F2A12231308646236495620500008075C
:100190000300001C2241000041221C002A1C7F1C7D
:1001A0002A08083E0808008070300008080808087F
:1001B000000060600020100804023E5149453E00E6
:1001C000427F400072494949462141494D33181444
:1001D000127F1027454545393C4A49493141211193
:1001E00009073649494936464949291E0000140085
:1001F00000004034000000081422411414141414A8
:10020000004122140802015909063E415D594E7C05
:100210001211127C7F494949363E414141227F41BA
:1002200041413E7F494949417F090909013E414118
:1002300051737F0808087F00417F41002040413F03
:10024000017F081422417F404040407F021C027F12
:100250007F0408107F3E4141413E7F090909063E67
:100260004151215E7F091929462649494932030136
:100270007F01033F4040403F1F2040201F3F403848
:10028000403F631408146303047804036159494D23
:1002900043007F4141410204081020004141417F59
:1002A00004020102044040404040000307080020CF
:1002B000545478407F2844443838444444283844CF
:1002C00044287F385454541800087E090218A4A406
:1002D0009C787F0804047800447D40002040403D25
:1002E000007F1028440000417F40007C047804789F
:1002F0007C080404783844444438FC182424181832
:10030000242418FC7C08040408485454542404048D
:100310003F44243C4040207C1C2040201C3C40307A
:10032000403C44281028444C9090907C4464544CA9
:100330004400083641000000770000004136080004
:1003400002010204023C2623263C1EA1A161123AAE
:100350004040207A385454555921555579412154FB
:10036000547841215554784020545579400C1E5200
:1003700072123955555559395454545939555454A4
:10038000580000457C410002457D420001457C400B
:10039000F0292429F0F0282528F07C545545002028
:1003A00054547C547C0A097F4932494949323248C5
:1003B000484832324A4848303A4141217A3A42402C
:1003C0002078009DA0A07D39444444393D40404000
:1003D0003D3C24FF2424487E4943662B2FFC2F2BD1
:1003E000FF0929F620C0887E090320545479410072
:1003F00000447D413048484A32384040227A007AF1
:100400000A0A727D0D19317D2629292F28262929CE
:10041000292630484D4020380808080808080808F0
:10042000382F10C8ACBA2F102834FA00007B000017
:1004300008142A142222142A14089500220095AACE
:10044000005500AAAA55AA55AA000000FF001010E6
:1004500010FF00141414FF001010FF00FF1010F024
:1004600010F0141414FC001414F700FF0000FF0037
:10047000FF1414F404FC141417101F10101F101F85
:100480001414141F00101010F0000000001F1010B2
:1004900010101F10101010F010000000FF101010AE
:1004A000101010101010FF10000000FF140000FFCB
:1004B00000FF00001F10170000FC04F414141710B4
:1004C000171414F404F40000FF00F71414141414A7
:1004D0001414F700F7141414171410101F101F141D
:1004E0001414F4141010F010F000001F101F00007E
:1004F000001F14000000FC140000F010F01010FFAA
:1005000010FF141414FF141010101F00000000F04E
:1005100010FFFFFFFFFFF0F0F0F0F0FFFFFF000023
:10052000000000FFFF0F0F0F0F0F38444438447CCA
:100530002A2A3E147E02020606027E027E026355CD
:100540004941633844443C04407E201E2006027E1C
:10055000020299A5E7A5991C2A492A1C4C7201722E
:100560004C304A4D4D303048784830BC625A463D98
:100570003E494949007E0101017E2A2A2A2A2A444D
:10058000445F444440514A444040444A5140000082
:10059000FF0103E080FF000008086B6B083612368D
:1005A0002436060F090F060000181800000010106E
:1005B000003040FF0101001F01011E00191D17122C
:1005C000003C3C3C3C0000000000F0F89C8E87831F
:1005D000878E9CF8F00000FEFF0303030303070E61
:1005E000FCF80000FEFF0303030303070EFCF80002
:1005F00000FFFF00000000000000FFFF0000FEFF02
:100600008383838383C7EE7C380000F8FC0E0703E6
:100610000303070EFCF800003F7FE0C08080C0E0CD
:100620007F3FFFFF01010101010101FFFF0000FF0A
:10063000FF0C0C0C0C1C3E77E3C100007FFFC0C018
:10064000C0C0C0E0703F1F00001F3F70E0C0C0C0CE
:10065000E0703F1F00007FFFC1C1C1C1C1E3773E11
:100660001C00001F3F70E0C0C0C0E0703F1F0000D2
:1006700000000001FFFF01000000D5F08D14A1C8AB
:1006800081CFD9F1AF2000535455434B2100FFFFD8
:10069000C7C7C7FFFFFF0303FFC3C3CBC3FFFFFFF2
:1006A0000402FF81A5A5A5BD81FF0301FF81BD85D2
:1006B000B58581FF0205FF8F87C7C7FFFFFF0303D3
:1006C000FFFF8787B787FFFF0303FF818199998128
:1006D00081FF0301FFFFC1D5C1E3FFFF0305FFFF5A
:1006E000F3C39B9BC3FF0104FFFFE383B3B383FF0B
:1006F0000504FF81A5A5A5A581FF0405FF87878FB8
:10070000838181FF0202FF818191918181FF030535
:10071000FF8FA7838B83FFFF02033F3F0F0F03036E
:1007200000000007FFE3CBC3C3C3FFFF0304FF8147
:100730008181818181FF01010000212121210000AF
:10074000040100000808180000000303FF81A581D0
:10075000998181FF0301FF81A1A1998181FF020499
:10076000FF87A38BC3CFFFFF0401000218012109FB
:100770004111000000027A023E007E000000FFFFEF
:10078000838BA383C3FF02030000010103030F3F18
:10079000000000000C0C0C0C00000202FFFF818125
:1007A00081A581FF0204006021BC26041511020608
:1007B000FFE38BC38383FFFF0504FFC787A38BE39E
:1007C000FFFF040200008080C010101C07002424DA
:1007D0002420000000000707FF838B838B83FFFF2B
:1007E0000304000000E0202000000000FFC383A3FA
:1007F00093C7FFFF0402000000000000000000009B
:10080000FF83B383A383FFFF0402FF83A3AB83CFE4
:10081000FFFF0402FF838387838BFFFF0204FFE354
:100820008BB981B981FF020480A0A8AAAAA8A080E0
:1008300007008080988080809F9F0303FFC1C9CB01
:1008400081A581FF0302FF818191818181FF0403E2
:10085000FF8185859D8181FF0505FFC19D85B5814E
:10086000F3FF0406FF81890B4B03F3FF0302FFC76D
:10087000C1C5D19381FF0302FF81B5A58D8183FF9F
:100880000405FFC7D18C8E80E7FF0204FF89A18198
:10089000898181FF0205FF9989A1818189FF020574
:1008A000FFC185A3899D81FF0205FF918181958507
:1008B00081FF0502FF998181818181FF0403FF810E
:1008C0008DC9C19181FF0503FF818189818181FFEC
:1008D000050301711111550521FF0503F1012111D6
:1008E000450133FF050100028202400100000204BD
:1008F00001790383998181FF0103000000404000DA
:10090000000003021145610B2181CFFF04040000A8
:10091000810C4218E0E00303FF030B898585C5D1F4
:100920000202FF9184A088C8C0C006041151018151
:10093000057101FF050100000218441400000702C0
:10094000FF90928083808481040401010159190180
:1009500001FF0501FF84B4B180E088800506E181D4
:1009600091C1194101FF05010501C3D1056107FFCF
:100970000305FF80C0C48480FAF80304FF8380C6A7
:10098000E081B4870302E10D4143435B03FF0404AC
:10099000FF80BE8081848680020601018711414963
:1009A00001FF0201FF808080E080A08C04053030D0
:1009B000044410800800030308088026767E7E76B3
:1009C0002680807E6D3D5D2D7E80FF017E4A527EB9
:1009D00081FFFFFFFFFF017E80FFFF057A4A4A4E3D
:1009E00091FFFF354A4A4A7E81FFFFF1EEE8087E1B
:1009F00081FFFF114E4A4A7A85FFFF817E4A4A7A7B
:100A000085FFFFFDFAFA027E81FFFF017E4A4A7EE2
:100A100081FFFFF1EEEA0A7E81FFFF017E0A0A7D77
:100A200083FFFF017E494B7B87FFFF017E425A5ABD
:100A30009DFFFF077B4B497E81FFFF017E4A4A4AAB
:100A4000B1FFFF017E8AEAEAF1FFFF016E4A4A7EAA
:100A500081FFFF017E090B7B87FFFFFF3D427E4246
:100A6000BDFFFF1D6A4A427E81FFFF017E080876B6
:100A700081FFFF017E415F5FBFFFFF017E050B0528
:100A80007E81FF017E05097E81FFFF013C42423CE1
:100A900081FFFF017E8AEAE4F1FFFFF1EEEA0A7EC0
:100AA000419FFF017E0A0A7583FFFF31444A4A32A3
:100AB00081FFFF013E4445218FFFFF017E40407EC4
:100AC00081FFFF017E2090CEE1FFFF017E211721F3
:100AD0007E81FF096214C9146289FF014648483EBD
:100AE00081FFFF0962524A4691FFFFFF99666699AE
:100AF000FFFFFFE7DBDBDBDBE7FFFFFF9F6F6F9FA6
:100B0000FFFF9F6F6F6F6F6F6F9FFF9F6976B6C913
:100B1000FFFF877B454242457B87E1DEA24242A23E
:100B2000DEE1E7DBA54242427E81817E424242A570
:100B3000DBE7877B7D7E7E7D7B87E1DEBE7E7EBEC2
:100B4000DEE1E7DBBD7E7E7E7E81817E7E7E7EBDB8
:100B5000DBE7CF874900004987CFFFE7410000412D
:100B6000E7FFE1DEBE7D7DBEDEE1E7DBBD7E7EBD73
:100B7000DBE7FF007E7E7E7E00FFFF0000000000BE
:100B800000FFFF007E66667E00FFFF000018180071
:100B900000FF000000000000000055AA55AA55AA59
:100BA00055AAFF55FFAAFF55FFAA77FEDFFB7FEE90
:100BB000FFBBFFFFFFFFFFFFFFFF7FD98981818917
:100BC000D97F7F8192C2A2D2817F00FE81B5AD81A3
:100BD0007E0000000000FE817F0000FA85B5B5B1FF
:100BE0006E0000CAB5B5B5817E00000E1117F78101
:100BF0007E0000EEB1B5B5857A00007E81B5B58581
:100C00007A0000020505FD817E0000FE81B5B581F8
:100C10007E00000E1115F5817E0000FE81F5F58243
:100C20007C0000FE81B6B484780000FE81BDA5A5DD
:100C3000620000F884B4B6817E0000FE81B5B5B5CF
:100C40004E0000FE817515150E0000FE91B5B581B0
:100C50007E0000FE81F6F48478000000C2BD81BDF4
:100C6000420000E295B5BD817E0000FE81F7F78964
:100C70007E0000FE81BEA0A0400000FE81FAF4FAD2
:100C8000817E00FE81FAF6817E0000FEC3BDBDC3F9
:100C90007E0000FE8175151B0E00000E1115F581FA
:100CA000BE6000FE81F5F58A7C0000CEBBB5B5CDF7
:100CB0007E0000FEC1BBBADE700000FE81BFBF81B6
:100CC0007E0000FE81DF6F311E0000FE81DEE8DE67
:100CD000817E00F69DEB36EB9D7600FEB9B7B7C17D
:100CE0007E0000F69DADB5B96E000000669999666C
:100CF0000000001824242424180000006090906054
:100D000000006090909090909060006096894936C5
:100D100000007884BABDBDBA84781E215DBDBD5D7A
:100D2000211E18245ABDBDBD817E7E81BDBDBD5A28
:100D3000241878848281818284781E2141818141B6
:100D4000211E182442818181817E7E8181818142A0
:100D500024183078B6FFFFB678300018BEFFFFBE0B
:100D600018001E2141828241211E182442818142A5
:100D7000241800FF81818181FF0000FFFFFFFFFF3A
:100D8000FF0000FF81999981FF0000FFFFE7E7FF67
:100D9000FF00FFFFFFFFFFFFFFFFAA55AA55AA555F
:100DA000AA5500AA005500AA005588012004801108
:100DB0000044000000000000000008088026767E45
:100DC0007E762680807E6D3D5D2D7E80FF017E4A91
:100DD000527E81FFFFFFFFFF017E80FFFF057A4A01
:100DE0004A4E91FFFF354A4A4A7E81FFFFF1EEE805
:100DF000087E81FFFF114E4A4A7A85FFFF817E4AB5
:100E00004A7A85FFFFFDFAFA027E81FFFF017E4AE2
:100E10004A7E81FFFFF1EEEA0A7E81FFFF017E0A32
:100E20000A7D83FFFF017E494B7B87FFFF017E42E6
:100E30005A5A9DFFFF077B4B497E81FFFF017E4A87
:100E40004A4AB1FFFF017E8AEAEAF1FFFF016E4ADA
:100E50004A7E81FFFF017E090B7B87FFFFFF3D423A
:100E60007E42BDFFFF1D6A4A427E81FFFF017E0870
:100E7000087681FFFF017E415F5FBFFFFF017E05B6
:100E80000B057E81FF017E05097E81FFFF013C424B
:100E9000423C81FFFF017E8AEAE4F1FFFFF1EEEAC6
:100EA0000A7E419FFF017E0A0A7583FFFF31444A93
:100EB0004A3281FFFF013E4445218FFFFF017E4002
:100EC000407E81FFFF017E2090CEE1FFFF017E2169
:100ED00017217E81FF096214C9146289FF01464807
:100EE000483E81FFFF0962524A4691FFFFFF996623
:100EF0006699FFFFFFE7DBDBDBDBE7FFFFFF9F6FB1
:100F00006F9FFFFF9F6F6F6F6F6F6F9FFF9F697680
:100F1000B6C9FFFF877B454242457B87E1DEA2429F
:100F200042A2DEE1E7DBA54242427E81817E42426F
:100F300042A5DBE7877B7D7E7E7D7B87E1DEBE7E13
:100F40007EBEDEE1E7DBBD7E7E7E7E81817E7E7EB3
:100F50007EBDDBE7CF874900004987CFFFE741002F
:100F60000041E7FFE1DEBE7D7DBEDEE1E7DBBD7E69
:100F70007EBDDBE7FF007E7E7E7E00FFFF0000007F
:100F8000000000FFFF007E66667E00FFFF00001885
:100F9000180000FF000000000000000055AA55AA3C
:100FA00055AA55AAFF55FFAAFF55FFAA77FEDFFBFA
:100FB0007FEEFFBBFFFFFFFFFFFFFFFF7FD98981B0
:100FC0008189D97F7F8192C2A2D2817F00FE81B5C3
:100FD000AD817E0000000000FE817F0000FA85B533
:100FE000B5B16E0000CAB5B5B5817E00000E11170F
:100FF000F7817E0000EEB1B5B5857A00007E81B53F
:10100000B5857A0000020505FD817E0000FE81B5F0
:10101000B5817E00000E1115F5817E0000FE81F580
:10102000F5827C0000FE81B6B484780000FE81BDAC
:10103000A5A5620000F884B4B6817E0000FE81B5EB
:10104000B5B54E0000FE817515150E0000FE91B578
:10105000B5817E0000FE81F6F48478000000C2BDF8
:1010600081BD420000E295B5BD817E0000FE81F7A2
:10107000F7897E0000FE81BEA0A0400000FE81FA3C
:10108000F4FA817E00FE81FAF6817E0000FEC3BD87
:10109000BDC37E0000FE8175151B0E00000E1115EC
:1010A000F581BE6000FE81F5F58A7C0000CEBBB5FF
:1010B000B5CD7E0000FEC1BBBADE700000FE81BF70
:1010C000BF817E0000FE81DF6F311E0000FE81DEE9
:1010D000E8DE817E00F69DEB36EB9D7600FEB9B72B
:1010E000B7C17E0000F69DADB5B96E0000006699EF
:1010F0009966000000182424242418000000609041
:101100009060000060909090909090600060968950
:10111000493600007884BABDBDBA84781E215DBD11
:10112000BD5D211E18245ABDBDBD817E7E81BDBD21
:10113000BD5A241878848281818284781E2141815D
:101140008141211E182442818181817E7E8181819D
:10115000814224183078B6FFFFB678300018BEFF01
:10116000FFBE18001E2141828241211E18244281A7
:101170008142241800FF81818181FF0000FFFFFF71
:10118000FFFFFF0000FF81999981FF0000FFFFE74B
:10119000E7FFFF00FFFFFFFFFFFFFFFFAA55AA5574
:1011A000AA55AA5500AA005500AA00558801200496
:1011B000801100440000000000000000000000005A
:1011C00000000070F8DC8C8C8C0C0C0C0C0C0C0CE3
:1011D0000C0C0C0C0C0C0C0C0C0C0C0C0C0C0C0C4F
:1011E0008C4CCC4C4CCC4C4CCC4C4CCC4C4CCC4C7F
:1011F0004CCC4C4CCC4C8C0C0C0C0C0C0C0C0C0C2F
:101200000C0C0C0C0C0C0C0C0C0C0C0C0C0C0C0C1E
:101210000C0C0C0C0C0C0C0C0C0C0C0C0C0C0C0C0E
:101220000C0C0C0C0C0C0C0C0C0C0C0C0C0C0C0CFE
:101230000C0C0C0C0C1CFCF8000000000000000062
:1012400000000000000101FFFF808080000000001E
:10125000000080808080808000000000000080808E
:101260008385848685848685848685848685848630
:10127000858486858486838080808080808080804D
:101280008080808080808080808080808080F0A8C6
:1012900098C8A898C8A898C8A898C8A898C8A8988E
:1012A000C8F0808080808080808080000000000006
:1012B000000000000000FFFF000000000000000030
:1012C00000000000000000000101070F1C181818A2
:1012D000181C0F070101070F1C181818181C0F07FE
:1012E00001010101010101010101010101010101EE
:1012F00001010101010101010101010101010101DE
:1013000001010101010101010101010101010101CD
:1013100001010101010101010101010101010101BD
:1013200001010101010101010103FFFF00000000B3
:10133000000000000000FFFF0000000000000000AF
:10134000000000000000000000000000000000009D
:10135000000000000000000000FFFFFF0000000090
:101360000000FFFF0303FFFF0000FFFF0303FFFF79
:101370000000FFFF0303C3C30000FFFFFF070707D1
:101380000707070000E0E06060E0E000006060E068
:10139000E0606000000000000000000000000000AD
:1013A00000808080000000000000FFFF00000000BF
:1013B000000000000000FFFF00000000000000002F
:1013C000F8FC3870E0C080000000000000000080E1
:1013D000C0E07038FCF80000007F7F7F7070707094
:1013E00070700303030303030000030300000303FF
:1013F000000003030303030300007F7F7F7070700E
:1014000070707000007F7F06067F7F000000007F05
:101410007F000000E01008E4A4E40810E0007C82F3
:10142000017C545C71827C000000FFFF0000000022
:10143000000000000000FFFF0000000000000000AE
:10144000FFFF030383434FC383033F030383CF4360
:1014500043830303FFFFC0C0C0C0C0C0C0C0C0C042
:10146000C0C0C0C0C0C0C0C0C0C0C0C0C0C0C0C07C
:10147000C0C0C0C0C0C0C0C0C0C0C0C0C0C0C0C06C
:10148000C0C0C0C0C0C0C0C0C0C0C0C0C0C0C0C05C
:10149000C0C0C0C0C3C4C8D3D0D3C8C4C3C0C0C0F8
:1014A000C1C2C2C2C1C0C0C0C0C0FF7F0000F098AE
:1014B0004828F0000000FFFF000000000028282856
:1014C000FFFF2828000000204088D8D8884020004E
:1014D00000002828FFFF2828280000000000000046
:1014E0000000000000000000000000070A090C0ACC
:1014F000090C0A090C0A090C0A090C0A090C070054
:1015000000000000000000000000000000000000DB
:1015100000000000000000000000000000000000CB
:10152000000000000070A898C8A898C8A898CFA488
:1015300092C97F000000FFFF0000000000000000D3
:10154000070F0C0C0C0C0C3C7CE0C0C0C0C0E07C55
:101550003C0C0C3C7CE0C0C0C0C0E07C3C0C0C0CE3
:101560000C0C0C0C0C0C0C0C0C0C0C0C0C0C0C0CBB
:101570000C0C0C0C0C0C0C0C0C0C0C0C0C0C0C0CAB
:101580000C0C0C0C0C0C0C0C0C0C0C0C0C0C0C0C9B
:101590000C0C0C0C0C0C0C0C0C0C0C0C0C0C0C0C8B
:1015A0000C0C0C0C0C0C0C0C0C0C0C0C0C0C0C0C7B
:1015B0000C0C0C0C0C0C0F0700000000080B0002B8
:1015C00002020000090400000102020000052400DC
:1015D000100105240101010424020605240600016E
:1015E0000705810310004009040100020A00000001
:1015F00007050202400000070583024000000403C3
:10160000090412010002EF0201404123378000016A
:101610000102030141726475696E6F204C4C4300F6
:1016200041726475696E6F204D6963726F00476126
:101630006D6520436F6D706C6574656421000808EA
:101640008026767E7E762680807E6D3D5D2D7E8036
:10165000FF017E4A527E81FFFFFFFFFF017E80FF78
:10166000FF057A4A4A4E91FFFF354A4A4A7E81FF7A
:10167000FFF1EEE8087E81FFFF114E4A4A7A85FFAE
:10168000FF817E4A4A7A85FFFFFDFAFA027E81FFDA
:10169000FF017E4A4A7E81FFFFF1EEEA0A7E81FF6A
:1016A000FF017E0A0A7D83FFFF017E494B7B87FF96
:1016B000FF017E425A5A9DFFFF077B4B497E81FF07
:1016C000FF017E4A4A4AB1FFFF017E8AEAEAF1FF42
:1016D000FF016E4A4A7E81FFFF017E090B7B87FF77
:1016E000FFFF3D427E42BDFFFF1D6A4A427E81FFF1
:1016F000FF017E08087681FFFF017E415F5FBFFF2B
:10170000FF017E050B057E81FF017E05097E81FFBD
:10171000FF013C42423C81FFFF017E8AEAE4F1FF87
:10172000FFF1EEEA0A7E419FFF017E0A0A7583FF00
:10173000FF31444A4A3281FFFF013E4445218FFF79
:10174000FF017E40407E81FFFF017E2090CEE1FFC1
:10175000FF017E2117217E81FF096214C91462896D
:10176000FF014648483E81FFFF0962524A4691FF09
:10177000FFFF99666699FFFFFFE7DBDBDBDBE7FF37
:10178000FFFF9F6F6F9FFFFF9F6F6F6F6F6F6F9F69
:10179000FF9F6976B6C9FFFF877B454242457B873D
:1017A000E1DEA24242A2DEE1E7DBA54242427E81C7
:1017B000817E424242A5DBE7877B7D7E7E7D7B8703
:1017C000E1DEBE7E7EBEDEE1E7DBBD7E7E7E7E812B
:1017D000817E7E7E7EBDDBE7CF874900004987CFD3
:1017E000FFE741000041E7FFE1DEBE7D7DBEDEE1B7
:1017F000E7DBBD7E7EBDDBE7FF007E7E7E7E00FFF9
:10180000FF000000000000FFFF007E66667E00FF14
:10181000FF000018180000FF00000000000000009A
:1018200055AA55AA55AA55AAFF55FFAAFF55FFAAC2
:1018300077FEDFFB7FEEFFBBFFFFFFFFFFFFFFFF3A
:101840007FD989818189D97F7F8192C2A2D2817F0C
:1018500000FE81B5AD817E0000000000FE817F00AA
:1018600000FA85B5B5B16E0000CAB5B5B5817E0088
:10187000000E1117F7817E0000EEB1B5B5857A0034
:10188000007E81B5B5857A0000020505FD817E00E8
:1018900000FE81B5B5817E00000E1115F5817E0038
:1018A00000FE81F5F5827C0000FE81B6B4847800EC
:1018B00000FE81BDA5A5620000F884B4B6817E005B
:1018C00000FE81B5B5B54E0000FE817515150E0000
:1018D00000FE91B5B5817E0000FE81F6F4847800AB
:1018E0000000C2BD81BD420000E295B5BD817E0011
:1018F00000FE81F7F7897E0000FE81BEA0A04000B7
:1019000000FE81FAF4FA817E00FE81FAF6817E0003
:1019100000FEC3BDBDC37E0000FE8175151B0E0019
:10192000000E1115F581BE6000FE81F5F58A7C0080
:1019300000CEBBB5B5CD7E0000FEC1BBBADE7000E7
:1019400000FE81BFBF817E0000FE81DF6F311E007F
:1019500000FE81DEE8DE817E00F69DEB36EB9D76B3
:1019600000FEB9B7B7C17E0000F69DADB5B96E00F7
:1019700000006699996600000018242424241800A9
:101980000000609090600000609090909090906057
:1019900000609689493600007884BABDBDBA847863
:1019A0001E215DBDBD5D211E18245ABDBDBD817EB9
:1019B0007E81BDBDBD5A241878848281818284785D
:1019C0001E2141818141211E182442818181817E15
:1019D0007E818181814224183078B6FFFFB678304D
:1019E0000018BEFFFFBE18001E2141828241211E49
:1019F000182442818142241800FF81818181FF00E7
:101A000000FFFFFFFFFFFF0000FF81999981FF00AA
:101A100000FFFFE7E7FFFF00FFFFFFFFFFFFFFFF04
:101A2000AA55AA55AA55AA5500AA005500AA0055BC
:101A30008801200480110044000000000000000024
:101A40004C564C3A20000808FFFFFFFFFFFFFFFF46
:101A5000817E425A5A427E81807E653D5D257E8030
:101A60007C7E653D5D257E80807E255D3D657E7C3E
:101A700000FEFDFDFDFDFE00807F7F4F375F7F8014
:101A800001FEFEFEFEFEFE017D7D7D7D655D1BE7A8
:101A9000E71B5D657D7D7D7D7D7D7D7D7D7D7D7DA6
:101AA00000FFFFFFFFFFFF007C7F7F7F7F7F7F00C6
:101AB000007F7F7F7F7F7F7C7DFDFDFDFDFDFD0144
:101AC00001FDFDFDFDFDFD7DCC1811241FBECFEFF6
:101AD000DAE0DEBFCDBF11E0A0E0B1E0E4E0FAE47F
:101AE00002C005900D92AA3AB107D9F726E0AAEAFA
:101AF000B1E001C01D92AD3CB207E1F71DE0C5E6C3
:101B0000DDE004C02197FE010E94F524C436D10710
:101B1000C9F70E9424190C9400250C940000E9ECEC
:101B2000F1E0A0E0B8E000800EBC8111012C11971B
:101B3000A0FDFDCF0192B9F70DB4089580E00C949B
:101B40008F0D883088F4683078F498E06902F001ED
:101B50001124E80FF11D87FDFA95EE0FFF1FE75ED8
:101B6000F94F87819085089581E090E0089580E0A5
:101B7000E9ECF1E081118FEF00248193819381934F
:101B800081930394D1F71092B8061092B706109281
:101B9000B6061092B5060895883080F4683070F467
:101BA00098E06902F0011124E80FF11D87FDFA9514
:101BB000EE0FFF1FE75EF94F50874783089590911E
:101BC000B006982329F49091AF06982381E009F498
:101BD00080E00895883020F4683010F40C94A10D52
:101BE00080E098E00895CF92DF92FF920F931F93C9
:101BF000CF93DF93F22E415020E090E0443048F440
:101C000050E0FA01E459FE4F908148595E4FFA01C5
:101C10002081620F890FD1E0883018F4683008F411
:101C2000D0E0022F060F192F180FC1E0183018F45A
:101C3000083008F4C0E00E94EA0D6C01602F812F8B
:101C40000E94EA0DC11106C0C1E093FF03C08F15C9
:101C500008F0C0E0D1110BC0D3FEDC2F8D2FDF9137
:101C6000CF911F910F91FF90DF90CF900895D0E01A
:101C7000F5CF4F925F926F927F928F929F92AF9229
:101C8000BF92CF92DF92EF92FF920F931F93CF9369
:101C9000DF93FB01E00FF11DF7FD8AC06034710591
:101CA0000CF086C0DB0177FF04C0AA27BB27A61B68
:101CB000B70BA770BB27EB0177FD2796E3E0D5951F
:101CC000C795EA95E1F777FF07C0219768E070E0D4
:101CD000FB01EA1BFB0BDF0130E00695069506953C
:101CE000802E912C8A01AE015695542F442757958A
:101CF0004795480F591F47535E4FBE01E0E8F0E09B
:101D00007F01E81AF90A88E090E03C016A1A7B0A30
:101D10006F3FFFEF7F070CF43BC090E080E05A017B
:101D2000E0E8AE0EB11C6F3F760709F452C0FC012B
:101D3000E00FF11FE4916A01C80ED91EF0E02F01F7
:101D40000A2E01C0440C0A94EAF7F6015080452897
:101D500040821097B1F06730710599F0F801E80FF3
:101D6000F91FE4916501C80ED91EF0E02F01062C81
:101D700002C0559447940A94E2F7F6015080452832
:101D800040820196821793071CF4E816F90659F66B
:101D90006F5F7F4F020F131F40585F4FCB018C1BAB
:101DA0009D0B8815990524F46830710509F0B0CFB2
:101DB000DF91CF911F910F91FF90EF90DF90CF9027
:101DC000BF90AF909F908F907F906F905F904F905B
:101DD0000895109709F0C2CFD4CFFC018091C801BB
:101DE000882311F13FB7F89482E08093E9002091B5
:101DF000F200822F90E01816190614F481E090E0AA
:101E0000882339F0289A44E64093C7014091F100B5
:101E10004083222339F02091F200211103C02BE6E8
:101E20002093E8003FBF08958FEF9FEF08952FB7ED
:101E3000F89483E08093E9009091E800892F807204
:101E400095FF04C09091F20080E4891B2FBF089594
:101E50008091BF0181110DC082E08093BB0184E0BD
:101E60008093BC011092BE011092BD0181E080936D
:101E7000BF018BEB91E00895CF93DF931F92CDB715
:101E8000DEB76983DC01ED91FC910280F381E02DE6
:101E900041E050E0BE016F5F7F4F09950F90DF91E9
:101EA000CF91089583E08093E9008091F200882328
:101EB00019F08AE38093E80008950E94170F90E0DC
:101EC0000895CF93DF931F92CDB7DEB7FC018485D1
:101ED000958597FD08C02FEF3FEF358724870F903A
:101EE000DF91CF910895CE0101960E94ED0E0197EA
:101EF00019F4898190E0F3CF8FEF9FEFF0CF0F932C
:101F00001F93CF93DF931F92CDB7DEB78C01FC01F7
:101F10008485958597FF0BC0CE0101960E94ED0E3A
:101F2000019771F4898190E0F80195878487F80121
:101F3000848595850F90DF91CF911F910F91089522
:101F40008FEF9FEFF1CFFC018485958597FD0BC046
:101F50009FB7F89482E08093E9008091F2009FBFE0
:101F600090E0019608959FB7F89482E08093E9008D
:101F70008091F2009FBF90E008954091B50150918B
:101F8000B6012091B3013091B40142175307B4F464
:101F90009091E8009570E1F39091E80092FD19C0EE
:101FA0008093F1008091B5019091B60101968F73F5
:101FB0009927892B19F48EEF8093E8008091B50161
:101FC0009091B60101969093B6018093B50181E09E
:101FD000089580E00895DF92EF92FF920F931F9390
:101FE000CF93DF93D82E8A01EB017B01E40EF51E1F
:101FF000CE15DF0559F0D7FE12C0FE0184910E9474
:10200000BD0F21968111F4CF0FEF1FEFC801DF91B3
:10201000CF911F910F91FF90EF90DF9008958881ED
:10202000EECF0F931F93CF93DF931F92CDB7DEB701
:1020300082E0898342E450E06CEB75E180E80E9425
:10204000EB0F0E94280FDC0112960D911C910115D7
:10205000110589F0D801ED91FC910280F381E02D0A
:10206000BE016F5F7F4FC801099597FD04C0F8015D
:1020700000851185ECCF89810F90DF91CF911F9161
:102080000F910895615030F02091F100FC01208300
:102090000196F8CF289A84E68093C7010895AF92FD
:1020A000BF92CF92DF92EF92FF920F931F93CF9345
:1020B000DF936C017B018B01040F151FEB015E01A7
:1020C000AE18BF08C017D10759F06991D601ED913C
:1020D000FC910190F081E02DC6010995892B79F7DB
:1020E000C501DF91CF911F910F91FF90EF90DF908D
:1020F000CF90BF90AF9008953FB7F8948091AB0117
:102100009091AC01A091AD01B091AE0126B5A89B14
:1021100005C02F3F19F00196A11DB11D3FBFBA2F79
:10212000A92F982F8827BC01CD01620F711D811D39
:10213000911D42E0660F771F881F991F4A95D1F7BE
:1021400008950F931F93CF93DF93809164008E7F48
:102150008093640080917A00806480937A008091FB
:102160007A0086FDFCCFC0917800D09179000E9462
:102170007C10AB01BC01809164008160809364009D
:10218000CE01B0E0A0E0DC01992788278C019D01F9
:10219000040F151F261F371FC901B801DF91CF910A
:1021A0001F910F9108958F929F92AF92BF92CF92FD
:1021B000DF92EF92FF926B017C010E947C104B0139
:1021C0005C01C114D104E104F104B9F00E947C1057
:1021D000681979098A099B09683E73408105910550
:1021E00080F321E0C21AD108E108F10888EE880ED8
:1021F00083E0981EA11CB11CE4CFFF90EF90DF900C
:10220000CF90BF90AF909F908F9008958F929F92A4
:10221000AF92BF92CF92DF92EF92FF920F931F93F4
:10222000CF93DF936C017B018A0180910B0188239E
:1022300009F45CC08091C801882309F457C08091DB
:10224000BA0180FF05C08091E00082608093E000C9
:10225000E801B12C8AEFA82E93E0892E2AE3922E72
:10226000209711F4BB20D9F10E94170F81110AC0E9
:10227000AA94AA20D9F161E070E080E090E00E9489
:10228000D310EECF8C171D0611F00CF08C2F9FB7DA
:10229000F8948092E9002091E80025FD02C09FBFDC
:1022A000DFCF282F30E0C21BD30BF701815020F085
:1022B00041914093F100FACFE20EF31EBB2021F0D2
:1022C0009092E800B12CEBCF8091E80085FDE7CF3C
:1022D0009092E800BB24B394209709F3F3CF5D9A62
:1022E00084E68093B901101611063CF081E090E07D
:1022F000F6019383828310E000E0C801DF91CF9163
:102300001F910F91FF90EF90DF90CF90BF90AF9013
:102310009F908F9008957F928F929F92AF92BF92DD
:10232000CF92DF92EF92FF920F931F93CF93DF93A1
:10233000DC01FA01D490319694914E5F5F4FCD2D20
:10234000D0E02223E1F001E010E0892F877011F442
:1023500010E000E0E92FE695E695E695E00FF12F15
:10236000F11DEC9F8001ED9F100DFC9F100D1124BD
:10237000209FF001219FF00D11244E0F5F1F7E0161
:10238000EA0EFB1E1E141F040CF0A6C0A038B105F7
:102390000CF0A2C09B01290F311D121613060CF080
:1023A0009BC0603471050CF097C04115510509F4CC
:1023B00093C0062F07709B0177FF02C0295F3F4F34
:1023C00083E0359527958A95E1F7F22F77FF04C0D2
:1023D000002311F0FFEFF20F222733272A1B3B0BBC
:1023E000B7FD02C030E020E010E81A1B712E10E8A3
:1023F000E116F1040CF47D2C721A6F2F0F2E000CD5
:10240000770BF62EF094FF3F0CF0F12CE1E0892FD2
:10241000877009F4E0E09695969596959E0F690F62
:10242000711D6930710514F098E09F1B9F2C9F0E61
:10243000692D70E8670350011124AA0DBB1DA20F7E
:10244000B31FDF9C200D311D1124420F531FC02EDE
:10245000002E000CDD082FEF30E0002E02C0220F0E
:10246000331F0A94E2F720953095832E9F0F99151C
:1024700099F1FD01E753FE4F7F01B12CA12CA71468
:1024800028F5FA01EA0DFB1D649170E00C2C02C0E6
:10249000660F771F0A94E2F797FC05C0F701808169
:1024A0008223862B8083002351F0F6E0F9153CF05F
:1024B000F701E058FF4F80818821872B80831FEF31
:1024C000A11AB10A6FEFE61AF60AD9CF93944C0F0E
:1024D0005D1FA058BF4FCBCFDF91CF911F910F91C0
:1024E000FF90EF90DF90CF90BF90AF909F908F9034
:1024F0007F900895EF92FF920F931F93CF93DF93F6
:10250000C82F7A01D0E0062F10E0F701ED0FF11D82
:1025100080818823D1F1282F8134A0F08B3560F49D
:102520002553205C4EE356E1B8018C2F90E00E94C9
:102530008B11DF5FC85FE9CF813630F08B3730F425
:102540002555EFCF803380F08A3390F08A3399F0AD
:102550008B3399F08E3299F08F3599F08D3299F056
:102560008C33F9F621E0DDCF803291F72FE3D9CF1C
:1025700022ED280FD6CF26E2D4CF2AE2D2CF28E20E
:10258000D0CF29E2CECF27E2CCCFDF91CF911F91E0
:102590000F91FF90EF9008952D9A0895BC0190E05F
:1025A00080E00C94D3108FB18095807F669B88600B
:1025B0001C9B846008952F923F924F925F926F927E
:1025C0007F928F929F92AF92BF92CF92DF92EF92C3
:1025D000FF920F931F93CF93DF9300D000D01F92F1
:1025E000CDB7DEB79C838B836A3059F5DC015596F5
:1025F0008C91B8E08B9F90011124EB81FC81818943
:102600009289820F931F928B818B108A178681E0AB
:1026100090E00F900F900F900F900F90DF91CF915F
:102620001F910F91FF90EF90DF90CF90BF90AF90F0
:102630009F908F907F906F905F904F903F902F90E2
:1026400008956D3021F3AB81BC811F968D919C91D3
:102650005097803891050CF087C05196CD90DC9052
:10266000B0E4CB16D1040CF07FC0EB81FC819588DF
:10267000E5E09C019E9E200D311D112412161306CB
:102680000CF072C0E92CF12C9701B3E0220F331F3C
:10269000BA95E1F72C0D3D1D121613060CF064C01F
:1026A000AB81BC8154965C90549753964C906E9F2E
:1026B000F0011124E653FF4F70E02491753009F4C6
:1026C00020E05601A8E06A2E222E312C642D20FF36
:1026D000652D611103C0541409F437C0AC01617059
:1026E0006A834983242F281B291578F510E000E020
:1026F000091540F54038510510F598012A0D3B1D8C
:1027000020343105E0F460E1762E898061E021FD1E
:1027100064E020FD660F22FD6295287F729ED00145
:102720001124A80D6D83A753BE4F2C913A81862E9C
:10273000822A311103C08D80809482228C920F5F97
:102740001F4FD6CF4F5F5F4FCCCF91013595279567
:102750006A94AE0CBF1C6110B7CF7F5F31968E0DAF
:102760009F1D763009F0A9CFAB81BC8155962C9185
:102770005597422F50E01F968D919C91B6E02B9F6C
:10278000800D911D1124EB81FC81908B8787268918
:10279000222309F43CCF6AEF64039001659F300D5A
:1027A000112420583F4F281739070CF030CFCF01A4
:1027B0000190F081E02D0190F081E02D6AE0099513
:1027C00026CF0F931F93CF93DF938C01D0E0C0E00F
:1027D000F801EC0FFD1F6491662341F086EA96E054
:1027E0000E94DB12892B11F02196F2CFCE01DF91EE
:1027F000CF911F910F9108950E94B70D8AE090E04C
:102800009093B6068093B5068EE190E09093B8065B
:102810008093B7068EE296E10E94E1130E949E0D1E
:1028200088EB9BE00C94CE120895089590E080E030
:1028300008958F929F92AF92BF920F931F93CF9361
:10284000DF93CDB7DEB7A1970FB6F894DEBF0FBE0A
:10285000CDBF19A2423008F44AE08E010F5D1F4F30
:10286000842E912CB12CA12CA50194010E940B2245
:10287000E62FB901CA01EA3044F5E05DD801EE93D4
:102880008D01232B242B252B79F790E080E01097E6
:1028900069F0FD0101900020E9F73197AF014A1B73
:1028A0005B0BBD0186EA96E00E944F10A1960FB621
:1028B000F894DEBF0FBECDBFDF91CF911F910F9176
:1028C000BF90AF909F908F900895E95CD7CF0E9402
:1028D000B70D83E290E09093B6068093B5068EE143
:1028E00090E09093B8068093B70649E050E066E91F
:1028F00071E086EA96E00E944F100E949E0D88EEDD
:1029000093E00C94CE12AF92BF92CF92DF92EF92EF
:10291000FF920F931F93CF93DF93CDB7DEB7299725
:102920000FB6F894DEBF0FBECDBFD12CC12C00E096
:10293000B12CA12CF12C602F8F2D0E94A10D282FDE
:1029400046E45AE1B601C5010E948B11F39438E0C8
:10295000A30EB11C88E0F812EECF0F5FE8E0CE0EB8
:10296000D11C083029F78091A506823009F4ACC04B
:1029700008F09FC0882309F4A1C0813009F4A2C0E7
:102980006091A106F8E06F02B00111248091A006C9
:10299000212F46E45AE138E08302C00111240E944D
:1029A0008B1106E410E01093B6060093B50684E19F
:1029B00090E09093B8068093B70680E49AE10E9475
:1029C000E11360911F0670E06F5F7F4F072E000CD0
:1029D000880B990B4AE00E9419141093B6060093D5
:1029E000B50682E390E09093B8068093B70648E07E
:1029F00050E060EA71E086EA96E00E944F10809114
:102A00001906813009F044C040911B0650911C0604
:102A100060911D0670911E068E010F5F1F4FF80119
:102A200030E020E09FE0C92ED12CE12CF12CD70121
:102A3000C601022E04C0880F991FAA1FBB1F0A944B
:102A4000D2F784239523A623B723022E04C0B6957C
:102A5000A795979587950A94D2F781932C5F3F4F5E
:102A60002032310521F780E4E82EF12CF801219184
:102A70008F012E5B4EE356E170E060E0C7010E94DB
:102A80008B11F8E0EF0EF11C30E8E316F10471F75A
:102A900029960FB6F894DEBF0FBECDBFDF91CF9160
:102AA0001F910F91FF90EF90DF90CF90BF90AF906C
:102AB0000895833029F0843009F062CF12E060CFAE
:102AC00015E05ECF14E05CCF13E05ACF0C94C32125
:102AD0000E94FB241F920F920FB60F9211248F9326
:102AE0009F938091E1009091E100937F9093E100AA
:102AF00083FF0FC01092E90091E09093EB001092D9
:102B0000EC0092E39093ED001092C80198E090934E
:102B1000F00082FF22C093E09093E9009091F200D0
:102B2000992319F09AE39093E8009091B9019923C1
:102B300041F09091B90191509093B901911101C068
:102B40005D989091C701992341F09091C7019150F0
:102B50009093C701911101C0289884FF18C08091FB
:102B6000E2008E7E81608093E2008091E1008F7EA2
:102B70008093E1008091BA018E7E80618093BA01DA
:102B80009F918F910F900FBE0F901F90189580FF0F
:102B9000F7CF8091E2008E7E80618093E200809189
:102BA000E1008E7E8093E1008091BA018E7E81608B
:102BB000E5CF1F920F920FB60F921124CF92DF92A2
:102BC000EF92FF920F931F932F933F934F935F9337
:102BD0006F937F938F939F93AF93BF93EF93FF93E5
:102BE000CF93DF93CDB7DEB76C97DEBFCDBF10922A
:102BF000E9008091E80083FF25C068E0CE0145969A
:102C00000E94421082EF8093E8008D8987FF39C0CF
:102C10009091E80090FFFCCF982F907609F034C196
:102C20009E894F89588D2F89F88C911131C0803839
:102C300061F58091B8018093F1001092F1008EEF60
:102C40008093E8006C960FB6F894DEBF0FBECDBF40
:102C5000DF91CF91FF91EF91BF91AF919F918F91B4
:102C60007F916F915F914F913F912F911F910F91A4
:102C7000FF90EF90DF90CF900F900FBE0F901F90BE
:102C800018959EEF9093E800C7CF1092F100D5CF32
:102C9000913059F48111D3CF4130510581F68091A3
:102CA000B8018D7F8093B801CACF933049F4811168
:102CB000C6CF4130510519F68091B8018260F2CF3C
:102CC000953041F48091E80080FFFCCF206820938C
:102CD000E300B5CF963009F0A9C00B8D1C8D22E022
:102CE0001092E9001092B6011092B501F2122EC0B6
:102CF0001092B4011092B3010E9411101F8299E04A
:102D00009983FA8291E09E8390EA98879AEF998757
:102D10002091B5013091B601275F3F4F3C832B8353
:102D20008D831092E9001092B6011092B5011093B4
:102D3000B4010093B30149E050E0BE016F5F7F4FE3
:102D400080E00E94EB0F0E94111079CF1093B40124
:102D50000093B3010E94280FDC0112960D911C9183
:102D60000115110509F451C1D801ED91FC910480C0
:102D7000F581E02DBE016B5E7F4FC801099500977C
:102D800009F03EC1F80100851185EACFF3E0FF129A
:102D90000EC08F89882309F440C0823061F440E876
:102DA0006DE080E296E10E945518811148CF81E2E2
:102DB0008093EB0047CF813029F440E86BE084E159
:102DC00096E1F1CF833099F70E94280FDC0112962B
:102DD000ED90FC908E010F5F1F4F6801E114F1042C
:102DE00079F0D701ED91FC910680F781E02DB801D3
:102DF000C7010995080F111DF701E084F184EECF9A
:102E0000D8011C92F60101900020E9F73197BF012B
:102E10006C197D0940E0C601C6CF6EEF75E1FB017C
:102E2000449150E080E80E94EB0F09CF973009F4FD
:102E3000BECF983021F481E08093F10000CF99302B
:102E400009F0FDCE837009F0B2CFE2E6F1E081E057
:102E500031E096E32191222371F08093E9003093D1
:102E6000EB00DF0111972C912093EC009093ED0083
:102E70008F5F873079F78EE78093EA001092EA003F
:102E80008F898093C801DBCE8B8D9C8D1092E900D9
:102E90001092B6011092B5019093B4018093B301E2
:102EA000898D811192C08E899D89913A49F4813230
:102EB00009F07DCF47E050E064E071E080E0B3CFFF
:102EC000913209F074CF833269F48F89988DB0E024
:102ED000A0E08093000190930101A0930201B093C0
:102EE0000301ADCE803269F48091E80082FFFCCF0F
:102EF00067E084E091E00E9442108BEF8093E8004D
:102F00009ECE823209F09BCE8F8980930B01EEEF2B
:102F1000FFE7859194918B3F9C4D51F1E0E0F8E003
:102F20008091040190910501A0910601B0910701E3
:102F3000803B9440A105B105F1F480910B0180FD27
:102F40001AC0EE3F8AE0F80789F587E797E7918393
:102F50008083809160008093B70188E19BE00FB689
:102F6000F894A895809360000FBE9093600067CEA0
:102F7000EEEFFAE0D5CF808191818737974709F04E
:102F80005ECEA895809160008861809360008091FA
:102F9000B70180936000EE3F2AE0F20789F080914C
:102FA000FE0A9091FF0A9183808349CE80819181AE
:102FB0008737980751F29093FF0A8093FE0AC5CF96
:102FC0001092FF0A1092FE0A3ACE0E94280FDC01EE
:102FD00012960D911C910115110509F4E8CED80146
:102FE000ED91FC910190F081E02DBE016B5E7F4F71
:102FF000C8010995811123CEF80100851185EBCF19
:10300000181619060CF41BCED2CEF1E0FF12BECE7C
:1030100062E076E104CF1F920F920FB60F92112457
:103020002F933F938F939F93AF93BF938091AF0163
:103030009091B001A091B101B091B2013091AA017B
:1030400023E0230F2D3758F50196A11DB11D2093C4
:10305000AA018093AF019093B001A093B101B09306
:10306000B2018091AB019091AC01A091AD01B09102
:10307000AE010196A11DB11D8093AB019093AC01EF
:10308000A093AD01B093AE01BF91AF919F918F918D
:103090003F912F910F900FBE0F901F90189526E82B
:1030A000230F0296A11DB11DD2CFEF92FF920F9375
:1030B0001F93CF93DF93F82E192FE62E042F81E074
:1030C000860F880F0E94BD0F83E00E94BD0FCF2D99
:1030D000D12FEC0EFD2EF11CCE15DF05B9F007FF48
:1030E00013C0FE0184910E94BD0F182F80E00E9442
:1030F000BD0F812321968111EFCFDF91CF911F91D9
:103100000F91FF90EF9008958881EDCF81E0F5CF8A
:103110000F931F93CF93DF938C0181E090E00E9487
:10312000661580FF31C08AE090E00E9466159FEF2F
:10313000980F9E3F48F522E330E0D80150963C932B
:103140002E931F9728E330E052963C932E9351978D
:10315000CBE0D0E0D801ED91FC910190F081E02D21
:10316000682FC8010995CE010E9466152196C131CC
:10317000D10581F70E949E0D88EE93E0DF91CF91FB
:103180001F910F910C94CE12DF91CF911F910F914F
:10319000089504970C948818E9ECF5E013821282E4
:1031A00088EE93E0A0E0B0E084839583A683B783A4
:1031B00084E791E0918380838FEF9FEF95878487E9
:1031C000E9E1F6E082E080831182128213821482A8
:1031D00015821682E0E2F6E080E8DF011D928A9512
:1031E000E9F71092A9061092A8061092AF06109265
:1031F000B00680E18093B1061092AE061092AD0643
:103200001092B30686E891E09093A7068093A606F5
:1032100084E991E09093AB068093AA061092B606DB
:103220001092B5061092B8061092B70681E080930E
:10323000B9061092BA068093BB061092BC06109293
:10324000BE061092BF060895CF93DF93CDB7DEB7C9
:103250006D970FB6F894DEBF0FBECDBF789484B5DE
:10326000826084BD84B5816084BD85B5826085BD82
:1032700085B5816085BD80916E00816080936E0010
:103280001092810080918100826080938100809102
:1032900081008160809381008091800081608093B3
:1032A00080008091910082608093910080919100D4
:1032B0008160809391008091900081608093900064
:1032C0008091C10084608093C1008091C1008260C0
:1032D0008093C1008091C10081608093C100809182
:1032E000C30081608093C3008091C000826080939E
:1032F000C0008091C20081608093C20080917A00FA
:10330000846080937A0080917A00826080937A0052
:1033100080917A00816080937A0080917A00806841
:1033200080937A001092C8011092B8011092BA01ED
:103330008091D70081608093D70080EA8093D80085
:1033400089B5806189BD89B5826089BD09B400FEF7
:10335000FDCF61E070E080E090E00E94D3108091AA
:10336000D8008F7C80618093D8008091E000807FBE
:103370008093E0008091E1008E7E8093E1008DE0FB
:103380008093E200559A209A5D98289881EC80936A
:103390007C0085B1806F85B984B1877E84B984B1A2
:1033A000876E84B95E9A5F988AB1806D8AB9769A81
:1033B0006E9881B3806F81BB899880B38D7080BB1C
:1033C00080E58CBD81E08DBD85E090E00E94CE124D
:1033D0005F9A85E090E00E94CE125E985C98EAE7E2
:1033E000F6E087E896E024912EBD00000DB407FEBC
:1033F000FDCF31968E179F07B1F75C9A81E88093D5
:103400006400809165008160809365000E949E0D3C
:103410000E94D31287FF15C05C9885EA8EBD00001C
:103420000DB407FEFDCF5C9A2E982F982D988091B1
:10343000640080628093640081E083BF889513BE3E
:10344000FCCF0E94D31282FF48C02D980E94D31255
:1034500084788438E1F40E94CC1288EC90E00E94D9
:10346000CE122F9882E090E00E94C3218F3F29F076
:103470006FEF82E090E00E94CB2184EF91E00E9408
:10348000CE122F9A0E94D31284788438D9F30E94E6
:10349000D31284718431E1F40E94CC1288EC90E064
:1034A0000E94CE122E9882E090E00E94C3218823D1
:1034B00029F060E082E090E00E94CB2184EF91E06F
:1034C0000E94CE122E9A0E94D31284718431D9F3B5
:1034D00088EC90E00E94CE12B4CF0E94CC1282E021
:1034E00090E00E946615882309F450C03E9A3F9AE6
:1034F00081E090E00E946615182F147081FF0EC0C5
:1035000011112E9800EFE02EFF24FA940E94D3129E
:1035100086FF3FC02E9A2F9A0E94CC1282E390E041
:103520000E94CE120E94D3128111F8CF80E18093C5
:10353000B1060E94A110611571058105910511F078
:103540000E94BA2110E1212E11E0312E8FB7F8949C
:103550004091AF015091B0016091B1017091B20101
:103560008FBF8091B206942F981B892F9091B3063C
:10357000992309F43FC08093B4061092B30680E00B
:1035800090E0892B19F30E940000DCCF3E983F9811
:10359000AFCF112331F024E0E216F10411F42E9A9A
:1035A0002F9881E00E948F0D00E128E54AEC55E05C
:1035B000B70184E190E00E94390E0E949E0D8FE0D9
:1035C00090E00E94CE123FEFE31AF30A49E1E416BD
:1035D000F10409F09BCF112311F02F9A2D9880E967
:1035E00091E00E94CE120E94CC1286EA96E00E94E0
:1035F000881894CF9091B106891748F48F5F891786
:1036000008F0BDCF81E083BF889513BEB8CF81E0BD
:103610008093B3064093B2068091AD069091AE06BA
:1036200001969093AE068093AD068091AF0680938D
:10363000B0060E94D3128093AF06E0911A06E730DD
:1036400008F09DCFF0E0E95DF44E0C94F5242E1BBC
:10365000451B8A1C0B1DF31D791F2D200E94B70DE1
:1036600088E00E94DF0D882319F081E080931A061C
:1036700000E420E84CEB51E170E060E090E080E095
:103680000E94390E0E949E0D7ACF0E94B70D80E8ED
:103690000E94DF0D882339F08091BE06823018F039
:1036A00081508093BE0680E10E94DF0D882339F0AF
:1036B0008091BE06833018F48F5F8093BE0688E049
:1036C0000E94DF0D8823B1F01091BE06113009F47D
:1036D0005EC008F44AC0123009F46AC0133009F41D
:1036E00078C084E00E94DF0D882321F01092BE068E
:1036F00010921A063A82298283E191E09C838B839F
:103700008DE191E09E838D8387E291E098878F839E
:1037100087E391E09A8789873C862B863E862D86B3
:10372000DE0111964D01AA24AA94BA2CA4E0DA2E47
:10373000B9E0CB2EF401E190F1904F01A7016D2D7E
:1037400080E00E947A127090BE067A141B0409F081
:103750009DC080E0082F10E0F701E00FF11F90817D
:10376000992309F446C08F5FF5CF10921B06109283
:103770001C0610921D0610921E0610921F06109233
:10378000BE061092190684E080931A06AACF0E9402
:10379000A11060931B0670931C0680931D069093E6
:1037A0001E0610921F061092BE0610931906EBCF4C
:1037B00010921B0610921C0610921D0610921E06F7
:1037C00010921F061092BE061092190610931A0648
:1037D00088CF10921B0610921C0610921D061092A4
:1037E0001E0610921F061092BE0682E080931906F4
:1037F000EDCF6091AD067091AE0690E080E00E9442
:103800004A2320E030E040E751E40E94A9220E94D0
:1038100045242C2D7C9C200D11242C5FE22EF12CB4
:1038200020E030E040E85FE30E943D2220E030E00D
:1038300040E05FE30E94D82320E030E040EA50E41B
:103840000E94D8232B013C01B801E3E0660F771FEB
:10385000EA95E1F7072E000C880B990B0E944C2388
:103860009B01AC01C301B2010E943D2220E030E087
:1038700040E85FE30E943D220E941B23862F2DE635
:103880004EE356E1B70190E00E948B11F9E0DF0EA4
:103890002FEFA21AB20A33E4D3124CCFE091AD0657
:1038A000F091AE06CF019695879560E570E00E9495
:1038B000E124282FCF0160EA70E00E94E12446E471
:1038C00051E062E081359105F8F4822F0E947A126E
:1038D000E091AD06F091AE06CF019695879560E533
:1038E00070E00E94E124282FCF0160EA70E00E947E
:1038F000E12446E451E064E38135910540F488E237
:10390000821B0E947A12BECE80E5821BDFCF88ED3B
:10391000820FF7CF0E94B70D80E10E94DF0D882350
:1039200089F08091BF06882319F081508093BF06EB
:1039300010E0E12FF0E0EE5AFE4F8081882379F10C
:103940001F5FF7CF80E80E94DF0D882331F0809160
:10395000BF068F3468F78F5FE9CF88E00E94DF0DE4
:103960008823A1F010921B0610921C0610921D06CF
:1039700010921E068091BF0680931F061092BF060C
:103980001092190684E080931A06D2CF84E00E9438
:10399000DF0D882369F21092BF0681E0F4CF42E583
:1039A00051E060E080E00E947A120091BF060F5F54
:1039B000110F110F110F20E0802F3AE0882329F01A
:1039C000632F0E94D5242F5FF9CF01110AC022E492
:1039D0004AEB5DE070E060E0812F90E00E948B1187
:1039E00051CE215E220F220F220F120F3AE0F32E4A
:1039F000802F6F2D0E94D524082F22E4290F4EE33B
:103A000056E170E060E0812F90E00E948B11185029
:103A10000111EECF37CE0E94B70D80E20E94DF0D7C
:103A20008823B1F18091C906882319F081508093D1
:103A3000C90620ECE22E26E0F22ED12C00E210E0A6
:103A40008091C9068D11BBC02BE648EB59E060E1BF
:103A500070E0C8010E948B11D7012C912E5B4EE3C0
:103A600056E168E170E0C8010E948B112CE648EB3A
:103A700059E060E270E0C8010E948B11D394085FA6
:103A80001F4FFFEFEF1AFF0A28E0D212D9CFFACD6D
:103A900080E40E94DF0D882331F08091C9068830D0
:103AA00040F68F5FC4CF80E10E94DF0D882361F074
:103AB000E091C906F0E0E054F94F8081882309F4D1
:103AC000B8CF81508083B5CF80E80E94DF0D882376
:103AD00059F0E091C906F0E0E054F94F80818F3051
:103AE00008F0A7CF8F5FEECF88E00E94DF0D88231C
:103AF00009F44BC089E0E0ECF6E0DE011F9601908E
:103B00000D928A95E1F7FE013F9630E020E0819129
:103B100090E0B0E0A0E0022E04C0880F991FAA1F19
:103B2000BB1F0A94D2F7488D598D6A8D7B8D480F43
:103B3000591F6A1F7B1F488F598F6A8F7B8F2C5F9D
:103B40003F4F2032310519F740931B0650931C0656
:103B500060931D0670931E061092C0061092C10657
:103B60001092C2061092C3061092C4061092C506A7
:103B70001092C6061092C7061092C90681E0809383
:103B8000190684E080931A0654CF84E00E94DF0D6A
:103B9000882309F44ECF1092C9061092C0061092E5
:103BA000C1061092C2061092C3061092C40610926B
:103BB000C5061092C6061092C70681E0E3CF2FE635
:103BC00048EB59E060E170E0C8010E948B11F701F9
:103BD00020812E5B4EE356E168E170E0C8010E944F
:103BE0008B1120E744CF809119061092A206109203
:103BF000A3061092A0061092A1061092A40610929D
:103C0000A506813009F036C160911B0670911C0633
:103C100080911D0690911E066F5F7F4F8F4F9F4FC3
:103C200011F00E94BA2160911B0670911C068091D0
:103C30001D0690911E06611571058105910511F013
:103C40000E94BA210E946B2128E030E040E050E061
:103C50000E94D9216093A0060E946B2128E030E0E9
:103C600040E050E00E94D9216093A10610E000E0FE
:103C700050E040E0612F802F0E94CC0D0F5F083094
:103C8000B9F71F5F183099F7F090A006E090A106F1
:103C90000E946B2124E030E040E050E00E94D921F6
:103CA00055245394560E452D50E0542F4427442755
:103CB000577058606E2D8F2D0E94CC0D00E0612C46
:103CC000712C6E2D8FEF8F0D0E94EA0D96959695B3
:103CD00096959C8F1D8E8C8D9D8D31E08327182F9E
:103CE00011706E2D81E08F0D0E94EA0D93FF1F5F12
:103CF0006FEF6E0D8F2D0E94EA0D93FF1F5F61E045
:103D00006E0D8F2D0E94EA0D93FF03C0112309F45D
:103D100094C0D62CC72C0E946B2124E030E040E0F8
:103D200050E00E94D921B62E11E0160F1230A9F1F1
:103D300068F51130D1F1202F412F6E2D8F2D0E946B
:103D4000F30D882341F343E0912C412C4B1550F0A7
:103D50008B2D90E0FC01E459FE4F408088599E4F26
:103D6000DC019C90812CBE2CAF2C202F280D412FE4
:103D70006B2D8A2D0E94F30D8823D9F0A40CB90C69
:103D80008394F3CF6D2C7C2C512E9BCF133049F0B4
:103D9000143089F6DD24D39406C0D12CCC24C394EE
:103DA000CACFDD24DA94C12CC6CFD12CCC24CA943E
:103DB000C2CF912CB12CA12C81149104A104B10487
:103DC00039F00E946B21A50194010E94D9214B0179
:103DD000151579F06E0C7F0C662D872D0E94EA0D6B
:103DE00093FD07C0402F50E05860662D872D0E943C
:103DF000CC0DA12EB12CBA2CAA24AA24B7E0BB2248
:103E00006894B3F881E0800F880E882D801B181607
:103E10000CF0B8CF202F412F6E2D8F2D0E94F30D67
:103E2000882309F4AFCF0F5FFC0CED0CA501402BEC
:103E30006E2D8F2D0E94CC0DE8CF10E000E0612F99
:103E4000802F0E94A10D93FF05C0892F877050E03D
:103E500040E011F441E050E0612F802F0E94CC0D32
:103E60000F5F083061F71F5F183041F785E08093DE
:103E70001A0685CB00911F06EAE00E9F80011124EF
:103E80000257194FF12CE12CF801EE0DFF1DE491C2
:103E9000D12CC12CAE2EB12C87E090E08C199D095D
:103EA000950102C0359527958A95E2F741E050E0EB
:103EB00020FD02C050E040E06E2D8C2D0E94CC0D04
:103EC0003FEFC31AD30A48E0C416D10429F75FEFC5
:103ED000E51AF50A68E0E616F104B1F6F80138963D
:103EE000E491E093A006F8013996E491E093A106ED
:103EF000BDCF0E94B70D0E94D31287FF1AC06091F8
:103F0000A10661508091A0060E94A10D892B09F0A5
:103F100064C01092A2068FEF8093A3068091A4063E
:103F20008093A50683E08093A40686E080931A061A
:103F300054C00E94D31286FF16C01091A006609153
:103F4000A10681E0810F0E94A10D892B09F06AC1B1
:103F500081E08093A2061092A3068091A40680932C
:103F6000A50682E0E0CF0E94D31284FF14C06091C6
:103F7000A1066F5F8091A0060E94A10D892B69F5B3
:103F80001092A20681E08093A3068091A4068093FC
:103F9000A50684E0C8CF0E94D31285FF14C080918B
:103FA000A0066091A10681500E94A10D892BA9F461
:103FB0008FEF8093A2061092A3068091A4068093AF
:103FC000A50681E0B0CF0E94D31282FF3FC00E94BD
:103FD000D31283FF3BC010921A06F090A1061091F5
:103FE000A0066F2D8FEF810F0E94A10D01E0892B9C
:103FF00009F000E06F2D81E0810F0E94A10D892B57
:1040000009F40F5F6FEF6F0D812F0E94A10D892BB7
:1040100009F40F5F61E06F0D812F0E94A10D892BC4
:1040200091F0011110C086E490E09093B606809361
:10403000B506AEE1B0E0B093B806A093B70687E846
:1040400096E00E94E1130E9483141CCB84E00E943E
:10405000DF0D882311F284E069CF0E94B70D8091B3
:10406000AD069091AE0665E070E00E94E124892BD8
:1040700009F042C06091A1068091A0069091A4062B
:10408000923009F473C008F04EC0913009F45CC05E
:104090008091A4068093A5062091A1068091A30695
:1040A000082E000C990B820F911D27FD9A958830E0
:1040B000910514F087E090E097FD80E0F82E809164
:1040C000A0060091A206002E000C110B080F111D76
:1040D00087FD1A950830110514F007E010E017FD70
:1040E00000E06F2D802F0E94A10D892B09F06CC07C
:1040F0000093A006F092A106E0E2F6E08191919192
:10410000892B09F4A0CF20EA36E02E173F07B1F73C
:1041100080911906813009F473C008F45DC08230C3
:1041200009F45EC090CF9330B1F1943009F0B0CF74
:104130009091A506913009F441C0E8F1923009F45C
:1041400040C0943091F1A4CF9091A506913001F137
:1041500040F09330B1F1943009F09ACF4CE050E048
:1041600002C048E050E00E94CC0D92CF9091A5068D
:10417000923071F028F449E050E09923A1F388CF00
:104180009330E1F0943009F083CF4DE050E0EBCF75
:104190004AE050E0E8CF9091A5069130B1F340F0AD
:1041A0009230E1F2933009F073CF4BE050E0DBCF77
:1041B00046E050E0D8CF47E050E0D5CF4FE050E0A8
:1041C000D2CF4EE050E0CFCF1092A2061092A306BD
:1041D00085E080931A0690CF80911F068F3428F0D7
:1041E0000E94FC1310921A062ECF0E946714809131
:1041F0001F068F5F80931F0684E080931A0623CFEB
:104200000E94671480911F068F5F80931F060E9493
:10421000A11060931B0670931C0680931D0690935B
:104220001E06EACFF090A1066F2D8FEF810F0E943E
:10423000A10D01E0892B09F4E5CE00E0E3CE8F92D9
:104240009F92AF92BF92CF92DF92EF92FF92CF9365
:10425000DF93EC01688179818A819B816115710509
:104260008105910521F464E279ED8BE597E02DE17C
:1042700033EF41E050E00E94D92149015A019B01EE
:10428000AC01A7EAB1E40E94F8216B017C01ACEE1D
:10429000B4EFA50194010E940622C60ED71EE81EA7
:1042A000F91EF7FE06C081E0C81AD108E10880E8CF
:1042B000F80AC882D982EA82FB82C701B6019F77D9
:1042C000DF91CF91FF90EF90DF90CF90BF90AF90B4
:1042D0009F908F9008958F929F92AF92BF92CF92AE
:1042E000DF92EF92FF9260910C0170910D0180912D
:1042F0000E0190910F01611571058105910521F461
:1043000064E279ED8BE597E02DE133EF41E050E099
:104310000E94D92149015A019B01AC01A7EAB1E4ED
:104320000E94F8216B017C01ACEEB4EFA501940171
:104330000E940622C60ED71EE81EF91EF7FE06C012
:1043400081E0C81AD108E10880E8F80AC0920C019F
:10435000D0920D01E0920E01F0920F01C701B6015B
:104360009F77FF90EF90DF90CF90BF90AF909F909E
:104370008F90089560930C0170930D0180930E014E
:1043800090930F010895F999FECF92BD81BDF89ADF
:10439000992780B50895262FF999FECF1FBA92BDAF
:1043A00081BD20BD0FB6F894FA9AF99A0FBE019616
:1043B0000895052E97FB1EF400940E94F02157FDEE
:1043C00007D00E940B2207FC03D04EF40C94F0217E
:1043D00050954095309521953F4F4F4F5F4F089531
:1043E00090958095709561957F4F8F4F9F4F089561
:1043F0000E942D22A59F900DB49F900DA49F800D2B
:10440000911D11240895B7FF0C94F8210E94F82102
:10441000821B930B0895A1E21A2EAA1BBB1BFD0160
:104420000DC0AA1FBB1FEE1FFF1FA217B307E40793
:10443000F50720F0A21BB30BE40BF50B661F771FEB
:10444000881F991F1A9469F76095709580959095CB
:104450009B01AC01BD01CF010895A29FB001B39FA4
:10446000C001A39F700D811D1124911DB29F700D7D
:10447000811D1124911D08955058BB27AA270E9421
:1044800054220C949E230E94902338F00E9497237C
:1044900020F039F49F3F19F426F40C948D230EF488
:1044A000E095E7FB0C948723E92F0E94AF2358F394
:1044B000BA17620773078407950720F079F4A6F509
:1044C0000C94D1230EF4E0950B2EBA2FA02D0B01E6
:1044D000B90190010C01CA01A0011124FF27591B49
:1044E00099F0593F50F4503E68F11A16F040A22F4F
:1044F000232F342F4427585FF3CF469537952795C0
:10450000A795F0405395C9F77EF41F16BA0B620BBE
:10451000730B840BBAF09150A1F0FF0FBB1F661F05
:10452000771F881FC2F70EC0BA0F621F731F841F48
:1045300048F4879577956795B795F7959E3F08F06E
:10454000B0CF9395880F08F09927EE0F9795879530
:1045500008950E94BD220C949E230E94972358F038
:104560000E94902340F029F45F3F29F00C948723A8
:1045700051110C94D2230C948D230E94AF2368F325
:104580009923B1F3552391F3951B550BBB27AA270C
:1045900062177307840738F09F5F5F4F220F331F46
:1045A000441FAA1FA9F335D00E2E3AF0E0E832D00E
:1045B00091505040E695001CCAF72BD0FE2F29D011
:1045C000660F771F881FBB1F261737074807AB07E3
:1045D000B0E809F0BB0B802DBF01FF2793585F4F58
:1045E0003AF09E3F510578F00C9487230C94D22327
:1045F0005F3FE4F3983ED4F3869577956795B7953A
:10460000F7959F5FC9F7880F911D9695879597F944
:104610000895E1E0660F771F881FBB1F62177307BD
:104620008407BA0720F0621B730B840BBA0BEE1FD2
:1046300088F7E09508950E94B72388F09F5798F077
:10464000B92F9927B751B0F0E1F0660F771F881F97
:10465000991F1AF0BA95C9F714C0B13091F00E94B1
:10466000D123B1E008950C94D123672F782F8827A8
:10467000B85F39F0B93FCCF3869577956795B395D8
:10468000D9F73EF490958095709561957F4F8F4F47
:104690009F4F0895E89409C097FB3EF4909580954C
:1046A000709561957F4F8F4F9F4F9923A9F0F92FF8
:1046B00096E9BB279395F695879577956795B79576
:1046C000F111F8CFFAF4BB0F11F460FF1BC06F5F5C
:1046D0007F4F8F4F9F4F16C0882311F096E911C06E
:1046E000772321F09EE8872F762F05C0662371F08F
:1046F00096E8862F70E060E02AF09A95660F771FA3
:10470000881FDAF7880F9695879597F9089597F996
:104710009F6780E870E060E008959FEF80EC089567
:1047200000240A9416161706180609060895002490
:104730000A9412161306140605060895092E03940A
:10474000000C11F4882352F0BB0F40F4BF2B11F47E
:1047500060FF04C06F5F7F4F8F4F9F4F089557FDDD
:104760009058440F551F59F05F3F71F04795880FDF
:1047700097FB991F61F09F3F79F087950895121676
:1047800013061406551FF2CF4695F1DF08C0161622
:1047900017061806991FF1CF8695710561050894D3
:1047A0000895E894BB2766277727CB0197F90895EA
:1047B0000E94EB230C949E230E94902338F00E94C9
:1047C000972320F0952311F00C9487230C948D23CC
:1047D00011240C94D2230E94AF2370F3959FC1F350
:1047E000950F50E0551F629FF001729FBB27F00D9F
:1047F000B11D639FAA27F00DB11DAA1F649F6627F4
:10480000B00DA11D661F829F2227B00DA11D621F42
:10481000739FB00DA11D621F839FA00D611D221FFC
:10482000749F3327A00D611D231F849F600D211DE0
:10483000822F762F6A2F11249F5750409AF0F1F063
:1048400088234AF0EE0FFF1FBB1F661F771F881FCC
:1048500091505040A9F79E3F510580F00C9487235A
:104860000C94D2235F3FE4F3983ED4F3869577957A
:104870006795B795F795E7959F5FC1F7FE2B880F72
:10488000911D9695879597F908959F930E944F24BF
:104890000F9007FCEE5F0C9478240C948D230E94FB
:1048A000B723D8F3E894E0E0BB279F57F0F02AED58
:1048B0003FE049EC06C0EE0FBB0F661F771F881F55
:1048C00028F0B23A62077307840728F0B25A620BE5
:1048D000730B840BE3959A9572F7803830F49A95B0
:1048E000BB0F661F771F881FD2F790480C948E2449
:1048F000EF93E0FF07C0A2EA2AED3FE049EC5FEB4F
:104900000E9454220E949E230F90039401FC905811
:10491000ECEAF0E00C949A249F3F31F0915020F49F
:10492000879577956795B795880F911D969587958B
:1049300097F908959F938F937F936F93FF93EF93CE
:104940009B01AC010E94D823EF91FF910E94AE24FD
:104950002F913F914F915F910C94D823DF93CF9388
:104960001F930F93FF92EF92DF927B018C0168946B
:1049700006C0DA2EEF010E94EB23FE01E894A59118
:104980002591359145915591A6F3EF010E9454224E
:10499000FE019701A801DA9469F7DF90EF90FF908C
:1049A0000F911F91CF91DF910895991B79E004C079
:1049B000991F961708F0961B881F7A95C9F780955E
:1049C0000895AA1BBB1B51E107C0AA1FBB1FA61756
:1049D000B70710F0A61BB70B881F991F5A95A9F7A8
:1049E00080959095BC01CD010895EE0FFF1F0590B5
:1049F000F491E02D099481E090E0F8940C94002566
:044A0000F894FFCF58
:104A0400FFFFFFFF00E100000000000001000000C4
:104A140020000020204C696E656172000020205245
:104A2400616E646F6D0000202053656C65637420B3
:104A34004C6576656C0000202053656C65637420BA
:104A44005365656400003C20203C20203C20203C31
:104A5400000053656C6563742053746167653A00A4
:104A64000000C180810000000000FF01FF01000080
:104A7400000000003C0F06115D0F520FA30F610FE1
:104A84007F0F00000000DB124F1016141514881855
:104A9400FCFF0000C91850757272666563742100CA
:0A4AA400423A205265747279000056
:00000001FF
