:100000000C947C050C94A4050C94A4050C94A405F4
:100010000C94A4050C94A4050C94A4050C94A405BC
:100020000C94A4050C94A4050C94200C0C948F0C37
:100030000C94A4050C94A4050C94A4050C94A4059C
:100040000C94A4050C94A4050C94A4050C94A4058C
:100050000C94A4050C94A4050C94A4050C94C10E56
:100060000C94A4050C94A4050C94A4050C94A4056C
:100070000C94A4050C94A4050C94A4050C94A4055C
:100080000C94A4050C94A4050C94A4050C94A4054C
:100090000C94A4050C94A4050C94A4050C94A4053C
:1000A0000C94A4050C94A4050C94A4054C564C3A4D
:1000B000200000000000003E5B4F5B3E3E6B4F6B3C
:1000C0003E1C3E7C3E1C183C7E3C181C577D571C39
:1000D0001C5E7F5E1C00183C1800FFE7C3E7FF00B2
:1000E00018241800FFE7DBE7FF30483A060E262900
:1000F000792926407F050507407F05253F5A3CE7C3
:100100003C5A7F3E1C1C08081C1C3E7F14227F2288
:10011000145F5F005F5F06097F017F006689956A53
:10012000606060606094A2FFA29408047E040810DE
:10013000207E201008082A1C08081C2A08081E1007
:100140001010100C1E0C1E0C30383E3830060E3EBF
:100150000E06000000000000005F0000000700071E
:1001600000147F147F14242A7F2A12231308646248
:1001700036495620500008070300001C22410000A9
:1001800041221C002A1C7F1C2A08083E0808008007
:10019000703000080808080800006060002010089F
:1001A00004023E5149453E00427F400072494949A0
:1001B000462141494D331814127F102745454539D2
:1001C0003C4A4949314121110907364949493646D6
:1001D0004949291E000014000000403400000008B6
:1001E0001422411414141414004122140802015959
:1001F00009063E415D594E7C1211127C7F494949E6
:10020000363E414141227F4141413E7F494949417A
:100210007F090909013E414151737F0808087F00A9
:10022000417F41002040413F017F081422417F402F
:100230004040407F021C027F7F0408107F3E414106
:10024000413E7F090909063E4151215E7F09192976
:1002500046264949493203017F01033F4040403F60
:100260001F2040201F3F4038403F631408146303A1
:10027000047804036159494D43007F414141020420
:10028000081020004141417F040201020440404027
:100290004040000307080020545478407F2844441D
:1002A000383844444428384444287F385454541837
:1002B00000087E090218A4A49C787F080404780032
:1002C000447D40002040403D007F10284400004114
:1002D0007F40007C047804787C0804047838444427
:1002E0004438FC1824241818242418FC7C0804041E
:1002F00008485454542404043F44243C4040207C87
:100300001C2040201C3C4030403C44281028444CD9
:100310009090907C4464544C4400083641000000A6
:10032000770000004136080002010204023C262347
:10033000263C1EA1A161123A4040207A38545455FF
:1003400059215555794121545478412155547840CB
:1003500020545579400C1E52721239555555593951
:100360005454545939555454580000457C410002A6
:10037000457D420001457C40F0292429F0F02825E4
:1003800028F07C545545002054547C547C0A097F45
:100390004932494949323248484832324A4848305D
:1003A0003A4141217A3A42402078009DA0A07D390F
:1003B000444444393D4040403D3C24FF2424487E91
:1003C0004943662B2FFC2F2BFF0929F620C0887E7E
:1003D000090320545479410000447D413048484A83
:1003E00032384040227A007A0A0A727D0D19317D36
:1003F0002629292F28262929292630484D4020380A
:100400000808080808080808382F10C8ACBA2F10C8
:100410002834FA00007B000008142A142222142A2F
:1004200014089500220095AA005500AAAA55AA55BD
:10043000AA000000FF00101010FF00141414FF00A9
:100440001010FF00FF1010F010F0141414FC001432
:1004500014F700FF0000FF00FF1414F404FC141450
:1004600017101F10101F101F1414141F001010104D
:10047000F0000000001F101010101F10101010F0DE
:1004800010000000FF101010101010101010FF10BE
:10049000000000FF140000FF00FF00001F10170005
:1004A00000FC04F414141710171414F404F40000DE
:1004B000FF00F714141414141414F700F714141490
:1004C000171410101F101F141414F4141010F0102F
:1004D000F000001F101F0000001F14000000FC149B
:1004E0000000F010F01010FF10FF141414FF14108F
:1004F00010101F00000000F010FFFFFFFFFFF0F0E2
:10050000F0F0F0FFFFFF0000000000FFFF0F0F0FF3
:100510000F0F38444438447C2A2A3E147E020206D7
:1005200006027E027E0263554941633844443C041E
:10053000407E201E2006027E020299A5E7A5991C96
:100540002A492A1C4C7201724C304A4D4D303048B9
:10055000784830BC625A463D3E494949007E010117
:10056000017E2A2A2A2A2A44445F444440514A44AC
:100570004040444A51400000FF0103E080FF00007A
:1005800008086B6B083612362436060F090F060072
:100590000018180000001010003040FF0101001F7B
:1005A00001011E00191D1712003C3C3C3C000000DC
:1005B0000000F0F89C8E8783878E9CF8F00000FE88
:1005C000FF0303030303070EFCF80000FEFF030311
:1005D000030303070EFCF80000FFFF00000000000B
:1005E0000000FFFF0000FEFF8383838383C7EE7C50
:1005F000380000F8FC0E07030303070EFCF80000A8
:100600003F7FE0C08080C0E07F3FFFFF010101012C
:10061000010101FFFF0000FFFF0C0C0C0C1C3E77DA
:10062000E3C100007FFFC0C0C0C0C0E0703F1F003A
:10063000001F3F70E0C0C0C0E0703F1F00007FFFA0
:10064000C1C1C1C1C1E3773E1C00001F3F70E0C0C3
:10065000C0C0E0703F1F000000000001FFFF01006C
:100660000000D5F08D14A1C881CFD9F1AF2000478B
:10067000616D6520436F6D706C6574656421005316
:100680005455434B2100FFFFC7C7C7FFFFFF0303BC
:10069000FFC3C3CBC3FFFFFF0402FF81A5A5A5BD18
:1006A00081FF0301FF81BD85B58581FF0205FF8FB5
:1006B00087C7C7FFFFFF0303FFFF8787B787FFFFDA
:1006C0000303FF818199998181FF0301FFFFC1D558
:1006D000C1E3FFFF0305FFFFF3C39B9BC3FF0104BF
:1006E000FFFFE383B3B383FF0504FF81A5A5A5A5A1
:1006F00081FF0405FF87878F838181FF0202FF81CD
:100700008191918181FF0305FF8FA7838B83FFFF79
:1007100002033F3F0F0F030300000007FFE3CBC3BB
:10072000C3C3FFFF0304FF818181818181FF010138
:100730000000212121210000040100000808180008
:1007400000000303FF81A581998181FF0301FF81DF
:10075000A1A1998181FF0204FF87A38BC3CFFFFF73
:1007600004010002180121094111000000027A026F
:100770003E007E000000FFFF838BA383C3FF0203C4
:100780000000010103030F3F000000000C0C0C0CE3
:1007900000000202FFFF818181A581FF0204006049
:1007A00021BC260415110206FFE38BC38383FFFFE0
:1007B0000504FFC787A38BE3FFFF040200008080CE
:1007C000C010101C0700242424200000000007078C
:1007D000FF838B838B83FFFF0304000000E0202056
:1007E00000000000FFC383A393C7FFFF04020000C3
:1007F0000000000000000000FF83B383A383FFFF1D
:100800000402FF83A3AB83CFFFFF0402FF83838730
:10081000838BFFFF0204FFE38BB981B981FF0204E0
:1008200080A0A8AAAAA8A0800700808098808080C5
:100830009F9F0303FFC1C9CB81A581FF0302FF81F5
:100840008191818181FF0403FF8185859D8181FFE5
:100850000505FFC19D85B581F3FF0406FF81890B66
:100860004B03F3FF0302FFC7C1C5D19381FF03020E
:10087000FF81B5A58D8183FF0405FFC7D18C8E80D4
:10088000E7FF0204FF89A181898181FF0205FF99A9
:1008900089A1818189FF0205FFC185A3899D81FF0F
:1008A0000205FF918181958581FF0502FF99818174
:1008B000818181FF0403FF818DC9C19181FF0503FF
:1008C000FF818189818181FF050301711111550526
:1008D00021FF0503F1012111450133FF050100024C
:1008E000820240010000020401790383998181FFA3
:1008F0000103000000404000000003021145610BAD
:100900002181CFFF04040000810C4218E0E00303C2
:10091000FF030B898585C5D10202FF9184A088C899
:10092000C0C0060411510181057101FF05010000DD
:100930000218441400000702FF9092808380848193
:10094000040401010159190101FF0501FF84B4B13B
:1009500080E088800506E18191C1194101FF050110
:100960000501C3D1056107FF0305FF80C0C4848072
:10097000FAF80304FF8380C6E081B4870302E10D27
:100980004143435B03FF0404FF80BE808184868073
:10099000020601018711414901FF0201FF808080A9
:1009A000E080A08C0405303004441080080003036C
:1009B0000000C0F8FCFCF8F0E0C0808080808080FF
:1009C00080C0E0F0F8FCFCF8C000000000FFFFFF72
:1009D000FFFFE3E3E3FFFF7F7F7FFFE3E3E3FFFF4F
:1009E000FFFFFFFF000000000F1FFEFDFEFDFFFCEC
:1009F000F9FBF9FCF9FBF9FCFFFDFEFDFE1F0F0002
:100A000000080B00020202000009040000010202BB
:100A10000000052400100105240101010424020640
:100A200005240600010705810310004009040100A8
:100A3000020A0000000705020240000007058302C9
:100A40004000000403090412010002EF02014041CA
:100A500023378000010102030141726475696E6FE2
:100A6000204C4C430041726475696E6F204D696380
:100A7000726F000808FFFFFFFFFFFFFFFF817E424C
:100A80005A5A427E81807E755D6D557E807C7E7572
:100A90005D6D557E80807E755D6D557E7C00FEFDB2
:100AA000FDFDFDFE00807F7F4F375F7F8001FEFEF2
:100AB000FEFEFEFE017D7D7D7D655D1BE7E71B5D26
:100AC000657D7D7D7D7D7D7D7D7D7D7D7D00FFFFE7
:100AD000FFFFFFFF007C7F7F7F7F7F7F00007F7FA6
:100AE0007F7F7F7F7C7DFDFDFDFDFDFD0101FDFD27
:100AF000FDFDFDFD7D00820F11241FBECFEFDAE06A
:100B0000DEBFCDBF11E0A0E0B1E0E8EAF8E202C04C
:100B100005900D92A03BB107D9F726E0A0EBB1E01C
:100B200001C01D92AF33B207E1F715E0CCE7D5E085
:100B300004C02197FE010E944714CB37D107C9F7A3
:100B40000E94B30F0C9452140C940000E7EDF1E0F6
:100B5000A0E0B8E000800EBC8111012C1197A0FD2F
:100B6000FDCF0192B9F70DB4089580E00C94A6056D
:100B700080E0E7EDF1E081118FEF00248193819314
:100B8000819381930394D1F7E8E2F6E0128A118A07
:100B9000108A17860895FF920F931F93CF93DF93C8
:100BA000EC01E3E7FAE08491E4E7FAE0E491A82FAE
:100BB000B0E0442309F48DC001E010E09E2F97704F
:100BC00011F410E000E02E2F269526952695200F93
:100BD000312F311D2A9F80012B9F100D3A9F100D40
:100BE0001124409F9001419F300D1124A9014B58C1
:100BF000554F9D012C0F3D1F121613060CF072C0AD
:100C0000C038D1050CF06EC08B010E0F111D1016EF
:100C100011060CF067C0603471050CF063C041151B
:100C2000510509F45FC077FF02C0695F7F4FF3E0B1
:100C300075956795FA95E1F7962F002711270C1BFC
:100C40001D0BD7FD02C010E000E0F82E2038310562
:100C50001CF020E8F22EFC1AF01A262F20959F3F58
:100C60000CF020E091E03E2F377009F490E0E6951B
:100C7000E695E6959E0FFB01E90FF11D399714F0FB
:100C800098E0961B722F760FF801829FE00DF11D00
:100C900011244E0F5F1F20E87203F00111249F0101
:100CA0002C0F3D1F200F311F29523E4F690F671730
:100CB000C9F090E080E08F1578F4FA01E80FF91F91
:100CC000E49177FD04C0E901C80FD91FE8830196BC
:100CD000F2CF45E75AE08DCF7F5F4A0F5B1F205868
:100CE0003F4FE5CFDF91CF911F910F91FF90089576
:100CF0002F923F924F925F926F927F928F929F922C
:100D0000AF92BF92CF92DF92EF92FF920F931F9319
:100D1000CF93DF9300D000D000D01F92CDB7DEB7C5
:100D2000FB01E00FF11DF7FDAAC0603471050CF066
:100D3000A6C0DB0177FF04C0AA27BB27A61BB70B01
:100D4000A770BB277A83698377FF04C0FB013796BE
:100D5000FA83E98329803A80E3E035942794EA9581
:100D6000E1F73D822C8277FF0BC0B1016150710920
:100D70007D836C8368E070E0FB01EA1BFB0BDF0105
:100D800030E0069506950695402E512C8A014C813F
:100D90005D815695542F442757954795840F951F8D
:100DA0004C815D81F12CE12CBC0169527E4F5B01CD
:100DB000895A9D4F68E070E01B012A1A3B0A3F8266
:100DC0002E824F3F6FEF56070CF446C035016E0C74
:100DD0007F1C4C018E0C9F1C70E060E04F3F54075D
:100DE00009F466C0F801E60FF71FE4916301C60E2F
:100DF000D71E2E2E312CF1010A2E02C0EE0FFF1F3E
:100E00000A94E2F7FA83E983F6012080F9812F2A18
:100E1000F60120821097D1F047305105B9F0F80162
:100E2000E60FF71FE4916401C60ED71EF0E01F0124
:100E30000E8002C0359427940A94E2F73A82298200
:100E4000F6012080F9812F2AF60120826F5F7F4F03
:100E5000621773070CF4C2CF4F5F5F4F020F131F6F
:100E6000F0E8EF0EF11CBA012C803D806219730985
:100E70006415750524F44830510509F0A2CF279672
:100E80000FB6F894DEBF0FBECDBFDF91CF911F919B
:100E90000F91FF90EF90DF90CF90BF90AF909F9019
:100EA0008F907F906F905F904F903F902F9008951C
:100EB000109761F2B4CFFC018091D601882311F123
:100EC0003FB7F89482E08093E9002091F200822FEE
:100ED00090E01816190614F481E090E0882339F0A8
:100EE000289A44E64093D5014091F10040832223A3
:100EF00039F02091F200211103C02BE62093E80085
:100F00003FBF08958FEF9FEF08952FB7F89483E0C8
:100F10008093E9009091E800892F807295FF04C0CA
:100F20009091F20080E4891B2FBF08958091CD013C
:100F300081110DC082E08093C90184E08093CA01D1
:100F40001092CC011092CB0181E08093CD0189EC0D
:100F500091E00895CF93DF931F92CDB7DEB76983F9
:100F6000DC01ED91FC910280F381E02D41E050E045
:100F7000BE016F5F7F4F09950F90DF91CF9108956C
:100F800083E08093E9008091F200882319F08AE3DE
:100F90008093E80008950E94850790E00895CF931C
:100FA000DF931F92CDB7DEB7FC018485958597FD51
:100FB00008C02FEF3FEF358724870F90DF91CF9147
:100FC0000895CE0101960E945B07019719F489816B
:100FD00090E0F3CF8FEF9FEFF0CF0F931F93CF935E
:100FE000DF931F92CDB7DEB78C01FC018485958518
:100FF00097FF0BC0CE0101960E945B07019771F429
:10100000898190E0F80195878487F801848595852A
:101010000F90DF91CF911F910F9108958FEF9FEF68
:10102000F1CFFC018485958597FD0BC09FB7F8949F
:1010300082E08093E9008091F2009FBF90E00196EA
:1010400008959FB7F89482E08093E9008091F200C0
:101050009FBF90E008954091C3015091C401209139
:10106000C1013091C20142175307B4F49091E800D6
:101070009570E1F39091E80092FD19C08093F10022
:101080008091C3019091C40101968F739927892B98
:1010900019F48EEF8093E8008091C3019091C40110
:1010A00001969093C4018093C30181E0089580E08C
:1010B0000895DF92EF92FF920F931F93CF93DF93E8
:1010C000D82E8A01EB017B01E40EF51ECE15DF055B
:1010D00059F0D7FE12C0FE0184910E942B08219680
:1010E0008111F4CF0FEF1FEFC801DF91CF911F9156
:1010F0000F91FF90EF90DF9008958881EECF0F93CE
:101100001F93CF93DF931F92CDB7DEB782E0898321
:1011100042E450E061E07AE080E80E9459080E94D1
:101120009607DC0112960D911C910115110589F0AD
:10113000D801ED91FC910280F381E02DBE016F5F3B
:101140007F4FC801099597FD04C0F80100851185FE
:10115000ECCF89810F90DF91CF911F910F9108956E
:10116000615030F02091F100FC0120830196F8CF0E
:10117000289A84E68093D5010895AF92BF92CF92CA
:10118000DF92EF92FF920F931F93CF93DF936C0147
:101190007B018B01040F151FEB015E01AE18BF0828
:1011A000C017D10759F06991D601ED91FC910190DA
:1011B000F081E02DC6010995892B79F7C501DF91F2
:1011C000CF911F910F91FF90EF90DF90CF90BF9044
:1011D000AF9008953FB7F8948091B1019091B2011A
:1011E000A091B301B091B40126B5A89B05C02F3FD3
:1011F00019F00196A11DB11D3FBFBA2FA92F982F3D
:101200008827BC01CD01620F711D811D911D42E037
:10121000660F771F881F991F4A95D1F708958F92FF
:101220009F92AF92BF92CF92DF92EF92FF926B01AB
:101230007C010E94EA084B015C01C114D104E10465
:10124000F104B9F00E94EA08681979098A099B0932
:10125000683E73408105910580F321E0C21AD108F0
:10126000E108F10888EE880E83E0981EA11CB11CED
:10127000E4CFFF90EF90DF90CF90BF90AF909F9022
:101280008F9008958F929F92AF92BF92CF92DF92EC
:10129000EF92FF920F931F93CF93DF936C017B012B
:1012A0008A0180914B01882309F45CC08091D601AA
:1012B000882309F457C08091C80180FF05C0809140
:1012C000E00082608093E000E801B12C8AEFA82E54
:1012D00093E0892E2AE3922E209711F4BB20D9F1B6
:1012E0000E94850781110AC0AA94AA20D9F161E061
:1012F00070E080E090E00E940F09EECF8C171D0691
:1013000011F00CF08C2F9FB7F8948092E900209197
:10131000E80025FD02C09FBFDFCF282F30E0C21BB1
:10132000D30BF701815020F041914093F100FACFA7
:10133000E20EF31EBB2021F09092E800B12CEBCF1F
:101340008091E80085FDE7CF9092E800BB24B3943C
:10135000209709F3F3CF5D9A84E68093C7011016B6
:1013600011063CF081E090E0F6019383828310E067
:1013700000E0C801DF91CF911F910F91FF90EF9096
:10138000DF90CF90BF90AF909F908F9008952D9A4F
:101390000895BC0190E080E00C940F098FB1809516
:1013A000807F669B88601C9B8460089520E191E0AB
:1013B00061FD94E060FD990F62FD9295687F269F24
:1013C000D0011124A80FA952BE4F8C9140FF03C039
:1013D000892B8C93089590958923FBCF2F923F9270
:1013E0004F925F926F927F928F929F92AF92BF9235
:1013F000CF92DF92EF92FF920F931F93CF93DF93E1
:10140000CDB7DEB728970FB6F894DEBF0FBECDBFBD
:101410009E838D836A3061F5DC0155968C91B8E02E
:101420008B9F90011124ED81FE8181899289820F29
:10143000931F928B818B108A178681E090E028960B
:101440000FB6F894DEBF0FBECDBFDF91CF911F91D5
:101450000F91FF90EF90DF90CF90BF90AF909F9053
:101460008F907F906F905F904F903F902F90089556
:101470006D3019F32D813E8138872F83D9011F9656
:101480000D911C915097003811050CF07CC05196BD
:10149000AD90BC90B0E4AB16B1040CF074C0F9018F
:1014A000258825E0C801229E800D911D1124181663
:1014B00019060CF068C0622C712CC30133E0880F50
:1014C000991F3A95E1F78A0D9B1D181619060CF025
:1014D0005AC0F489FB83AF81B8855396BC91BC8315
:1014E000629FB0011124FB01EE54FF4F2F011982BE
:1014F000F2018491F981F53009F480E0450128E09A
:101500002A83A82FB0E0BE83AD833C8080FF3B8060
:10151000311004C0BB81EC81BE17F9F078018E2D2B
:10152000801B8215D0F4D12CC12CC21490F4F0E8A9
:10153000EF16F10450F4B601680D791D60347105A1
:1015400020F4432DC7010E94D6092FEFC21AD20AF8
:10155000ECCF3FEFE31AF30AE2CF8D819E819595A0
:1015600087959A8191509A83860C971C9111C9CFC7
:10157000A981AF5FA983BFEF4B1A5B0A060D171D48
:10158000A63009F0B5CFEF81F8852589422F50E0CC
:1015900087859089F6E02F9F800D911D1124AF81E2
:1015A000B88550969C938E931F9756962C9156977C
:1015B000222309F442CF6AEF64039001659F300D46
:1015C000112420583F4F281739070CF036CFED91E2
:1015D000FC9111970190F081E02D6AE0CD01099511
:1015E0002CCF0F931F93CF93DF938C01D0E0C0E0FB
:1015F000F801EC0FFD1F6491662341F088E296E04C
:101600000E94EE09892B11F02196F2CFCE01DF91D5
:10161000CF911F910F9108950895089590E080E073
:1016200008958091BE018230E9F090F48823A1F002
:101630008130B1F06091BA0128E06202B00111245A
:101640008091B90128E08202C00111240C94CB05DD
:10165000833021F0843071F742E0ECCF45E0EACFEF
:1016600044E0E8CF43E0E6CF893068F4693058F4CD
:1016700098E06902F0011124E050FF4FE80FF11DDE
:1016800087FDFA9540830895893070F4693060F4DD
:1016900098E06902F0011124E050FF4FE80FF11DBE
:1016A00087FDFA958081089581E00895EF92FF9279
:1016B0000F931F93CF93DF9310E000E0C0E0F12C75
:1016C000E12CD0E06C2F8D2F0E94440B482FB801E5
:1016D000C7010E94CB05DF5F88E0E80EF11CD8301F
:1016E00089F7CF5F085F1F4FC83049F7DF91CF916F
:1016F0001F910F91FF90EF900895FC010190002041
:10170000E9F73197AF01481B590BBC0188E296E01D
:101710000C94BD080C940F14CF92DF92EF92FF92BD
:101720000F931F93CF93DF93CDB7DEB7A1970FB67B
:10173000F894DEBF0FBECDBF86E490E090933806EC
:101740008093370610923A06109239068CEA90E0A0
:101750000E94F10A2091BF0130E02F5F3F4F032E1E
:10176000000C440B550B19A28E010F5D1F4F8AE030
:10177000C82ED12CE12CF12CCA01B901A701960188
:101780000E942514605DF80162938F0121153105D7
:101790004105510589F7309719F0CF010E947D0B63
:1017A00086E490E090933806809337068FE090E0CF
:1017B00090933A068093390689E791E00E947D0B69
:1017C000A1960FB6F894DEBF0FBECDBFDF91CF91CB
:1017D0001F910F91FF90EF90DF90CF9008950E949E
:1017E0004D14FF920F931F93CF93DF93EC01F62ECE
:1017F00008811981C8010E940F14F81621F06F2D7D
:10180000C8010E941714CE01DF91CF911F910F9153
:10181000FF900895CF93DF9300D0CDB7DEB784E774
:1018200090E09A8389836091D705CE0101960E944A
:10183000F10B87ED95E00F900F90DF91CF91089518
:101840001F920F920FB60F9211248F939F93809146
:10185000E1009091E100937F9093E10083FF0FC03E
:101860001092E90091E09093EB001092EC0092E36B
:101870009093ED001092D60198E09093F00082FFD3
:1018800022C093E09093E9009091F200992319F01F
:101890009AE39093E8009091C701992341F09091C9
:1018A000C70191509093C701911101C05D9890912B
:1018B000D501992341F09091D50191509093D50194
:1018C000911101C0289884FF18C08091E2008E7E9B
:1018D00081608093E2008091E1008F7E8093E1003F
:1018E0008091C8018E7E80618093C8019F918F9105
:1018F0000F900FBE0F901F90189580FFF7CF80912B
:10190000E2008E7E80618093E2008091E1008E7E15
:101910008093E1008091C8018E7E8160E5CF1F92A7
:101920000F920FB60F921124CF92DF92EF92FF9297
:101930000F931F932F933F934F935F936F937F93D7
:101940008F939F93AF93BF93EF93FF93CF93DF93C7
:10195000CDB7DEB76C97DEBFCDBF1092E9008091A6
:10196000E80083FF25C068E0CE0145960E94B008DC
:1019700082EF8093E8008D8987FF39C09091E8005D
:1019800090FFFCCF982F907609F034C19E894F8943
:10199000588D2F89F88C911131C0803861F5809174
:1019A000C6018093F1001092F1008EEF8093E80061
:1019B0006C960FB6F894DEBF0FBECDBFDF91CF910E
:1019C000FF91EF91BF91AF919F918F917F916F9117
:1019D0005F914F913F912F911F910F91FF90EF9049
:1019E000DF90CF900F900FBE0F901F9018959EEF35
:1019F0009093E800C7CF1092F100D5CF913059F401
:101A00008111D3CF4130510581F68091C6018D7F80
:101A10008093C601CACF933049F48111C6CF4130BB
:101A2000510519F68091C6018260F2CF953041F4DC
:101A30008091E80080FFFCCF20682093E300B5CFC1
:101A4000963009F0A9C00B8D1C8D22E01092E900A0
:101A50001092C4011092C301F2122EC01092C20162
:101A60001092C1010E947F081F8299E09983FA8237
:101A700091E09E8390EA98879AEF99872091C3011D
:101A80003091C401275F3F4F3C832B838D8310929D
:101A9000E9001092C4011092C3011093C201009397
:101AA000C10149E050E0BE016F5F7F4F80E00E94BE
:101AB00059080E947F0879CF1093C2010093C10199
:101AC0000E949607DC0112960D911C9101151105DB
:101AD00009F451C1D801ED91FC910480F581E02D0C
:101AE000BE016B5E7F4FC8010995009709F03EC1AA
:101AF000F80100851185EACFF3E0FF120EC08F894F
:101B0000882309F440C0823061F440E86DE085E646
:101B10009AE00E940B0F811148CF81E28093EB0085
:101B200047CF813029F440E86BE089E59AE0F1CFB6
:101B3000833099F70E949607DC011296ED90FC9095
:101B40008E010F5F1F4F6801E114F10479F0D70196
:101B5000ED91FC910680F781E02DB801C701099550
:101B6000080F111DF701E084F184EECFD8011C921B
:101B7000F60101900020E9F73197BF016C197D094A
:101B800040E0C601C6CF63E47AE0FB01449150E037
:101B900080E80E94590809CF973009F4BECF9830E9
:101BA00021F481E08093F10000CF993009F0FDCE5F
:101BB000837009F0B2CFEDE4F1E081E031E096E32B
:101BC0002191222371F08093E9003093EB00DF0133
:101BD00011972C912093EC009093ED008F5F87304C
:101BE00079F78EE78093EA001092EA008F8980935C
:101BF000D601DBCE8B8D9C8D1092E9001092C40132
:101C00001092C3019093C2018093C101898D81110B
:101C100092C08E899D89913A49F4813209F07DCF35
:101C200047E050E064E471E080E0B3CF913209F026
:101C300074CF833269F48F89988DB0E0A0E08093EF
:101C4000400190934101A0934201B0934301ADCE76
:101C5000803269F48091E80082FFFCCF67E084E481
:101C600091E00E94B0088BEF8093E8009ECE823214
:101C700009F09BCE8F8980934B01EEEFFFE78591B2
:101C800094918B3F9C4D51F1E0E0F8E0809144014C
:101C900090914501A0914601B0914701803B94404D
:101CA000A105B105F1F480914B0180FD1AC0EE3F12
:101CB0008AE0F80789F587E797E791838083809129
:101CC00060008093C50188E19BE00FB6F894A89569
:101CD000809360000FBE9093600067CEEEEFFAE055
:101CE000D5CF808191818737974709F05ECEA8953F
:101CF000809160008861809360008091C50180932D
:101D00006000EE3F2AE0F20789F08091FE0A909190
:101D1000FF0A9183808349CE80819181873798071C
:101D200051F29093FF0A8093FE0AC5CF1092FF0AEA
:101D30001092FE0A3ACE0E949607DC0112960D918F
:101D40001C910115110509F4E8CED801ED91FC9123
:101D50000190F081E02DBE016B5E7F4FC8010995B7
:101D6000811123CEF80100851185EBCF18161906D5
:101D70000CF41BCED2CEF1E0FF12BECE67E47AE0C7
:101D800004CF1F920F920FB60F9211242F933F93FF
:101D90008F939F93AF93BF938091B5019091B601BC
:101DA000A091B701B091B8013091B00123E0230FA9
:101DB0002D3758F50196A11DB11D2093B0018093D8
:101DC000B5019093B601A093B701B093B80180918B
:101DD000B1019091B201A091B301B091B40101960B
:101DE000A11DB11D8093B1019093B201A093B301E5
:101DF000B093B401BF91AF919F918F913F912F917B
:101E00000F900FBE0F901F90189526E8230F029693
:101E1000A11DB11DD2CFEF92FF920F931F93CF93CD
:101E2000DF93F82E192FE62E042F81E0860F880FFE
:101E30000E942B0883E00E942B08CF2DD12FEC0E9F
:101E4000FD2EF11CCE15DF05B9F007FF13C0FE0112
:101E500084910E942B08182F80E00E942B08812378
:101E600021968111EFCFDF91CF911F910F91FF90BC
:101E7000EF9008958881EDCF81E0F5CF0F931F9308
:101E8000CF93DF938C0181E090E00E948A0B80FF6A
:101E900031C08AE090E00E948A0B9FEF980F9E3F2E
:101EA00048F522E330E0D80150963C932E931F97DB
:101EB00028E330E052963C932E935197CBE0D0E04C
:101EC000D801ED91FC910190F081E02D682FC801BF
:101ED0000995CE010E948A0B2196C131D10581F767
:101EE0000E94B50588EE93E0DF91CF911F910F918D
:101EF0000C94C909DF91CF911F910F910895049718
:101F00000C943E0FE8EDF5E01382128288EE93E028
:101F1000A0E0B0E084839583A683B78387E591E052
:101F2000918380838FEF9FEF95878487E8E2F6E0C7
:101F3000138212821186128680E1838710861782AF
:101F4000158689E691E09183808387E791E0958308
:101F50008483108A1786128A118A81E0838B148AFF
:101F6000858B168A0895CF93DF9300D0CDB7DEB767
:101F7000789484B5826084BD84B5816084BD85B564
:101F8000826085BD85B5816085BD80916E00816070
:101F900080936E0010928100809181008260809316
:101FA0008100809181008160809381008091800018
:101FB0008160809380008091910082608093910085
:101FC0008091910081608093910080919000816068
:101FD000809390008091C10084608093C1008091C3
:101FE000C10082608093C1008091C10081608093B4
:101FF000C1008091C30081608093C3008091C000C4
:1020000082608093C0008091C20081608093C20092
:1020100080917A00846080937A0080917A00826057
:1020200080937A0080917A00816080937A00809119
:102030007A00806880937A001092D6011092C601CF
:102040001092C8018091D70081608093D70080EA08
:102050008093D80089B5806189BD89B5826089BDCA
:1020600009B400FEFDCF61E070E080E090E00E94E6
:102070000F098091D8008F7C80618093D800809177
:10208000E000807F8093E0008091E1008E7E80936D
:10209000E1008DE08093E200559A209A5D9828989F
:1020A00081EC80937C0085B1806F85B984B1877E97
:1020B00084B984B1876E84B95E9A5F988AB1806D65
:1020C0008AB9769A6E9881B3806F81BB899880B304
:1020D0008D7080BB80E58CBD81E08DBD85E090E09A
:1020E0000E94C9095F9A85E090E00E94C9095E9844
:1020F0005C98E2E6F6E084918EBD00000DB407FE28
:10210000FDCF319626E0EF36F207A9F75C9A81E819
:1021100080936400809165008160809365000E94D7
:10212000B5050E94CE0902E010E087FF15C05C985B
:1021300085EA8EBD00000DB407FEFDCF5C9A2E9897
:102140002F982D988091640080628093640081E0D4
:1021500083BF889513BEFCCF0E94CE0982FF40C08A
:102160002D980E94CE0984788438C1F40E94C70952
:1021700088EC90E00E94C9092F981A8309836FEFB9
:10218000CE0101960E94F10B84EF91E00E94C909F3
:102190002F9A0E94CE0984788438D9F30E94CE0900
:1021A00084718431C1F40E94C70988EC90E00E94D8
:1021B000C9092E981A83098360E0CE0101960E9416
:1021C000F10B84EF91E00E94C9092E9A0E94CE097A
:1021D00084718431D9F388EC90E00E94C909BCCFA6
:1021E0000E94C70982E090E00E948A0B882309F4CC
:1021F00061C03E9A3F9A81E090E00E948A0B182FBE
:10220000147081FF0EC011112E9850EFE52EFF249F
:10221000FA940E94CE0986FF50C02E9A2F9A0E94EF
:10222000C70982E390E00E94C9090E94CE0981118A
:10223000F8CF81E2809333060E94B80584E790E0EE
:102240000E940F148093D7058D3220F01092D7058D
:102250000E940A0C8091D7058093BF0137E0232E9E
:10226000312C4DE2842E912C96E4492E512C2EE1F6
:10227000622E712C8FB7F8944091B5015091B60140
:102280006091B7017091B8018FBF80913406242FFF
:10229000281B822F90913506992309F43FC0209383
:1022A00036061092350680E090E0892B19F30E94E3
:1022B0000000DACF3E983F989ECF112331F034E0F2
:1022C000E316F10411F42E9A2F9881E00E94A605DE
:1022D00000E128E542EB55E0B70184E190E00E947F
:1022E00078060E94B5058FE090E00E94C9098FEF43
:1022F000E81AF80A99E1E916F10409F08ACF1123E6
:1023000011F02F9A2D9880E991E00E94C9090E944E
:10231000C70988E296E00E943E0F83CF9091330672
:10232000291748F48F5F891708F0BDCF81E083BF7C
:10233000889513BEB8CFEE24E394E092350640931F
:10234000340680912F0690913006019690933006C6
:1023500080932F0680913106809332060E94CE0929
:1023600080933106F090C001FE1409F486C0FE147B
:1023700058F032E0F31609F4C8C083E0F81609F407
:102380005FC11092C0018FCF0E94B80508E12BE118
:1023900040EB59E070E060E08AE090E00E9478064F
:1023A0000EE010E087E1E82EF12C41E0B701C80112
:1023B0000E94D6099FEFE91AF90A2FE3E216F10409
:1023C000A1F70F5F1F4F0132110561F788E290E01E
:1023D000909338068093370629E130E030933A062F
:1023E0002093390682E080933D0682E891E00E94C6
:1023F0007D0B8AE891E00E947D0B11E010933D0671
:10240000909238068092370690923A06809239066A
:102410008DE891E00E947D0B9092380680923706FD
:1024200087E390E090933A068093390689E991E03A
:102430000E947D0B0E94B5050E94CE0983FD10937A
:10244000C0010E94CE0982FF2ECF1092BF0124E767
:1024500030E03A83298360E0CE0101960E94F10BBF
:1024600085E790E09A83898360E0CE0101960E941F
:10247000F10B81E08093C00116CF1092BB01109246
:10248000BC011092B9011092BA011092BD011092D4
:10249000BE01F12CE12C0091BF019AE0099F80015F
:1024A00011240A57194FF801EE0DFF1DE491D12CAC
:1024B000C12CAE2EB12CC1018C199D09950102C011
:1024C000359527958A95E2F741E020FF40E06E2D93
:1024D0008C2D0E94340B3FEFC31AD30A88E0C81634
:1024E000D10449F79FEFE91AF90A28E0E216F1044E
:1024F00091F6F8013896E491E093B901F801399624
:10250000E491E093BA0182E0B5CF0E94CE09109128
:10251000BA010091B901DD24D394D00E87FF47C0E2
:102520006FEF610F802F0E94440B81110EC010923B
:10253000BB018FEF8093BC018091BD018093BE01F0
:1025400083E08093BD018093C0010E94B805612F94
:102550008D2D0E94440B882309F1612F8FEF800F8E
:102560000E94440B8823D1F061E0610F802F0E940C
:10257000440B882399F06FEF610F802F0E94440B6A
:10258000882361F0509238064092370670923A06DE
:10259000609239068FE796E00E94F10A0E94560B7E
:1025A0000E94110B0E948C0B0E94B5057CCE0E94EC
:1025B000CE0986FF12C0612F8D2D0E94440B811120
:1025C000C4CFE092BB011092BC018091BD01809309
:1025D000BE01F092BD0183E0B6CF0E94CE0984FF18
:1025E00013C061E0610F802F0E94440B8111ADCFB9
:1025F0001092BB01E092BC018091BD018093BE01AD
:1026000084E08093BD01E7CF0E94CE0985FF12C010
:10261000612F8FEF800F0E94440B811196CF8FEFB7
:102620008093BB011092BC018091BD018093BE01DB
:1026300081E0E7CF0E94CE0982FF87CF81E083CF80
:1026400080912F0680FD3EC01091BA010091B90122
:10265000F090BD0132E0F31609F48DC03F1508F487
:1026600068C081E0F81609F474C0F092BE012091B0
:10267000BC01812F110F990B820F911D27FD9A9597
:102680008830910514F087E090E097FD80E0F82E07
:102690008091BB01002E000C110B080F111D87FD4E
:1026A0001A950830110514F007E010E017FD00E05E
:1026B0006F2D802F0E94440B811183C00093B901BC
:1026C000F092BA010E94B8050E94560B0E94110BAD
:1026D0000E948C0B0E94B505E0E0F1E08191882317
:1026E00009F4E1CD80E491E08E179F07B9F780915E
:1026F000BF01803509F06DC00E94B8058AE090E006
:10270000909338068093370670923A0660923906A5
:102710008FE696E00E94F10A0E94B50588EB9BE0E7
:102720000E94C9091092BF011092D7050E940A0C9D
:1027300028CE93E0F91689F124E0F21296CF809129
:10274000BE018130D1F1B8F18230C9F1843079F124
:102750008CCF8091BE018130F1F038F0833079F177
:10276000843009F082CF4CE001C048E0612F802F17
:102770000E94340B7ACF8091BE01823061F020F448
:1027800049E0882399F371CF8330B9F0843009F0A0
:102790006CCF4DE0EBCF4AE0E9CF8091BE018130B4
:1027A000C1F338F08230F9F2833009F05ECF4BE0AC
:1027B000DDCF46E0DBCF47E0D9CF4FE0D7CF4EE0CB
:1027C000D5CF1092BB011092BC0182E08093C00172
:1027D00079CF509238064092370623E230E03093AA
:1027E0003A062093390685EA91E00E947D0B0E940B
:1027F000B5058CED95E00E94C9098091BF018F5FFE
:102800008093BF0191E09093C0019091D705891703
:1028100008F449CD8093D7050E940A0C44CDF9995C
:10282000FECF92BD81BDF89A992780B50895262FD5
:10283000F999FECF1FBA92BD81BD20BD0FB6F894A5
:10284000FA9AF99A0FBE01960895A1E21A2EAA1BD0
:10285000BB1BFD010DC0AA1FBB1FEE1FFF1FA21750
:10286000B307E407F50720F0A21BB30BE40BF50B4D
:10287000661F771F881F991F1A9469F760957095D6
:10288000809590959B01AC01BD01CF010895EE0F9D
:10289000FF1F0590F491E02D099481E090E0F894F9
:0828A0000C945214F894FFCFD0
:1028A800010000000000000000000000000000001F
:1028B8000000000000000000000000000000000010
:1028C8000000000000000000000000000000000000
:1028D80000000000000000000000000000000000F0
:1028E800FFFFFFFF00E100000000000000C1808141
:1028F80000000000000000AA074209CB07C007112A
:1029080008CF07ED0700000000EE09BD080E0B0D0B
:102918000B3E0FFCFF00007F0F423A205265747295
:1029280079004C6F6E67436174000D0A00413A20CC
:10293800436F6E74696E756500423A204E65772064
:1029480067616D6500505552524645435421000059
:00000001FF
