:100000000C94FD030C9425040C9425040C942504F5
:100010000C9425040C9425040C9425040C942504BC
:100020000C9425040C9425040C94D6090C94450AD0
:100030000C9425040C9425040C9425040C9425049C
:100040000C9425040C9425040C9425040C9425048C
:100050000C9425040C9425040C9425040C94770C22
:100060000C9425040C9425040C9425040C9425046C
:100070000C9425040C9425040C9425040C9425045C
:100080000C9425040C9425040C9425040C9425044C
:100090000C9425040C9425040C9425040C9425043C
:1000A0000C9425040C9425040C942504FFFFC7C769
:1000B000C7FFFFFF0303FFC3C3CBC3FFFFFF040260
:1000C000FF81BD85B58581FF0205FF8F87C7C7FF0B
:1000D000FFFF0303FFFF8787B787FFFF0303FFFFD0
:1000E000C1D5C1E3FFFF0305FFFFF3C39B9BC3FF24
:1000F0000104FFFFE383B3B383FF0504FF81A5A5DC
:10010000A5A581FF0405FF87878F838181FF0202F8
:10011000FF818191918181FF0305FF8FA7838B83ED
:10012000FFFF02033F3F0F0F030300000007FFE341
:10013000CBC3C3C3FFFF0304FF818181818181FFA2
:100140000101FF87A38BC3CFFFFF040100027A02E6
:100150003E007E000000FFFF838BA383C3FF0203EA
:10016000FFFF818181A581FF0204FFE38BC38383AD
:10017000FFFF0504FFC787A38BE3FFFF0402FF8394
:100180008B838B83FFFF0304FFC383A393C7FFFF0E
:10019000040200000000000000000000FF83B383A1
:1001A000A383FFFF0402FF83A3AB83CFFFFF0402FF
:1001B000FF838387838BFFFF0204FFE38BB981B941
:1001C00081FF0204FFC1C9CB81A581FF0302FF812A
:1001D0008191818181FF0403FFC19D85B581F3FF7A
:1001E0000406FFC7C1C5D19381FF0302FF81B5A5F6
:1001F0008D8183FF0405FFC7D18C8E80E7FF020449
:10020000FF89A181898181FF0205FF9989A18181EF
:1002100089FF0205FFC185A3899D81FF0205FF912A
:100220008181958581FF0502FF998181818181FF0F
:100230000403FF818DC9C19181FF0503FF8181897D
:10024000818181FF050301711111550521FF05030E
:10025000F1012111450133FF0501017903839981E2
:1002600081FF01031145610B2181CFFF0404FFFFD2
:10027000FFFFFFFFFFFF040500000000003E5B4F93
:100280005B3E3E6B4F6B3E1C3E7C3E1C183C7E3CF6
:10029000181C577D571C1C5E7F5E1C00183C180004
:1002A000FFE7C3E7FF0018241800FFE7DBE7FF3094
:1002B000483A060E2629792926407F050507407F02
:1002C00005253F5A3CE73C5A7F3E1C1C08081C1C75
:1002D0003E7F14227F22145F5F005F5F06097F016B
:1002E0007F006689956A606060606094A2FFA29456
:1002F00008047E040810207E201008082A1C080824
:100300001C2A08081E101010100C1E0C1E0C303871
:100310003E3830060E3E0E06000000000000005F72
:1003200000000007000700147F147F14242A7F2A8E
:100330001223130864623649562050000807030050
:10034000001C2241000041221C002A1C7F1C2A089C
:10035000083E0808008070300008080808080000FF
:1003600060600020100804023E5149453E00427F73
:10037000400072494949462141494D331814127FC2
:100380001027454545393C4A494931412111090762
:100390003649494936464949291E000014000000E3
:1003A00040340000000814224114141414140041B5
:1003B00022140802015909063E415D594E7C121172
:1003C000127C7F494949363E414141227F414141AA
:1003D0003E7F494949417F090909013E4141517325
:1003E0007F0808087F00417F41002040413F017F96
:1003F000081422417F404040407F021C027F7F045E
:1004000008107F3E4141413E7F090909063E4151A6
:10041000215E7F09192946264949493203017F0196
:10042000033F4040403F1F2040201F3F4038403F97
:10043000631408146303047804036159494D4300AD
:100440007F4141410204081020004141417F0402E4
:10045000010204404040404000030708002054547B
:1004600078407F2844443838444444283844442859
:100470007F385454541800087E090218A4A49C78AC
:100480007F0804047800447D40002040403D007F08
:100490001028440000417F40007C047804787C08E8
:1004A0000404783844444438FC18242418182424BC
:1004B00018FC7C08040408485454542404043F44A1
:1004C000243C4040207C1C2040201C3C4030403CD0
:1004D00044281028444C9090907C4464544C440030
:1004E0000836410000007700000041360800020194
:1004F0000204023C2623263C1EA1A161123A404080
:10050000207A3854545559215555794121545478FD
:1005100041215554784020545579400C1E52721296
:10052000395555555939545454593955545458001E
:1005300000457C410002457D420001457C40F02998
:100540002429F0F0282528F07C54554500205454E7
:100550007C547C0A097F493249494932324848482B
:1005600032324A4848303A4141217A3A4240207872
:10057000009DA0A07D39444444393D4040403D3C6D
:1005800024FF2424487E4943662B2FFC2F2BFF0990
:1005900029F620C0887E0903205454794100004484
:1005A0007D413048484A32384040227A007A0A0A6F
:1005B000727D0D19317D2629292F282629292926E2
:1005C00030484D4020380808080808080808382F27
:1005D00010C8ACBA2F102834FA00007B00000814B1
:1005E0002A142222142A14089500220095AA0055E4
:1005F00000AAAA55AA55AA000000FF00101010FF7B
:1006000000141414FF001010FF00FF1010F010F081
:10061000141414FC001414F700FF0000FF00FF1472
:1006200014F404FC141417101F10101F101F1414BE
:10063000141F00101010F0000000001F1010101008
:100640001F10101010F010000000FF1010101010FC
:1006500010101010FF10000000FF140000FF00FF3A
:1006600000001F10170000FC04F4141417101714D6
:1006700014F404F40000FF00F714141414141414F8
:10068000F700F7141414171410101F101F1414146B
:10069000F4141010F010F000001F101F0000001FD5
:1006A00014000000FC140000F010F01010FF10FF08
:1006B000141414FF141010101F00000000F010FF9D
:1006C000FFFFFFFFF0F0F0F0F0FFFFFF0000000081
:1006D00000FFFF0F0F0F0F0F38444438447C2A2AC5
:1006E0003E147E02020606027E027E0263554941E6
:1006F000633844443C04407E201E2006027E0202F1
:1007000099A5E7A5991C2A492A1C4C7201724C3004
:100710004A4D4D303048784830BC625A463D3E49DB
:100720004949007E0101017E2A2A2A2A2A44445F7F
:10073000444440514A444040444A51400000FF0173
:1007400003E080FF000008086B6B08361236243681
:10075000060F090F060000181800000010100030E6
:1007600040FF0101001F01011E00191D1712003C6E
:100770003C3C3C0000000000D5F08D14A1C881CFA6
:10078000D9F1AF2000080B000202020000090400AA
:1007900000010202000005240010010524010101EE
:1007A0000424020605240600010705810310004009
:1007B00009040100020A00000007050202400000CF
:1007C000070583024000000403090412010002EF40
:1007D000020140412337800001010203014172649C
:1007E00075696E6F204C4C430041726475696E6F81
:1007F000204D6963726F0000050D11241FBECFEFFD
:10080000DAE0DEBFCDBF11E0A0E0B1E0E6E8FFE155
:1008100002C005900D92AC36B107D9F725E0ACE6E1
:10082000B1E001C01D92AF3FB207E1F713E0CDEF99
:10083000D3E004C02197FE010E94B60FCC3FD10740
:10084000C9F70E94360D0C94C10F0C940000480F9C
:10085000592F511D1416150684F5803891056CF535
:1008600097FF02C090E080E04138510514F040E865
:1008700050E0481BFB01E770FF2721E001C0220F79
:10088000EA95EAF777FF02C0695F7F4FFB0133E02B
:10089000F595E7953A95E1F7F695FE2FEE27F79552
:1008A000E795E80FF91FE856FE4F415030F081916F
:1008B000DF011197822B8C93F8CF089580E0E8E94F
:1008C000F1E081118FEF00248193819381938193D3
:1008D0000394D1F70895E8E9F1E080E0A0E0B8E002
:1008E00000800EBC8111012C1197A0FDFDCF01925B
:1008F000B9F70DB40895FC0180919701882311F197
:100900003FB7F89482E08093E9002091F200822FB3
:1009100090E01816190614F481E090E0882339F06D
:10092000289A44E6409396014091F10040832223A7
:1009300039F02091F200211103C02BE62093E8004A
:100940003FBF08958FEF9FEF08952FB7F89483E08E
:100950008093E9009091E800892F807295FF04C090
:100960009091F20080E4891B2FBF089580918E0141
:1009700081110DC082E080938A0184E080938B0115
:1009800010928D0110928C0181E080938E018AE893
:1009900091E00895CF93DF931F92CDB7DEB76983BF
:1009A000DC01ED91FC910280F381E02D41E050E00B
:1009B000BE016F5F7F4F09950F90DF91CF91089532
:1009C00083E08093E9008091F200882319F08AE3A4
:1009D0008093E80008950E94A50490E00895CF93C5
:1009E000DF931F92CDB7DEB7FC018485958597FD17
:1009F00008C02FEF3FEF358724870F90DF91CF910D
:100A00000895CE0101960E947B04019719F4898113
:100A100090E0F3CF8FEF9FEFF0CF0F931F93CF9323
:100A2000DF931F92CDB7DEB78C01FC0184859585DD
:100A300097FF0BC0CE0101960E947B04019771F4D1
:100A4000898190E0F80195878487F80184859585F0
:100A50000F90DF91CF911F910F9108958FEF9FEF2E
:100A6000F1CFFC018485958597FD0BC09FB7F89465
:100A700082E08093E9008091F2009FBF90E00196B0
:100A800008959FB7F89482E08093E9008091F20086
:100A90009FBF90E00895409184015091850120917D
:100AA00082013091830142175307B4F49091E8001A
:100AB0009570E1F39091E80092FD19C08093F100E8
:100AC000809184019091850101968F739927892BDC
:100AD00019F48EEF8093E800809184019091850154
:100AE0000196909385018093840181E0089580E0D0
:100AF0000895EF92FF920F931F93CF93DF93F82EF9
:100B0000192FE62E042F81E0860F880F0E944B05D7
:100B100083E00E944B05CF2DD12FEC0EFD2EF11C52
:100B2000CE15DF05B9F007FF13C0FE0184910E94C6
:100B30004B05182F80E00E944B05812321968111DF
:100B4000EFCFDF91CF911F910F91FF90EF9008951C
:100B50008881EDCF81E0F5CFDF92EF92FF920F9386
:100B60001F93CF93DF93D82E8A01EB017B01E40E14
:100B7000F51ECE15DF0559F0D7FE12C0FE01849197
:100B80000E944B0521968111F4CF0FEF1FEFC80192
:100B9000DF91CF911F910F91FF90EF90DF9008951B
:100BA0008881EECF0F931F93CF93DF931F92CDB722
:100BB000DEB782E0898342E450E065E877E080E8D0
:100BC0000E94AC050E94B604DC0112960D911C91A6
:100BD0000115110589F0D801ED91FC910280F38196
:100BE000E02DBE016F5F7F4FC801099597FD04C0DE
:100BF000F80100851185ECCF89810F90DF91CF91AD
:100C00001F910F910895615030F02091F100FC0187
:100C100020830196F8CF289A84E680939601089560
:100C2000AF92BF92CF92DF92EF92FF920F931F93FA
:100C3000CF93DF936C017B018B01040F151FEB0138
:100C40005E01AE18BF08C017D10759F06991D601EF
:100C5000ED91FC910190F081E02DC6010995892B61
:100C600079F7C501DF91CF911F910F91FF90EF9020
:100C7000DF90CF90BF90AF9008953FB7F8948091E8
:100C80006D0190916E01A0916F01B091700126B538
:100C9000A89B05C02F3F19F00196A11DB11D3FBFB4
:100CA000BA2FA92F982F8827BC01CD01620F711D83
:100CB000811D911D42E0660F771F881F991F4A957D
:100CC000D1F708958F929F92AF92BF92CF92DF9209
:100CD000EF92FF926B017C010E943D064B015C018B
:100CE000C114D104E104F104B9F00E943D06681971
:100CF00079098A099B09683E73408105910580F353
:100D000021E0C21AD108E108F10888EE880E83E0DC
:100D1000981EA11CB11CE4CFFF90EF90DF90CF9004
:100D2000BF90AF909F908F9008958F929F92AF92B7
:100D3000BF92CF92DF92EF92FF920F931F93CF93C8
:100D4000DF936C017B018A0180910B01882309F4F8
:100D50005CC080919701882309F457C08091890174
:100D600080FF05C08091E00082608093E000E80190
:100D7000B12C8AEFA82E93E0892E2AE3922E209799
:100D800011F4BB20D9F10E94A50481110AC0AA94D4
:100D9000AA20D9F161E070E080E090E00E94620654
:100DA000EECF8C171D0611F00CF08C2F9FB7F89426
:100DB0008092E9002091E80025FD02C09FBFDFCFAF
:100DC000282F30E0C21BD30BF701815020F0419156
:100DD0004093F100FACFE20EF31EBB2021F0909277
:100DE000E800B12CEBCF8091E80085FDE7CF909231
:100DF000E800BB24B394209709F3F3CF5D9A84E60F
:100E000080938801101611063CF081E090E0F60115
:100E10009383828310E000E0C801DF91CF911F919E
:100E20000F91FF90EF90DF90CF90BF90AF909F9089
:100E30008F900895BC0190E080E00C9462068FB121
:100E40008095807F669B88601C9B846008958038B5
:100E50009105B8F460347105A0F420E191E061FDE2
:100E600094E060FD990F62FD9295687F269FD00106
:100E70001124A80FA856BE4F8C9140FF03C0892BA8
:100E80008C93089590958923FBCFDF92EF92FF9288
:100E90000F931F93CF93DF937C01D22E8B01040F0E
:100EA000111DEB0177FF02C0D0E0C0E0C8010134A2
:100EB000110514F080E490E0C817D9073CF44D2DDB
:100EC000BE01C7010E9427072196F0CFDF91CF9185
:100ED0001F910F91FF90EF90DF9008952F923F9216
:100EE0004F925F926F927F928F929F92AF92BF923A
:100EF000CF92DF92EF92FF920F931F93CF93DF93E6
:100F0000CDB7DEB72A970FB6F894DEBF0FBECDBFC0
:100F10009A8389836A3061F5DC0155968C91B8E03B
:100F20008B9F90011124E981FA8181899289820F36
:100F3000931F928B818B108A178681E090E02A960E
:100F40000FB6F894DEBF0FBECDBFDF91CF911F91DA
:100F50000F91FF90EF90DF90CF90BF90AF909F9058
:100F60008F907F906F905F904F903F902F9008955B
:100F70006D3019F329813A813A872987D9011F9663
:100F8000AD90BC90B0E8AB16B1040CF07BC0F90199
:100F9000C188D288F0E4CF16D1040CF073C0D90117
:100FA00055966C90559745E09501649E200D311D36
:100FB0001124121613060CF065C0262C312C910159
:100FC00053E0220F331F5A95E1F72C0D3D1D1216E9
:100FD00013060CF057C05496BC91BB83E985FA8583
:100FE000F389FC83649FB00111249B0128583D4F75
:100FF0003A832983712CE981FA818491F5E07F128B
:1010000001C080E0460138E0532E282F30E03E83B7
:101010002D834C8080FF4B80411004C03B818C812C
:101020003817E1F010E000E00615C0F4D501A00F7C
:10103000B11FB887AF83F12CE12CE61460F4B7013F
:10104000680D791D442D8F8198850E942707BFEF79
:10105000EB1AFB0AF2CF0F5F1F4FE6CF8D819E8107
:10106000959587955A94820C931C5110CECF73940A
:10107000E981FA813196FA83E983A20CB31CF6E088
:101080007F12B9CFA985BA8555962C915597422FD5
:1010900050E01F968D919C91B6E02B9F800D911D85
:1010A0001124E985FA85908B87872689222309F404
:1010B00044CF6AEF64039001659F300D11242058DE
:1010C0003F4F281739070CF038CFDF010190F0812E
:1010D000E02D0190F081E02D6AE0CD0109952DCF42
:1010E0000895089590E080E00895CF92DF92EF9206
:1010F000FF920F931F93CF93DF93C091760188E007
:10110000C802E00111240091780188E00802800102
:1011100011247E018FEFE81AF80A68018FEFC81AD0
:10112000D80A80E4E816F10428F446E0B701C601C5
:101130000E942704BE016A5F7F4F6034710520F46E
:1011400046E0C6010E94270421E046E0B701C6013F
:101150000E94450721E046E0B701C80106960E94BB
:101160004507239641E0BE01C80103960E94270768
:1011700041E0BE01C8010596DF91CF911F910F910B
:10118000FF90EF90DF90CF900C942707FC01019027
:101190000020E9F73197AF01481B590BBC0188EEDD
:1011A00095E00C9410060E94BC0F6F927F928F9274
:1011B0009F92AF92BF92CF92DF92EF92FF920F93E6
:1011C0001F93CF93DF93CDB7DEB7A1970FB6F894F7
:1011D000DEBF0FBECDBF10927701109275018091D6
:1011E0007C01806180937C010E945E041092FA056C
:1011F0001092F9051092F8051092F705809181017F
:101200002AE08202C001112484559F4F39E7C32E82
:1012100031E0D32ED60130E020E0FC01E20FF31FD5
:10122000E491ED932F5F3F4F28303105B1F7FC017A
:101230003896E491E0937801FC013996E491E093CB
:10124000760110E000E0380143E0640E711C90E08C
:1012500080E027E0A22EB12C7C01F601208130E055
:101260000A2C02C0359527950A94E2F7AC01485F35
:101270005F4F4A0120FF0DC0E814F90479F021E026
:1012800048E0B801C7010E9445075FEFE51AF50A7B
:10129000F3CF41E0B30103960E94270781E0A81A2B
:1012A000B108C40180349105B9F6085F1F4FEFEF14
:1012B000CE1ADE0A0034110531F60E94750886E464
:1012C00090E09093F8058093F70584E190E0909387
:1012D000FA058093F90589E391E00E94C6088091A0
:1012E0008101082E000C990B01966C01092E000C4F
:1012F000EE08FF0897FF3FC06DE288EE95E00E9480
:101300006E0722273327A9012C193D094E095F09D1
:1013100019A28E010F5D1F4F9AE0C92ED12CE12C2E
:10132000F12CCA01B901A70196010E94940F605DDA
:10133000F80162938F01211531054105510589F7A7
:101340000115110519F0C8010E94C608A1960FB633
:10135000F894DEBF0FBECDBFDF91CF911F910F91EB
:10136000FF90EF90DF90CF90BF90AF909F908F90C5
:101370007F906F900895A701960119A28E010F5DCD
:101380001F4F8AE0C82ED12CE12CF12CCA01B901E3
:10139000A70196010E94940F605DF80162938F018E
:1013A000211531054105510589F7CACF1F920F92CA
:1013B0000FB60F9211248F939F938091E10090912B
:1013C000E100937F9093E10083FF0FC01092E9004A
:1013D00091E09093EB001092EC0092E39093ED007B
:1013E0001092970198E09093F00082FF22C093E062
:1013F0009093E9009091F200992319F09AE3909369
:10140000E80090918801992341F0909188019150D2
:1014100090938801911101C05D9890919601992354
:1014200041F090919601915090939601911101C0D5
:10143000289884FF18C08091E2008E7E816080939E
:10144000E2008091E1008F7E8093E100809189012C
:101450008E7E8061809389019F918F910F900FBE46
:101460000F901F90189580FFF7CF8091E2008E7E3D
:1014700080618093E2008091E1008E7E8093E100A4
:10148000809189018E7E8160E5CF1F920F920FB609
:101490000F921124CF92DF92EF92FF920F931F933E
:1014A0002F933F934F935F936F937F938F939F936C
:1014B000AF93BF93EF93FF93CF93DF93CDB7DEB797
:1014C0006C97DEBFCDBF1092E9008091E80083FFEA
:1014D00025C068E0CE0145960E94030682EF809306
:1014E000E8008D8987FF39C09091E80090FFFCCF1C
:1014F000982F907609F034C19E894F89588D2F8995
:10150000F88C911131C0803861F58091870180930A
:10151000F1001092F1008EEF8093E8006C960FB608
:10152000F894DEBF0FBECDBFDF91CF91FF91EF9159
:10153000BF91AF919F918F917F916F915F914F91EB
:101540003F912F911F910F91FF90EF90DF90CF90DF
:101550000F900FBE0F901F9018959EEF9093E8008C
:10156000C7CF1092F100D5CF913059F48111D3CF6C
:101570004130510581F6809187018D7F80938701ED
:10158000CACF933049F48111C6CF4130510519F6C5
:10159000809187018260F2CF953041F48091E8001C
:1015A00080FFFCCF20682093E300B5CF963009F090
:1015B000A9C00B8D1C8D22E01092E90010928501CC
:1015C00010928401F2122EC01092830110928201B7
:1015D0000E94D2051F8299E09983FA8291E09E834E
:1015E00090EA98879AEF998720918401309185013C
:1015F000275F3F4F3C832B838D831092E90010922D
:10160000850110928401109383010093820149E0C7
:1016100050E0BE016F5F7F4F80E00E94AC050E94EA
:10162000D20579CF10938301009382010E94B60402
:10163000DC0112960D911C910115110509F451C19F
:10164000D801ED91FC910480F581E02DBE016B5E27
:101650007F4FC8010995009709F03EC1F801008548
:101660001185EACFF3E0FF120EC08F89882309F4B9
:1016700040C0823061F440E86DE089EE97E00E945E
:101680007905811148CF81E28093EB0047CF81300B
:1016900029F440E86BE08DED97E0F1CF833099F7C6
:1016A0000E94B604DC011296ED90FC908E010F5F53
:1016B0001F4F6801E114F10479F0D701ED91FC911D
:1016C0000680F781E02DB801C7010995080F111DAB
:1016D000F701E084F184EECFD8011C92F60101906D
:1016E0000020E9F73197BF016C197D0940E0C60180
:1016F000C6CF67EC77E0FB01449150E080E80E94A0
:10170000AC0509CF973009F4BECF983021F481E0C1
:101710008093F10000CF993009F0FDCE837009F07D
:10172000B2CFEDE0F1E081E031E096E321912223B8
:1017300071F08093E9003093EB00DF0111972C9159
:101740002093EC009093ED008F5F873079F78EE760
:101750008093EA001092EA008F8980939701DBCE94
:101760008B8D9C8D1092E90010928501109284015E
:101770009093830180938201898D811192C08E891B
:101780009D89913A49F4813209F07DCF47E050E0DC
:1017900064E071E080E0B3CF913209F074CF83321E
:1017A00069F48F89988DB0E0A0E080930001909358
:1017B0000101A0930201B0930301ADCE803269F420
:1017C0008091E80082FFFCCF67E084E091E00E9416
:1017D00003068BEF8093E8009ECE823209F09BCE09
:1017E0008F8980930B01EEEFFFE7859194918B3FFA
:1017F0009C4D51F1E0E0F8E08091040190910501E9
:10180000A0910601B0910701803B9440A105B1056C
:10181000F1F480910B0180FD1AC0EE3F8AE0F807D9
:1018200089F587E797E791838083809160008093B3
:10183000860188E19BE00FB6F894A895809360003C
:101840000FBE9093600067CEEEEFFAE0D5CF8081B7
:1018500091818737974709F05ECEA8958091600007
:101860008861809360008091860180936000EE3FE4
:101870002AE0F20789F08091FE0A9091FF0A918395
:10188000808349CE808191818737980751F2909368
:10189000FF0A8093FE0AC5CF1092FF0A1092FE0A3B
:1018A0003ACE0E94B604DC0112960D911C910115EE
:1018B000110509F4E8CED801ED91FC910190F08179
:1018C000E02DBE016B5E7F4FC8010995811123CECB
:1018D000F80100851185EBCF181619060CF41BCE04
:1018E000D2CEF1E0FF12BECE6BEC77E004CF1F92B8
:1018F0000F920FB60F9211242F933F938F939F93C4
:10190000AF93BF938091710190917201A091730187
:10191000B091740130916C0123E0230F2D3758F5FD
:101920000196A11DB11D20936C01809371019093CC
:101930007201A0937301B093740180916D01909135
:101940006E01A0916F01B09170010196A11DB11DB2
:1019500080936D0190936E01A0936F01B09370011D
:10196000BF91AF919F918F913F912F910F900FBE9B
:101970000F901F90189526E8230F0296A11DB11D08
:10198000D2CF0F931F93CF93DF938C0181E090E030
:101990000E948C0F80FF31C08AE090E00E948C0F83
:1019A0009FEF980F9E3F48F522E330E0D801509614
:1019B0003C932E931F9728E330E052963C932E934E
:1019C0005197CBE0D0E0D801ED91FC910190F081EE
:1019D000E02D682FC8010995CE010E948C0F219639
:1019E000C131D10581F70E946B0488EE93E0DF914D
:1019F000CF911F910F910C941A07DF91CF911F91F6
:101A00000F91089504970C94C10CE8E9F5E0138256
:101A1000128288EE93E0A0E0B0E084839583A683F1
:101A2000B78387E191E0918380838FEF9FEF958764
:101A30008487E8EEF5E0138212821186128680E137
:101A4000838710861782158689E291E091838083CF
:101A500087E391E095838483108A1786128A118A1E
:101A600081E0838B148A858B168A0895CF93DF9348
:101A700000D000D000D0CDB7DEB7789484B58260B6
:101A800084BD84B5816084BD85B5826085BD85B522
:101A9000816085BD80916E00816080936E001092A0
:101AA000810080918100826080938100809181001B
:101AB00081608093810080918000816080938000AC
:101AC000809191008260809391008091910081606B
:101AD000809391008091900081608093900080912C
:101AE000C10084608093C1008091C10082608093B6
:101AF000C1008091C10081608093C1008091C300CA
:101B000081608093C3008091C00082608093C00098
:101B10008091C20081608093C20080917A008460CD
:101B200080937A0080917A00826080937A0080911D
:101B30007A00816080937A0080917A008068809337
:101B40007A0010929701109287011092890180917A
:101B5000D70081608093D70080EA8093D80089B550
:101B6000806189BD89B5826089BD09B400FEFDCF61
:101B700061E070E080E090E00E9462068091D80011
:101B80008F7C80618093D8008091E000807F80937B
:101B9000E0008091E1008E7E8093E1008DE08093F3
:101BA000E200559A209A5D98289881EC80937C00F9
:101BB00085B1806F85B984B1877E84B984B1876E21
:101BC00084B95E9A5F988AB1806D8AB9769A6E9868
:101BD00081B3806F81BB899880B38D7080BB80E5B5
:101BE0008CBD81E08DBD85E090E00E941A075F9A70
:101BF00085E090E00E941A075E985C98E8E7F7E0BD
:101C000085E897E024912EBD00000DB407FEFDCFBE
:101C100031968E179F07B1F75C9A81E88093640034
:101C20008091650081608093650081E28093F30577
:101C30000E945E0483E290E09093F8058093F7059C
:101C40008EE190E09093FA058093F9058FE391E09F
:101C50000E94C60888E491E00E94C60888E290E0ED
:101C60009093F8058093F7058DE290E09093FA0544
:101C70008093F9058BE491E00E94C60888E491E026
:101C80000E94C6080E946B0480ED97E00E941A072C
:101C90000E941F0783FFFCCF0E94D508412C512CC6
:101CA000320143947EE1872E912CDD24D3948FB7AB
:101CB000F89440917101509172016091730170919B
:101CC00074018FBF8091F405242F281B822F9091DF
:101CD000F505992359F02093F6051092F50520E0BB
:101CE00030E0232B21F30E940000DFCF9091F30519
:101CF000291738F48F5F891790F7D3BE889513BEE4
:101D0000EECFD092F5054093F4058091EF059091C8
:101D1000F00501969093F0058093EF050E941F0750
:101D200087FF7DC0109277013FEF309375010E94CD
:101D30001F0782FD0E94D5080E941F07909178011D
:101D400080917701E92F0E2E000CFF0BFE83ED83AF
:101D50007F01E80EF11C87FDFA94F8E0EF16F1041C
:101D60001CF057E0E52EF12CF7FE02C0F12CE12C1F
:101D70008091760120917501082E000C990B8C0141
:101D8000020F111D27FD1A950830110514F007E008
:101D900010E017FF02C010E000E0980127583E4F06
:101DA0003A832983F901C08047E0242E312C2E1874
:101DB0003F082C2D30E0022C02C0359527950A945F
:101DC000E2F720FD57C023E0880F991F2A95E1F71D
:101DD0009C012E5F3F4F3C832B838D819E8133E09E
:101DE000880F991F3A95E1F79E838D835C0192E0FD
:101DF000A90EB11CED81FE813696FE83ED832D8107
:101E00003E812A153B0529F120E044E06B817C816D
:101E1000C5010E9445073FEFA31AB30AF0CF0E9405
:101E20001F0786FF05C0D0927701109275017FCF02
:101E30000E941F0784FF05C010927701D0927501A0
:101E400076CF0E941F0785FF72CF8FEF80937701B7
:101E5000ECCFE092780100937601D301C20104C077
:101E6000880F991FAA1FBB1F2A94D2F7C82AE9819D
:101E7000FA81C0820E9475080E946B04E9E7F1E0D4
:101E800081918F3F09F02BCF21E831E02E173F07DA
:101E9000B9F7809181018D32D9F40E945E048AE005
:101EA00090E09093F8058093F7059092FA05809260
:101EB000F90582E591E00E94C6080E946B0488EB58
:101EC0009BE00E941A07109281010E94D50807CF5B
:101ED000E6E4F0E0F093F805E093F7059092FA0558
:101EE0008092F90582E691E00E94C6080E946B0488
:101EF00088EE93E00E941A070E945E041092FA0591
:101F00001092F9051092F8051092F7058091810161
:101F10008F5F80938101D9CFF999FECF92BD81BDAA
:101F2000F89A992780B50895A1E21A2EAA1BBB1B27
:101F3000FD010DC0AA1FBB1FEE1FFF1FA217B30795
:101F4000E407F50720F0A21BB30BE40BF50B661FAB
:101F5000771F881F991F1A9469F76095709580956F
:101F600090959B01AC01BD01CF010895EE0FFF1FBD
:101F70000590F491E02D099481E090E0F8940C94A0
:061F8000C10FF894FFCF31
:101F8600FFFFFFFF00E100000000000000C18081AC
:101F960000000000000000CA049506EB04E00431CE
:101FA60005EF040D05000000006E071006720871AB
:101FB60008C10CFCFF0000020D4C564C3A200050A4
:101FC600786C466C6C6572000D0A00507273732053
:101FD600410047616D6520436F6D706C6574656483
:0C1FE600210050657266656374210000E4
:00000001FF
