:100000000C9483130C94AB130C94AB130C94AB13A0
:100010000C94AB130C94AB130C94AB130C94AB1368
:100020000C94AB130C94AB130C9490200C94FF2005
:100030000C94AB130C94AB130C94AB130C94AB1348
:100040000C94AB130C94AB130C94AB130C94AB1338
:100050000C94AB130C94AB130C94AB130C94312392
:100060000C94AB130C94AB130C94AB130C94AB1318
:100070000C94AB130C94AB130C94AB130C94AB1308
:100080000C947B230C94AB130C94AB130C94AB1318
:100090000C94AB130C94AB130C94AB130C94AB13E8
:1000A0000C94AB130C94AB130C94AB1305A84CCD70
:1000B000B2D44EB93836A9020C50B9918688083CA2
:1000C000A6AAAA2ABE000000803F00000000003E51
:1000D0005B4F5B3E3E6B4F6B3E1C3E7C3E1C183CB8
:1000E0007E3C181C577D571C1C5E7F5E1C00183C14
:1000F0001800FFE7C3E7FF0018241800FFE7DBE75D
:10010000FF30483A060E2629792926407F05050743
:10011000407F05253F5A3CE73C5A7F3E1C1C08089F
:100120001C1C3E7F14227F22145F5F005F5F060964
:100130007F017F006689956A606060606094A2FFBD
:10014000A29408047E040810207E201008082A1CAF
:1001500008081C2A08081E101010100C1E0C1E0C7B
:1001600030383E3830060E3E0E060000000000001B
:10017000005F00000007000700147F147F14242A8A
:100180007F2A12231308646236495620500008075C
:100190000300001C2241000041221C002A1C7F1C7D
:1001A0002A08083E0808008070300008080808087F
:1001B000000060600020100804023E5149453E00E6
:1001C000427F400072494949462141494D33181444
:1001D000127F1027454545393C4A49493141211193
:1001E00009073649494936464949291E0000140085
:1001F00000004034000000081422411414141414A8
:10020000004122140802015909063E415D594E7C05
:100210001211127C7F494949363E414141227F41BA
:1002200041413E7F494949417F090909013E414118
:1002300051737F0808087F00417F41002040413F03
:10024000017F081422417F404040407F021C027F12
:100250007F0408107F3E4141413E7F090909063E67
:100260004151215E7F091929462649494932030136
:100270007F01033F4040403F1F2040201F3F403848
:10028000403F631408146303047804036159494D23
:1002900043007F4141410204081020004141417F59
:1002A00004020102044040404040000307080020CF
:1002B000545478407F2844443838444444283844CF
:1002C00044287F385454541800087E090218A4A406
:1002D0009C787F0804047800447D40002040403D25
:1002E000007F1028440000417F40007C047804789F
:1002F0007C080404783844444438FC182424181832
:10030000242418FC7C08040408485454542404048D
:100310003F44243C4040207C1C2040201C3C40307A
:10032000403C44281028444C9090907C4464544CA9
:100330004400083641000000770000004136080004
:1003400002010204023C2623263C1EA1A161123AAE
:100350004040207A385454555921555579412154FB
:10036000547841215554784020545579400C1E5200
:1003700072123955555559395454545939555454A4
:10038000580000457C410002457D420001457C400B
:10039000F0292429F0F0282528F07C545545002028
:1003A00054547C547C0A097F4932494949323248C5
:1003B000484832324A4848303A4141217A3A42402C
:1003C0002078009DA0A07D39444444393D40404000
:1003D0003D3C24FF2424487E4943662B2FFC2F2BD1
:1003E000FF0929F620C0887E090320545479410072
:1003F00000447D413048484A32384040227A007AF1
:100400000A0A727D0D19317D2629292F28262929CE
:10041000292630484D4020380808080808080808F0
:10042000382F10C8ACBA2F102834FA00007B000017
:1004300008142A142222142A14089500220095AACE
:10044000005500AAAA55AA55AA000000FF001010E6
:1004500010FF00141414FF001010FF00FF1010F024
:1004600010F0141414FC001414F700FF0000FF0037
:10047000FF1414F404FC141417101F10101F101F85
:100480001414141F00101010F0000000001F1010B2
:1004900010101F10101010F010000000FF101010AE
:1004A000101010101010FF10000000FF140000FFCB
:1004B00000FF00001F10170000FC04F414141710B4
:1004C000171414F404F40000FF00F71414141414A7
:1004D0001414F700F7141414171410101F101F141D
:1004E0001414F4141010F010F000001F101F00007E
:1004F000001F14000000FC140000F010F01010FFAA
:1005000010FF141414FF141010101F00000000F04E
:1005100010FFFFFFFFFFF0F0F0F0F0FFFFFF000023
:10052000000000FFFF0F0F0F0F0F38444438447CCA
:100530002A2A3E147E02020606027E027E026355CD
:100540004941633844443C04407E201E2006027E1C
:10055000020299A5E7A5991C2A492A1C4C7201722E
:100560004C304A4D4D303048784830BC625A463D98
:100570003E494949007E0101017E2A2A2A2A2A444D
:10058000445F444440514A444040444A5140000082
:10059000FF0103E080FF000008086B6B083612368D
:1005A0002436060F090F060000181800000010106E
:1005B000003040FF0101001F01011E00191D17122C
:1005C000003C3C3C3C0000000000F0F89C8E87831F
:1005D000878E9CF8F00000FEFF0303030303070E61
:1005E000FCF80000FEFF0303030303070EFCF80002
:1005F00000FFFF00000000000000FFFF0000FEFF02
:100600008383838383C7EE7C380000F8FC0E0703E6
:100610000303070EFCF800003F7FE0C08080C0E0CD
:100620007F3FFFFF01010101010101FFFF0000FF0A
:10063000FF0C0C0C0C1C3E77E3C100007FFFC0C018
:10064000C0C0C0E0703F1F00001F3F70E0C0C0C0CE
:10065000E0703F1F00007FFFC1C1C1C1C1E3773E11
:100660001C00001F3F70E0C0C0C0E0703F1F0000D2
:1006700000000001FFFF01000000D5F08D14A1C8AB
:1006800081CFD9F1AF2000581100007E6AFEBEE094
:10069000E0FEFE0000FEAAFEFEFEFE0606FEFEFED8
:1006A000FE0000FEAAFEFE00000000FEFEFEFE00B0
:1006B0000000000000FEAAFEFE0000E0E00000FED8
:1006C000FEFEFE00001E1A1E1EFEBEFEFE1E1E1EAA
:1006D0001E0000FEAAFEFEF8F88080FEFEFEFE0070
:1006E0000000000000FFD6FFFF01010000FFD6FF61
:1006F000FFFFFFF0F0FFFFFFFF0000FFD6FFFFF05E
:10070000F0F0F0FFFFFFFF0000000000000F0EFF01
:10071000AFFEFE0F0FFEFEFFFF0F0F0000F0D0F048
:10072000F0FFF6FFFFF0F0F0F00000FFD6FFFF0152
:10073000010F0FFFFFFFFF0000000000000000009E
:1007400000000000000000000000000000000000A9
:100750000000000000000000000000000000000099
:100760000000000000000000000000000000000089
:100770000000000000000000000000000000000079
:100780000000000000000000000000000000000069
:100790000010100FF1BDFBF7F7B7FBFDF10FFFFFE6
:1007A000FFFFFFFFFEFDC1DCCDDDC5EDEEEEEEEEA1
:1007B000ECEEECFFFFFFFFFFFFFFFFFFFFFFFFFF80
:1007C000FF3FFFEEEEEEEEEEEEEEECEEECCEDECE2A
:1007D000DEC0FFFFFFFFFFFF0FF1FDFBB7F7F7FBE9
:1007E000BDF10FECEEECEEEEEEEEEDC5DDCDDCC1D5
:1007F000FDFEFFFF3FFFFFFFFFFFFFFFFFFFFFFFCC
:10080000FFFFFFFFC0DECEDECEECEEECEEEEEEEE56
:10081000EEEEEE08088026767E7E762680807E6D5F
:100820003D5D2D7E80FF017E4A527E81FFFFFFFFEE
:10083000FF017E80FFFF057A4A4A4E91FFFF354A4D
:100840004A4A7E81FFFFF1EEE8087E81FFFF114EEC
:100850004A4A7A85FFFF817E4A4A7A85FFFFFDFA80
:10086000FA027E81FFFF017E4A4A7E81FFFFF1EEA0
:10087000EA0A7E81FFFF017E0A0A7D83FFFF017E77
:10088000494B7B87FFFF017E425A5A9DFFFF077B42
:100890004B497E81FFFF017E4A4A4AB1FFFF017E3C
:1008A0008AEAEAF1FFFF016E4A4A7E81FFFF017E7C
:1008B000090B7B87FFFFFF3D427E42BDFFFF1D6AA4
:1008C0004A427E81FFFF017E08087681FFFF017E9C
:1008D000415F5FBFFFFF017E050B057E81FF017E4B
:1008E00005097E81FFFF013C42423C81FFFF017E02
:1008F0008AEAE4F1FFFFF1EEEA0A7E419FFF017E02
:100900000A0A7583FFFF31444A4A3281FFFF013EE4
:100910004445218FFFFF017E40407E81FFFF017E25
:100920002090CEE1FFFF017E2117217E81FF096229
:1009300014C9146289FF014648483E81FFFF0962DD
:10094000524A4691FFFFFF99666699FFFFFFE7DB7A
:10095000DBDBDBE7FFFFFF9F6F6F9FFFFF9F6F6F8B
:100960006F6F6F6F9FFF9F6976B6C9FFFF877B45EB
:100970004242457B87E1DEA24242A2DEE1E7DBA5FF
:100980004242427E81817E424242A5DBE7877B7DF7
:100990007E7E7D7B87E1DEBE7E7EBEDEE1E7DBBD67
:1009A0007E7E7E7E81817E7E7E7EBDDBE7CF874937
:1009B00000004987CFFFE741000041E7FFE1DEBECD
:1009C0007D7DBEDEE1E7DBBD7E7EBDDBE7FF007E39
:1009D0007E7E7E00FFFF000000000000FFFF007E23
:1009E00066667E00FFFF000018180000FF00000090
:1009F000000000000055AA55AA55AA55AAFF55FFA8
:100A0000AAFF55FFAA77FEDFFB7FEEFFBBFFFFFFCC
:100A1000FFFFFFFFFF7FD989818189D97F7F819285
:100A2000C2A2D2817F00FE81B5AD817E00000000B0
:100A300000FE817F0000FA85B5B5B16E0000CAB531
:100A4000B5B5817E00000E1117F7817E0000EEB172
:100A5000B5B5857A00007E81B5B5857A00000205BE
:100A600005FD817E0000FE81B5B5817E00000E117E
:100A700015F5817E0000FE81F5F5827C0000FE8187
:100A8000B6B484780000FE81BDA5A5620000F8849C
:100A9000B4B6817E0000FE81B5B5B54E0000FE8182
:100AA0007515150E0000FE91B5B5817E0000FE8122
:100AB000F6F48478000000C2BD81BD420000E295DA
:100AC000B5BD817E0000FE81F7F7897E0000FE81C2
:100AD000BEA0A0400000FE81FAF4FA817E00FE81F3
:100AE000FAF6817E0000FEC3BDBDC37E0000FE811C
:100AF00075151B0E00000E1115F581BE6000FE81FC
:100B0000F5F58A7C0000CEBBB5B5CD7E0000FEC1F8
:100B1000BBBADE700000FE81BFBF817E0000FE8197
:100B2000DF6F311E0000FE81DEE8DE817E00F69D73
:100B3000EB36EB9D7600FEB9B7B7C17E0000F69D9F
:100B4000ADB5B96E000000669999660000001824E2
:100B500024242418000000609090600000609090B1
:100B6000909090906000609689493600007884BA31
:100B7000BDBDBA84781E215DBDBD5D211E18245AFD
:100B8000BDBDBD817E7E81BDBDBD5A2418788482E5
:100B900081818284781E2141818141211E18244255
:100BA000818181817E7E818181814224183078B665
:100BB000FFFFB678300018BEFFFFBE18001E2141AF
:100BC000828241211E182442818142241800FF8123
:100BD000818181FF0000FFFFFFFFFFFF0000FF8119
:100BE000999981FF0000FFFFE7E7FFFF00FFFFFF8C
:100BF000FFFFFFFFFFAA55AA55AA55AA5500AA0054
:100C00005500AA005588012004801100440000000E
:100C1000000000000008088026767E7E7626808010
:100C20007E6D3D5D2D7E80FF017E4A527E81FFFFFD
:100C3000FFFFFF017E80FFFF057A4A4A4E91FFFFCA
:100C4000354A4A4A7E81FFFFF1EEE8087E81FFFFC8
:100C5000114E4A4A7A85FFFF817E4A4A7A85FFFF14
:100C6000FDFAFA027E81FFFF017E4A4A7E81FFFF84
:100C7000F1EEEA0A7E81FFFF017E0A0A7D83FFFF13
:100C8000017E494B7B87FFFF017E425A5A9DFFFF41
:100C9000077B4B497E81FFFF017E4A4A4AB1FFFF35
:100CA000017E8AEAEAF1FFFF016E4A4A7E81FFFF78
:100CB000017E090B7B87FFFFFF3D427E42BDFFFFA8
:100CC0001D6A4A427E81FFFF017E08087681FFFF90
:100CD000017E415F5FBFFFFF017E050B057E81FF47
:100CE000017E05097E81FFFF013C42423C81FFFFFE
:100CF000017E8AEAE4F1FFFFF1EEEA0A7E419FFFFE
:100D0000017E0A0A7583FFFF31444A4A3281FFFFA0
:100D1000013E4445218FFFFF017E40407E81FFFF61
:100D2000017E2090CEE1FFFF017E2117217E81FF11
:100D3000096214C9146289FF014648483E81FFFFD9
:100D40000962524A4691FFFFFF99666699FFFFFFCD
:100D5000E7DBDBDBDBE7FFFFFF9F6F6F9FFFFF9FA3
:100D60006F6F6F6F6F6F9FFF9F6976B6C9FFFF87C9
:100D70007B454242457B87E1DEA24242A2DEE1E7BB
:100D8000DBA54242427E81817E424242A5DBE7876B
:100D90007B7D7E7E7D7B87E1DEBE7E7EBEDEE1E703
:100DA000DBBD7E7E7E7E81817E7E7E7EBDDBE7CF6B
:100DB000874900004987CFFFE741000041E7FFE195
:100DC000DEBE7D7DBEDEE1E7DBBD7E7EBDDBE7FF17
:100DD000007E7E7E7E00FFFF000000000000FFFF1F
:100DE000007E66667E00FFFF000018180000FF000E
:100DF0000000000000000055AA55AA55AA55AAFFF8
:100E000055FFAAFF55FFAA77FEDFFB7FEEFFBBFF72
:100E1000FFFFFFFFFFFFFF7FD989818189D97F7F96
:100E20008192C2A2D2817F00FE81B5AD817E000099
:100E3000000000FE817F0000FA85B5B5B16E0000AC
:100E4000CAB5B5B5817E00000E1117F7817E00008E
:100E5000EEB1B5B5857A00007E81B5B5857A000022
:100E6000020505FD817E0000FE81B5B5817E000092
:100E70000E1115F5817E0000FE81F5F5827C0000E3
:100E8000FE81B6B484780000FE81BDA5A562000095
:100E9000F884B4B6817E0000FE81B5B5B54E000081
:100EA000FE817515150E0000FE91B5B5817E00001E
:100EB000FE81F6F48478000000C2BD81BD420000CE
:100EC000E295B5BD817E0000FE81F7F7897E0000C6
:100ED000FE81BEA0A0400000FE81FAF4FA817E00EF
:100EE000FE81FAF6817E0000FEC3BDBDC37E000018
:100EF000FE8175151B0E00000E1115F581BE6000F8
:100F0000FE81F5F58A7C0000CEBBB5B5CD7E000034
:100F1000FEC1BBBADE700000FE81BFBF817E000053
:100F2000FE81DF6F311E0000FE81DEE8DE817E0083
:100F3000F69DEB36EB9D7600FEB9B7B7C17E00009B
:100F4000F69DADB5B96E0000006699996600000087
:100F50001824242424180000006090906000006091
:100F6000909090909090600060968949360000784B
:100F700084BABDBDBA84781E215DBDBD5D211E1839
:100F8000245ABDBDBD817E7E81BDBDBD5A24187869
:100F9000848281818284781E2141818141211E18B1
:100FA0002442818181817E7E818181814224183029
:100FB00078B6FFFFB678300018BEFFFFBE18001EDF
:100FC0002141828241211E1824428181422418003D
:100FD000FF81818181FF0000FFFFFFFFFFFF000015
:100FE000FF81999981FF0000FFFFE7E7FFFF00FF06
:100FF000FFFFFFFFFFFFFFAA55AA55AA55AA5500FC
:10100000AA005500AA005588012004801100440060
:101010000000000000000008088026767E7E76260C
:1010200080807E6D3D5D2D7E80FF017E4A527E81F7
:10103000FFFFFFFFFF017E80FFFF057A4A4A4E91C6
:10104000FFFF354A4A4A7E81FFFFF1EEE8087E81C4
:10105000FFFF114E4A4A7A85FFFF817E4A4A7A8510
:10106000FFFFFDFAFA027E81FFFF017E4A4A7E8180
:10107000FFFFF1EEEA0A7E81FFFF017E0A0A7D830F
:10108000FFFF017E494B7B87FFFF017E425A5A9D3D
:10109000FFFF077B4B497E81FFFF017E4A4A4AB131
:1010A000FFFF017E8AEAEAF1FFFF016E4A4A7E8174
:1010B000FFFF017E090B7B87FFFFFF3D427E42BDA4
:1010C000FFFF1D6A4A427E81FFFF017E080876818C
:1010D000FFFF017E415F5FBFFFFF017E050B057EC5
:1010E00081FF017E05097E81FFFF013C42423C8178
:1010F000FFFF017E8AEAE4F1FFFFF1EEEA0A7E419A
:101100009FFF017E0A0A7583FFFF31444A4A3281FC
:10111000FFFF013E4445218FFFFF017E40407E815D
:10112000FFFF017E2090CEE1FFFF017E2117217E8F
:1011300081FF096214C9146289FF014648483E8153
:10114000FFFF0962524A4691FFFFFF99666699FFC9
:10115000FFFFE7DBDBDBDBE7FFFFFF9F6F6F9FFF3F
:10116000FF9F6F6F6F6F6F6F9FFF9F6976B6C9FFAD
:10117000FF877B454242457B87E1DEA24242A2DEF9
:10118000E1E7DBA54242427E81817E424242A5DB0D
:10119000E7877B7D7E7E7D7B87E1DEBE7E7EBEDE59
:1011A000E1E7DBBD7E7E7E7E81817E7E7E7EBDDB55
:1011B000E7CF874900004987CFFFE741000041E7BB
:1011C000FFE1DEBE7D7DBEDEE1E7DBBD7E7EBDDB19
:1011D000E7FF007E7E7E7E00FFFF00000000000033
:1011E000FFFF007E66667E00FFFF0000181800000B
:1011F000FF000000000000000055AA55AA55AA559E
:10120000AAFF55FFAAFF55FFAA77FEDFFB7FEEFF7F
:10121000BBFFFFFFFFFFFFFFFF7FD989818189D9D6
:101220007F7F8192C2A2D2817F00FE81B5AD817E97
:101230000000000000FE817F0000FA85B5B5B16EA8
:101240000000CAB5B5B5817E00000E1117F7817E8A
:101250000000EEB1B5B5857A00007E81B5B5857A1E
:101260000000020505FD817E0000FE81B5B5817E8E
:1012700000000E1115F5817E0000FE81F5F5827CDF
:101280000000FE81B6B484780000FE81BDA5A56291
:101290000000F884B4B6817E0000FE81B5B5B54E7D
:1012A0000000FE817515150E0000FE91B5B5817E1A
:1012B0000000FE81F6F48478000000C2BD81BD42CA
:1012C0000000E295B5BD817E0000FE81F7F7897EC2
:1012D0000000FE81BEA0A0400000FE81FAF4FA8169
:1012E0007E00FE81FAF6817E0000FEC3BDBDC37E96
:1012F0000000FE8175151B0E00000E1115F581BE54
:101300006000FE81F5F58A7C0000CEBBB5B5CD7ED0
:101310000000FEC1BBBADE700000FE81BFBF817E4F
:101320000000FE81DF6F311E0000FE81DEE8DE81FD
:101330007E00F69DEB36EB9D7600FEB9B7B7C17E19
:101340000000F69DADB5B96E000000669999660083
:1013500000001824242424180000006090906000ED
:10136000006090909090909060006096894936005F
:10137000007884BABDBDBA84781E215DBDBD5D21F3
:101380001E18245ABDBDBD817E7E81BDBDBD5A24BF
:101390001878848281818284781E21418181412153
:1013A0001E182442818181817E7E81818181422437
:1013B000183078B6FFFFB678300018BEFFFFBE18B1
:1013C000001E2141828241211E1824428181422433
:1013D0001800FF81818181FF0000FFFFFFFFFFFFF9
:1013E0000000FF81999981FF0000FFFFE7E7FFFF01
:1013F00000FFFFFFFFFFFFFFFFAA55AA55AA55AA4E
:101400005500AA005500AA0055880120048011004B
:1014100044000000000000000008088026767E7E60
:10142000762680807E6D3D5D2D7E80FF017E4A5256
:101430007E81FFFFFFFFFF017E80FFFF057A4A4AA2
:101440004E91FFFF354A4A4A7E81FFFFF1EEE808E0
:101450007E81FFFF114E4A4A7A85FFFF817E4A4A0C
:101460007A85FFFFFDFAFA027E81FFFF017E4A4A7C
:101470007E81FFFFF1EEEA0A7E81FFFF017E0A0A0C
:101480007D83FFFF017E494B7B87FFFF017E425A30
:101490005A9DFFFF077B4B497E81FFFF017E4A4A31
:1014A0004AB1FFFF017E8AEAEAF1FFFF016E4A4A74
:1014B0007E81FFFF017E090B7B87FFFFFF3D427EA0
:1014C00042BDFFFF1D6A4A427E81FFFF017E080880
:1014D0007681FFFF017E415F5FBFFFFF017E050B4D
:1014E000057E81FF017E05097E81FFFF013C4242AE
:1014F0003C81FFFF017E8AEAE4F1FFFFF1EEEA0A98
:101500007E419FFF017E0A0A7583FFFF31444A4AEC
:101510003281FFFF013E4445218FFFFF017E4040A5
:101520007E81FFFF017E2090CEE1FFFF017E21172B
:10153000217E81FF096214C9146289FF014648486F
:101540003E81FFFF0962524A4691FFFFFF9966669E
:1015500099FFFFFFE7DBDBDBDBE7FFFFFF9F6F6F41
:101560009FFFFF9F6F6F6F6F6F6F9FFF9F6976B6D3
:10157000C9FFFF877B454242457B87E1DEA24242AD
:10158000A2DEE1E7DBA54242427E81817E42424209
:10159000A5DBE7877B7D7E7E7D7B87E1DEBE7E7E71
:1015A000BEDEE1E7DBBD7E7E7E7E81817E7E7E7E4D
:1015B000BDDBE7CF874900004987CFFFE741000047
:1015C00041E7FFE1DEBE7D7DBEDEE1E7DBBD7E7E85
:1015D000BDDBE7FF007E7E7E7E00FFFF0000000097
:1015E0000000FFFF007E66667E00FFFF0000181807
:1015F0000000FF000000000000000055AA55AA5599
:10160000AA55AAFF55FFAAFF55FFAA77FEDFFB7F69
:10161000EEFFBBFFFFFFFFFFFFFFFF7FD989818147
:1016200089D97F7F8192C2A2D2817F00FE81B5AD30
:10163000817E0000000000FE817F0000FA85B5B5C4
:10164000B16E0000CAB5B5B5817E00000E1117F766
:10165000817E0000EEB1B5B5857A00007E81B5B51A
:10166000857A0000020505FD817E0000FE81B5B58A
:10167000817E00000E1115F5817E0000FE81F5F5DA
:10168000827C0000FE81B6B484780000FE81BDA596
:10169000A5620000F884B4B6817E0000FE81B5B575
:1016A000B54E0000FE817515150E0000FE91B5B512
:1016B000817E0000FE81F6F48478000000C2BD81C6
:1016C000BD420000E295B5BD817E0000FE81F7F7C6
:1016D000897E0000FE81BEA0A0400000FE81FAF4D9
:1016E000FA817E00FE81FAF6817E0000FEC3BDBD58
:1016F000C37E0000FE8175151B0E00000E1115F54E
:1017000081BE6000FE81F5F58A7C0000CEBBB5B5D8
:10171000CD7E0000FEC1BBBADE700000FE81BFBFFF
:10172000817E0000FE81DF6F311E0000FE81DEE859
:10173000DE817E00F69DEB36EB9D7600FEB9B7B7F5
:10174000C17E0000F69DADB5B96E000000669999A6
:1017500066000000182424242418000000609090E3
:101760006000006090909090909060006096894931
:101770003600007884BABDBDBA84781E215DBDBD37
:101780005D211E18245ABDBDBD817E7E81BDBDBDBB
:101790005A241878848281818284781E2141818133
:1017A00041211E182442818181817E7E8181818137
:1017B0004224183078B6FFFFB678300018BEFFFF1D
:1017C000BE18001E2141828241211E1824428181BF
:1017D00042241800FF81818181FF0000FFFFFFFF8D
:1017E000FFFF0000FF81999981FF0000FFFFE7E7FD
:1017F000FFFF00FFFFFFFFFFFFFFFFAA55AA55AA4B
:1018000055AA5500AA005500AA0055880120048059
:101810001100440000000000000000FFFFFFFFFF78
:10182000FFFF8F0723737373F3F3F3F3F3F3F3F310
:10183000F3F3F3F3F3F3F3F3F3F3F3F3F3F3F373F8
:10184000B333B3B333B3B333B3B333B3B333B3B3E8
:1018500033B3B333B373F3F3F3F3F3F3F3F3F3F318
:10186000F3F3F3F3F3F3F3F3F3F3F3F3F3F3F3F348
:10187000F3F3F3F3F3F3F3F3F3F3F3F3F3F3F3F338
:10188000F3F3F3F3F3F3F3F3F3F3F3F3F3F3F3F328
:10189000F3F3F3F3E30307FFFFFFFFFFFFFFFFFF98
:1018A000FFFFFFFFFEFE00007F7F7FFFFFFFFFFFC8
:1018B000FF7F7F7F7F7F7FFFFFFFFFFFFF7F7F7CBB
:1018C0007A7B797A7B797A7B797A7B797A7B797A78
:1018D0007B797A7B797C7F7F7F7F7F7F7F7F7F7F34
:1018E0007F7F7F7F7F7F7F7F7F7F7F7F7F0F5767B8
:1018F00037576737576737576737576737576737E8
:101900000F7F7F7F7F7F7F7F7F7FFFFFFFFFFFFF57
:10191000FFFFFFFFFF0000FFFFFFFFFFFFFFFFFFD5
:10192000FFFFFFFFFFFFFFFEFEF8F0E3E7E7E7E75B
:10193000E3F0F8FEFEF8F0E3E7E7E7E7E3F0F8FEB0
:10194000FEFEFEFEFEFEFEFEFEFEFEFEFEFEFEFEB7
:10195000FEFEFEFEFEFEFEFEFEFEFEFEFEFEFEFEA7
:10196000FEFEFEFEFEFEFEFEFEFEFEFEFEFEFEFE97
:10197000FEFEFEFEFEFEFEFEFEFEFEFEFEFEFEFE87
:10198000FEFEFEFEFEFEFEFEFC0000FFFFFFFFFF70
:10199000FFFFFFFFFF0000FFFFFFFFFFFFFFFFFF55
:1019A000FFFFFFFFFFFFFFFFFFFFFFFFFFFFFFFF47
:1019B000FFFFFFFFFFFFFFFF000000FFFFFFFFFF34
:1019C000FF0000FCFC0000FFFF0000FCFC0000FF2B
:1019D000FF0000FCFC3C3CFFFF000000F8F8F8F8BA
:1019E000F8F8FFFF1F1F9F9F1F1FFFFF9F9F1F1FD5
:1019F0009F9FFFFFFFFFFFFFFFFFFFFFFFFFFFFFB7
:101A00007F7F7FFFFFFFFFFFFF0000FFFFFFFFFF64
:101A1000FFFFFFFFFF0000FFFFFFFFFFFFFFFF07CC
:101A200003C78F1F3F7FFFFFFFFFFFFFFFFF7F3FCA
:101A30001F8FC70307FFFFFF8080808F8F8F8F8FDF
:101A40008FFCFCFCFCFCFCFFFFFCFCFFFFFCFCFF34
:101A5000FFFCFCFCFCFCFCFFFF8080808F8F8F8FE5
:101A60008F8FFFFF8080F9F98080FFFFFFFF80806C
:101A7000FFFFFF1FEFF71B5B1BF7EF1FFF837DFED1
:101A800083ABA38E7D83FFFFFF0000FFFFFFFFFFFF
:101A9000FFFFFFFFFF0000FFFFFFFFFFFFFFFF0053
:101AA00000FCFC7CBCB03C7CFCC0FCFC7C30BCBCC6
:101AB0007CFCFC00003F3F3F3F3F3F3F3F3F3F3FFD
:101AC0003F3F3F3F3F3F3F3F3F3F3F3F3F3F3F3F26
:101AD0003F3F3F3F3F3F3F3F3F3F3F3F3F3F3F3F16
:101AE0003F3F3F3F3F3F3F3F3F3F3F3F3F3F3F3F06
:101AF0003F3F3F3C3B372C2F2C373B3C3F3F3F3E4B
:101B00003D3D3D3E3F3F3F3F3F0080FFFF0F67B7FA
:101B1000D70FFFFFFF0000FFFFFFFFFFD7D7D70062
:101B200000D7D7FFFFFFDFBF77272777BFDFFFFF94
:101B3000FFD7D70000D7D7D7FFFFFFFFFFFFFFFF7B
:101B4000FFFFFFFFFFFFFFFFFFFFF8F5F6F3F5F6DE
:101B5000F3F5F6F3F5F6F3F5F6F3F5F6F3F8FFFF24
:101B6000FFFFFFFFFFFFFFFFFFFFFFFFFFFFFFFF85
:101B7000FFFFFFFFFFFFFFFFFFFFFFFFFFFFFFFF75
:101B8000FFFFFFFF8F5767375767375767305B6D2A
:101B90003680FFFFFF0000FFFFFFFFFFFFFFFFF8A2
:101BA000F0F3F3F3F3F3C3831F3F3F3F3F1F83C3C0
:101BB000F3F3C3831F3F3F3F3F1F83C3F3F3F3F3AD
:101BC000F3F3F3F3F3F3F3F3F3F3F3F3F3F3F3F3E5
:101BD000F3F3F3F3F3F3F3F3F3F3F3F3F3F3F3F3D5
:101BE000F3F3F3F3F3F3F3F3F3F3F3F3F3F3F3F3C5
:101BF000F3F3F3F3F3F3F3F3F3F3F3F3F3F3F3F3B5
:101C0000F3F3F3F3F3F3F3F3F3F3F3F3F3F3F3F3A4
:101C1000F3F3F3F3F3F0F8FFFFFFFF080B0002020A
:101C20000200000904000001020200000524001067
:101C30000105240101010424020605240600010710
:101C400005810310004009040100020A000000079A
:101C5000050202400000070583024000000403095A
:101C60000412010002EF020140412337800001010C
:101C700002030141726475696E6F204C4C43004150
:101C8000726475696E6F204D6963726F0000FEFEAD
:101C900006060606060606060606060606C62646C4
:101CA0004686860606868686868686868686868614
:101CB000868686868606068686464626C6060606E4
:101CC00006060606060606060606FEFE0000FFFFDE
:101CD0000000000000000000808080E09F81000084
:101CE0000000404141408080C00000000000000032
:101CF00000C080804041414000000000819FE080A2
:101D000080800000000000000000FFFF0000FFFFD7
:101D1000000000000000CC3C0D0F0D0D0D0D00006B
:101D20000000000000002040818082C64646C68236
:101D30008081402000000000000000000D0D0D0D0E
:101D40000F0D3CCC000000000000FFFF0000FFFF73
:101D50000000000000003FC0000000000080808004
:101D6000000000000000000000000FF80404F80F5D
:101D700000000000000000000000808080000000E3
:101D80000000C03F000000000000FFFF0000FFFF58
:101D90000000000000000000071810E03F000000F5
:101DA0000F1010101020C000000000000101000002
:101DB000000000C020101010100F0000003FE010C5
:101DC00018070000000000000000FFFF0000FFFFF8
:101DD000000000000000000000000F304040808044
:101DE00080808080804039060000000000000000F4
:101DF0000000063940808080808080804040300F25
:101E000000000000000000000000FFFF0000FFFFD6
:101E100000000000000000000000000000000000C2
:101E2000FF000000000000000000000000000000B3
:101E3000000000000000000000FF000000000000A3
:101E400000000000000000000000FFFF00007F7F96
:101E50006060606060606060606060606060606082
:101E6000636060606060606060606060606060606F
:101E7000606060606060606060636060606060605F
:101E8000606060606060606060607F7F0008088004
:101E900026767E7E762680807E6D3D5D2D7E80FF5F
:101EA000017E4A527E81FFFFFFFFFF017E80FFFF20
:101EB000057A4A4A4E91FFFF354A4A4A7E81FFFF22
:101EC000F1EEE8087E81FFFF114E4A4A7A85FFFF56
:101ED000817E4A4A7A85FFFFFDFAFA027E81FFFF82
:101EE000017E4A4A7E81FFFFF1EEEA0A7E81FFFF12
:101EF000017E0A0A7D83FFFF017E494B7B87FFFF3E
:101F0000017E425A5A9DFFFF077B4B497E81FFFFAE
:101F1000017E4A4A4AB1FFFF017E8AEAEAF1FFFFE9
:101F2000016E4A4A7E81FFFF017E090B7B87FFFF1E
:101F3000FF3D427E42BDFFFF1D6A4A427E81FFFF98
:101F4000017E08087681FFFF017E415F5FBFFFFFD2
:101F5000017E050B057E81FF017E05097E81FFFF65
:101F6000013C42423C81FFFF017E8AEAE4F1FFFF2F
:101F7000F1EEEA0A7E419FFF017E0A0A7583FFFFA8
:101F800031444A4A3281FFFF013E4445218FFFFF21
:101F9000017E40407E81FFFF017E2090CEE1FFFF69
:101FA000017E2117217E81FF096214C9146289FF15
:101FB000014648483E81FFFF0962524A4691FFFFB1
:101FC000FF99666699FFFFFFE7DBDBDBDBE7FFFFDF
:101FD000FF9F6F6F9FFFFF9F6F6F6F6F6F6F9FFF11
:101FE0009F6976B6C9FFFF877B454242457B87E103
:101FF000DEA24242A2DEE1E7DBA54242427E8181CF
:102000007E424242A5DBE7877B7D7E7E7D7B87E14A
:10201000DEBE7E7EBEDEE1E7DBBD7E7E7E7E818132
:102020007E7E7E7EBDDBE7CF874900004987CFFFFC
:10203000E741000041E7FFE1DEBE7D7DBEDEE1E776
:10204000DBBD7E7EBDDBE7FF007E7E7E7E00FFFF88
:10205000000000000000FFFF007E66667E00FFFFBC
:10206000000018180000FF000000000000000055EC
:10207000AA55AA55AA55AAFF55FFAAFF55FFAA7748
:10208000FEDFFB7FEEFFBBFFFFFFFFFFFFFFFF7FDA
:10209000D989818189D97F7F8192C2A2D2817F0033
:1020A000FE81B5AD817E0000000000FE817F000052
:1020B000FA85B5B5B16E0000CAB5B5B5817E000030
:1020C0000E1117F7817E0000EEB1B5B5857A0000DC
:1020D0007E81B5B5857A0000020505FD817E000090
:1020E000FE81B5B5817E00000E1115F5817E0000E0
:1020F000FE81F5F5827C0000FE81B6B48478000094
:10210000FE81BDA5A5620000F884B4B6817E000002
:10211000FE81B5B5B54E0000FE817515150E0000A7
:10212000FE91B5B5817E0000FE81F6F48478000052
:1021300000C2BD81BD420000E295B5BD817E0000B8
:10214000FE81F7F7897E0000FE81BEA0A04000005E
:10215000FE81FAF4FA817E00FE81FAF6817E0000AB
:10216000FEC3BDBDC37E0000FE8175151B0E0000C1
:102170000E1115F581BE6000FE81F5F58A7C000028
:10218000CEBBB5B5CD7E0000FEC1BBBADE7000008F
:10219000FE81BFBF817E0000FE81DF6F311E000027
:1021A000FE81DEE8DE817E00F69DEB36EB9D76005B
:1021B000FEB9B7B7C17E0000F69DADB5B96E00009F
:1021C0000066999966000000182424242418000051
:1021D00000609090600000609090909090906000FF
:1021E000609689493600007884BABDBDBA84781EED
:1021F000215DBDBD5D211E18245ABDBDBD817E7E01
:1022000081BDBDBD5A241878848281818284781E64
:102210002141818141211E182442818181817E7E5C
:10222000818181814224183078B6FFFFB678300072
:1022300018BEFFFFBE18001E2141828241211E18D8
:102240002442818142241800FF81818181FF0000A6
:10225000FFFFFFFFFFFF0000FF81999981FF000052
:10226000FFFFE7E7FFFF00FFFFFFFFFFFFFFFFAA02
:1022700055AA55AA55AA5500AA005500AA00558886
:10228000012004801100440000000000000000084C
:1022900008FFFFFFFFFFFFFFFF817E425A5A427E89
:1022A00081807E653D5D257E807C7E653D5D257EF1
:1022B00080807E255D3D657E7C00FEFDFDFDFDFE92
:1022C00000807F7F4F375F7F8001FEFEFEFEFEFEB7
:1022D000017D7D7D7D655D1BE7E71B5D657D7D7D0A
:1022E0007D7D7D7D7D7D7D7D7D00FFFFFFFFFFFF8F
:1022F000007C7F7F7F7F7F7F00007F7F7F7F7F7F6E
:102300007C7DFDFDFDFDFDFD0101FDFDFDFDFDFDF6
:102310007DFFFFC7C7C7FFFFFF0303FFC3C3CBC3D7
:10232000FFFFFF0402FF81A5A5A5BD81FF0301FFFB
:1023300081BD85B58581FF0205FF8F87C7C7FFFF78
:10234000FF0303FFFF8787B787FFFF0303FF818139
:1023500099998181FF0301FFFFC1D5C1E3FFFF030D
:1023600005FFFFF3C39B9BC3FF0104FFFFE383B3A0
:10237000B383FF0504FF81A5A5A5A581FF0405FF83
:1023800087878F838181FF0202FF81819191818103
:10239000FF0305FF8FA7838B83FFFF02030000204D
:1023A000001000000001003F3F0F0F03030000007A
:1023B00007FFE3CBC3C3C3FFFF0304FF8181818118
:1023C0008181FF0101000021212121000004010081
:1023D000000808180000000303F8F9F8FAF80144AF
:1023E000100500FF81A581998181FF0301004650FE
:1023F00010381246000502FF81A1A1998181FF02D8
:1024000004FF87A38BC3CFFFFF0401000218012143
:1024100009411100008124624850462481070300CD
:10242000020262282F6F0F0105FF030373030006EA
:1024300000000100027A023E007E000000FFFF83E0
:102440008BA383C3FF02030000010103030F3F00BE
:102450000000000C0C0C0C00000202FFFF818181C7
:10246000A581FF0204004000303020080005000074
:102470006021BC260415110206FFE38BC38383FF92
:10248000FF0504FFC787A38BE3FFFF040200008062
:1024900080C010101C070024242420000000000726
:1024A00007007E00200C0C00000703FF838B838B4A
:1024B00083FFFF0304000000E0202000000000FF75
:1024C000C383A393C7FFFF040200000000000000C5
:1024D00000000080244912843973070300809210A1
:1024E00044404000E00201007E00180202020002A7
:1024F0000303082000404140000705FF83B383A386
:1025000083FFFF040200000006180301010303FF1C
:1025100083A3AB83CFFFFF040207870F4010C4875C
:102520008702034000B084007E42180700FF8383C7
:1025300087838BFFFF0204FFE38BB981B981FF0220
:102540000480A0A8AAAAA8A0800700818191818107
:1025500081B18104048080988080809F9F0303FF65
:10256000C1C9CB81A581FF0302FF81819181818156
:10257000FF0403FF8185859D8181FF0505FFC19DC6
:1025800085B581F3FF0406FF81890B4B03F3FF033D
:1025900002FFC7C1C5D19381FF0302232924124939
:1025A0002492C0040720200140228210040404FF6A
:1025B00081B5A58D8183FF0405FFC7D18C8E80E78F
:1025C000FF0204FF89A181898181FF0205FF9989AA
:1025D000A1818189FF0205FFC185A3899D81FF0239
:1025E00005FF918181958581FF0502FF9981818198
:1025F0008181FF0403FF818DC9C19181FF0503FF24
:10260000818189818181FF050301711111550521A6
:10261000FF0503F1012111450133FF05010002828D
:1026200002400100000204FF030B011105353105D2
:10263000040501C3D1056107FF03050179038399EF
:102640008181FF01030000004040000000030211EF
:1026500045610B2181CFFF04040000810C4218E08A
:10266000E00303FF030B898585C5D10202FF918436
:10267000A088C8C0C0060411510181057101FF0581
:102680000100000218441400000702FF90928083AA
:10269000808481040401010159190101FF0501FF32
:1026A00084B4B180E088800506E18191C1194101BF
:1026B000FF05010501C3D1056107FF0305FF80C0C8
:1026C000C48480FAF80304FF8380C6E081B48703E2
:1026D00002E10D4143435B03FF0404FF80BE8081A0
:1026E000848680020601018711414901FF0201FF32
:1026F000808080E080A08C04053030044410800885
:1027000000030300542411241FBECFEFDAE0DEBF24
:10271000CDBF12E0A0E0B1E0E4E3F8E602C005902E
:102720000D92AE32B107D9F727E0AEE2B2E001C0B8
:102730001D92A737B207E1F713E1C3E8D3E104C064
:102740002197FE010E940D34C238D107C9F70E94BB
:10275000AD240C9418340C940000883080F4683058
:1027600070F498E06902F0011124E80FF11D87FD73
:10277000FA95EE0FFF1FE454F94F518740870895F3
:10278000AF92BF92CF92DF92EF92FF920F931F937F
:10279000CF93DF93C091C2062AE0C29FE0011124CB
:1027A000CF5EDC4D10E000E087E0A82EB12CFE01EA
:1027B000E00FF11FE491F12CE12CCE2ED12CC501BC
:1027C0008E199F09960102C0359527958A95E2F7E3
:1027D00041E050E020FD02C050E040E0602F8E2D2F
:1027E0000E94AD133FEFE31AF30A88E0E816F10404
:1027F00031F70F5F1F4F08301105C9F6FE013896FB
:10280000E491E0934407FE013996E491E093450793
:10281000DF91CF911F910F91FF90EF90DF90CF90BC
:10282000BF90AF900895ECE6F2E0A0E0B8E0008041
:102830000EBC8111012C1197A0FDFDCF0192B9F7BB
:102840000DB40895ECE6F2E081118FEF002481933E
:102850008193819381930394D1F7089590915507C3
:10286000982329F490915407982381E009F480E09B
:102870000895883088F4683078F498E06902F001AF
:102880001124E80FF11D87FDFA95EE0FFF1FE454A8
:10289000F94F80859185089581E090E008954F92E9
:1028A0005F926F927F928F929F92AF92BF92CF92E0
:1028B000DF92EF92FF920F931F93CF93DF93FB0171
:1028C000E00FF11DF7FD8AC0603471050CF086C081
:1028D000DB0177FF04C0AA27BB27A61BB70BA77095
:1028E000BB27EB0177FD2796E3E0D595C795EA95E1
:1028F000E1F777FF07C0219768E070E0FB01EA1B72
:10290000FB0BDF0130E0069506950695802E912C95
:102910008A01AE015695542F442757954795480F85
:10292000591F44595D4FBE01E0E8F0E07F01E81A0D
:10293000F90A88E090E03C016A1A7B0A6F3FFFEFDA
:102940007F070CF43BC090E080E05A01E0E8AE0E57
:10295000B11C6F3F760709F452C0FC01E00FF11F74
:10296000E4916A01C80ED91EF0E02F010A2E01C0C1
:10297000440C0A94EAF7F6015080452840821097EB
:10298000B1F06730710599F0F801E80FF91FE49193
:102990006501C80ED91EF0E02F01062C02C0559427
:1029A00047940A94E2F7F601508045284082019648
:1029B000821793071CF4E816F90659F66F5F7F4FEC
:1029C000020F131F40585F4FCB018C1B9D0B8815C6
:1029D000990524F46830710509F0B0CFDF91CF91EB
:1029E0001F910F91FF90EF90DF90CF90BF90AF902D
:1029F0009F908F907F906F905F904F900895109769
:102A000009F0C2CFD4CF883020F4683010F40C9491
:102A1000391480E098E00895CF92DF92FF920F93EF
:102A20001F93CF93DF93F22E415020E090E044308B
:102A300048F450E0FA01E55EFE4F9081495E5E4F3A
:102A4000FA012081620F890FD1E0883018F46830D4
:102A500008F4D0E0022F060F192F180FC1E018302C
:102A600018F4083008F4C0E00E9403156C01602FD0
:102A7000812F0E940315C11106C0C1E093FF03C05E
:102A80008F1508F0C0E0D1110BC0D3FEDC2F8D2FC5
:102A9000DF91CF911F910F91FF90DF90CF9008951C
:102AA000D0E0F5CF9C01480F592F511D411551051C
:102AB00061F1803891054CF54138510514F040E83A
:102AC00050E0421BCB018770992791E001C0990F1C
:102AD0008A95EAF777FF02C0695F7F4FFB0183E0C9
:102AE000F595E7958A95E1F7F695FE2FEE27F79590
:102AF000E795E20FF31FE459FD4F415030F081910B
:102B0000DF011197892B8C93F8CF0895FC018091F8
:102B10006B02882311F13FB7F89482E08093E900BB
:102B20002091F200822F90E01816190614F481E02B
:102B300090E0882339F0289A44E640936A02409155
:102B4000F1004083222339F02091F200211103C0CB
:102B50002BE62093E8003FBF08958FEF9FEF089585
:102B60002FB7F89483E08093E9009091E800892FD3
:102B7000807295FF04C09091F20080E4891B2FBF02
:102B800008958091620281110DC082E080935E02FF
:102B900084E080935F02109261021092600281E0F3
:102BA000809362028EE592E00895CF93DF931F92A7
:102BB000CDB7DEB76983DC01ED91FC910280F38132
:102BC000E02D41E050E0BE016F5F7F4F09950F900F
:102BD000DF91CF91089583E08093E9008091F20026
:102BE000882319F08AE38093E80008950E94B015C5
:102BF00090E00895CF93DF931F92CDB7DEB7FC012D
:102C00008485958597FD08C02FEF3FEF3587248792
:102C10000F90DF91CF910895CE0101960E94861505
:102C2000019719F4898190E0F3CF8FEF9FEFF0CFF8
:102C30000F931F93CF93DF931F92CDB7DEB78C0115
:102C4000FC018485958597FF0BC0CE0101960E94FB
:102C50008615019771F4898190E0F8019587848742
:102C6000F801848595850F90DF91CF911F910F9189
:102C700008958FEF9FEFF1CFFC018485958597FD37
:102C80000BC09FB7F89482E08093E9008091F20036
:102C90009FBF90E0019608959FB7F89482E08093DB
:102CA000E9008091F2009FBF90E0089540915802A2
:102CB0005091590220915602309157024217530702
:102CC000B4F49091E8009570E1F39091E80092FDE2
:102CD00019C08093F1008091580290915902019699
:102CE0008F739927892B19F48EEF8093E8008091D8
:102CF000580290915902019690935902809358027C
:102D000081E0089580E00895DF92EF92FF920F93A3
:102D10001F93CF93DF93D82E8A01EB017B01E40E42
:102D2000F51ECE15DF0559F0D7FE12C0FE018491C5
:102D30000E94561621968111F4CF0FEF1FEFC801A4
:102D4000DF91CF911F910F91FF90EF90DF90089549
:102D50008881EECF0F931F93CF93DF931F92CDB750
:102D6000DEB782E0898342E450E06BE17CE180E8F9
:102D70000E9484160E94C115DC0112960D911C91CF
:102D80000115110589F0D801ED91FC910280F381C4
:102D9000E02DBE016F5F7F4FC801099597FD04C00C
:102DA000F80100851185ECCF89810F90DF91CF91DB
:102DB0001F910F910895615030F02091F100FC01B6
:102DC00020830196F8CF289A84E680936A020895BA
:102DD000809151020895AF92BF92CF92DF92EF920D
:102DE000FF920F931F93CF93DF936C017B018B01B5
:102DF000040F151FEB015E01AE18BF08C017D10705
:102E000059F06991D601ED91FC910190F081E02D8E
:102E1000C6010995892B79F7C501DF91CF911F91E3
:102E20000F91FF90EF90DF90CF90BF90AF900895FB
:102E30003FB7F89480913D0290913E02A0913F02ED
:102E4000B091400226B5A89B05C02F3F19F001960E
:102E5000A11DB11D3FBFBA2FA92F982F8827BC01F4
:102E6000CD01620F711D811D911D42E0660F771F1C
:102E7000881F991F4A95D1F708950F931F93CF93F9
:102E8000DF93809164008E7F8093640080917A004C
:102E9000806480937A0080917A0086FDFCCFC09197
:102EA0007800D09179000E941817AB01BC01809185
:102EB0006400816080936400CE01B0E0A0E0DC019A
:102EC000992788278C019D01040F151F261F371F86
:102ED000C901B801DF91CF911F910F9108958F9291
:102EE0009F92AF92BF92CF92DF92EF92FF926B01CF
:102EF0007C010E9418174B015C01C114D104E1044C
:102F0000F104B9F00E941817681979098A099B0918
:102F1000683E73408105910580F321E0C21AD10813
:102F2000E108F10888EE880E83E0981EA11CB11C10
:102F3000E4CFFF90EF90DF90CF90BF90AF909F9045
:102F40008F9008958F929F92AF92BF92CF92DF920F
:102F5000EF92FF920F931F93CF93DF936C017B014E
:102F60008A0180910B01882309F45CC080916B0277
:102F7000882309F457C080915D0280FF05C08091CD
:102F8000E00082608093E000E801B12C8AEFA82E77
:102F900093E0892E2AE3922E209711F4BB20D9F1D9
:102FA0000E94B01581110AC0AA94AA20D9F161E04B
:102FB00070E080E090E00E946F17EECF8C171D0646
:102FC00011F00CF08C2F9FB7F8948092E9002091BB
:102FD000E80025FD02C09FBFDFCF282F30E0C21BD5
:102FE000D30BF701815020F041914093F100FACFCB
:102FF000E20EF31EBB2021F09092E800B12CEBCF43
:103000008091E80085FDE7CF9092E800BB24B3945F
:10301000209709F3F3CF5D9A84E680935C02101643
:1030200011063CF081E090E0F6019383828310E08A
:1030300000E0C801DF91CF911F910F91FF90EF90B9
:10304000DF90CF90BF90AF909F908F900895209188
:103050003502E0913302F0913402CF010296909351
:10306000340280933302222319F0859194910895BC
:10307000808191810895CF92DF92EF92FF92CF935A
:10308000DF930E942718811520E8920791F4809120
:1030900071008D7F8093710010929100469847983F
:1030A00010923202DF91CF91FF90EF90DF90CF909E
:1030B000089521E020933202813020E8920751F4F4
:1030C00080913002909131029093340280933302C8
:1030D0000E94271897FD05C020912F02222309F492
:1030E00054C020912E02211150C021E020933602BD
:1030F000EC01DF77209709F04BC081E08093370225
:1031000046983FE9C32E3FE0D32EE12CF12CCAEFC5
:10311000D0E0E0914F02F09150020995811103C077
:1031200081E08093370280913602882329F08091D4
:103130003702882309F43FC047980E942718009758
:10314000F1F19C01DE010E943131DC01CB0129E06B
:10315000B595A795979587952A95D1F710929000E8
:103160002AE020939100D0929900C0929800809319
:10317000380290933902A0933A02B0933B028091B7
:1031800071008260809371008DCF10923602B0CFB3
:103190009E0150E040E060E472E48FE090E00E9425
:1031A000DD3069017A0181E0C81AD108E108F1082F
:1031B00010923702AECF4699BFCF479ABECF8FEF5E
:1031C0009FEFDC01CBCF9C01E1E7F0E090819D7F98
:1031D000908310923502E1E4F2E0F0933402E09340
:1031E0003302F0933102E093300231832083738302
:1031F000628380E090E8958384830C943B184F921F
:103200005F926F927F928F929F92AF92BF92CF9276
:10321000DF92EF92FF920F931F93CF93DF934C01B6
:103220005901FC2DC02FD0E0CE01880D991D181634
:1032300019060CF06CC020E8821691040CF067C0EF
:103240009B012E0D311D121613060CF060C0603468
:1032500071050CF05CC04115510509F458C0E62F0A
:10326000E770FE2EDB0177FD179633E0B595A79545
:103270003A95E1F73A2F77FF04C0FF2011F03FEFB6
:103280003A0F662777276819790997FC02C070E022
:1032900060E0803891050CF44BC090E89819961BBB
:1032A000A32F032E000CBB0B1A2F10953F3F0CF0E1
:1032B00010E021E08E2D877009F420E0E694E6947A
:1032C000E694E20EAE0DB11D19971CF028E0E22E37
:1032D000E31AE11A310F20E83203D0011124A80DBE
:1032E000B91DA60FB71F019F600D711D1124460F58
:1032F000571F0F2D0F2C000C110BF33009F41CC1BC
:10330000C8F4F13009F4D0C0F23009F47CC0DF9188
:10331000CF911F910F91FF90EF90DF90CF90BF90D2
:10332000AF909F908F907F906F905F904F90089597
:10333000902FB5CFFA3FB1F1232F2E0DFB3F39F778
:10334000321729F3BD0164597D4FD12CC12CC91608
:1033500008F0A4C0FA01EC0DFD1DE491F0E04F016E
:10336000002E02C0880C991C0A94E2F737FD06C0B3
:10337000FB018081E82CE0948E218083FF2061F0A6
:10338000373054F45B01F0E8AF0EB11CE92CE09447
:10339000F50180818E218083FFEFCF1ADF0A6F5FF6
:1033A0007F4FD5CF232F2E0D321709F4B0CFBD019B
:1033B00064597D4FD12CC12CC91608F069C0FA019F
:1033C000EC0DFD1DE491F0E04F01002E02C0880CD1
:1033D000991C0A94E2F737FD04C0FB01808188291B
:1033E0008083FF2051F0373044F45B01F0E8AF0EEA
:1033F000B11CF501808189298083FFEFCF1ADF0A94
:103400006F5F7F4FD9CF6FEF70E00F2C02C0660F58
:10341000771F0A94E2F760957095772E232F2E0D73
:10342000321709F474CFFD01E459FD4F6F01B12C3F
:10343000A12CA91638F5FA01EA0DFB1DE491F0E084
:103440002F01002E02C0440C551C0A94E2F737FDF0
:1034500005C0F6018081862384298083FF2059F0EE
:1034600037304CF44601F0E88F0E911CF401808156
:10347000872185298083FFEFAF1ABF0A8FEFC81A13
:10348000D80AD7CF3F5F4C0F5D1FA058BF4FC8CFA2
:103490003F5F4C0F5D1FA058BF4F86CF3F5F4C0F63
:1034A0005D1FA058BF4F4CCF6A0D7B1D232F2E0DE3
:1034B000321709F42CCFFD01E459FD4F6F01B12CF7
:1034C000A12CA91688F5FB01EA0DFB1D8490912C17
:1034D000002E02C0880C991C0A94E2F78094909404
:1034E000FA01EA0DFB1D6490712C002E02C0660CDF
:1034F000771C0A94E2F737FD05C0F6018081882128
:1035000086298083FF2049F037303CF4F601E058EB
:10351000FF4F8081892187298083FFEFAF1ABF0A7F
:103520008FEFC81AD80ACDCF3F5F4C0F5D1F6C0FCD
:103530007D1FA058BF4FBCCFC92ED12CFA01E60F7A
:10354000F71FA459BD4F00E810E00C191D09CC1954
:10355000DD09BE01660F771F41E050E06A010F2CC4
:1035600001C0CC0C0A94EAF7592F2E2D792ECF9357
:10357000DF93ED01EF96EF9622968590A590FF20C0
:1035800059F08C9C4001AC9C500137302CF4E88001
:10359000B094EB20E928E99233233AF0EC90A09420
:1035A000EA20E828ED920C94D61A11965A9529F73C
:1035B0002A9551F0572D33951124E60FF11DA00FD8
:1035C000B11DC00FD11DD9CFDF91CF9111249FCE56
:1035D000CF92EF920F93CF93DF93DC01FA01049126
:1035E0003196E4904E5F5F4F2223D1F0C1E0D0E0EE
:1035F0009E2D977011F4D0E0C0E0EE2DE695E69593
:10360000E695EC0FFD2FF11D0E9FE0010F9FD00DF1
:1036100011242C9FC0012D9F900D1124480F591F7C
:1036200082E0C82E30E020E0CD010E94FF18DF913B
:10363000CF910F91EF90CF9008952D9A0895BC01EE
:1036400090E080E00C946F178FB18095807F669B2F
:1036500088601C9B84600895109251023E983F98A8
:1036600008953E9A3F9A81E08093510208958038F0
:103670009105B8F460347105A0F420E191E061FD9A
:1036800094E060FD990F62FD9295687F269FD001BE
:103690001124A80FA459BD4F8C9140FF03C0892B62
:1036A0008C93089590958923FBCF2F923F924F9250
:1036B0005F926F927F928F929F92AF92BF92CF92C2
:1036C000DF92EF92FF920F931F93CF93DF93EC0162
:1036D0008B017A016901C61AD70AD7FE03C0D194BB
:1036E000C194D10847018C1A9D0A97FE03C091949A
:1036F000819491088C149D0454F49E2D8F2D790192
:10370000292F382F9C2F8D2FE801092F182FEC1609
:10371000FD0654F4902F812F8901292F382F9C2FDB
:103720008D2FE701E92EF82E17012C1A3D0A2901E9
:10373000401A510A57FE03C0519441945108310177
:1037400037FE03C08FEF681A780A759467948FEF7D
:10375000021713070CF481E0A82E880FBB08EC16A3
:10376000FD06A4F040E0BE01C8018C149D0414F0D5
:10377000B801CE010E94371B6418750877FE04C09B
:103780000A0D1B1D620C731C2196E9CFDF91CF91AE
:103790001F910F91FF90EF90DF90CF90BF90AF906F
:1037A0009F908F907F906F905F904F903F902F9061
:1037B00008958F929F92AF92BF92CF92DF92EF9235
:1037C000FF920F93CF93DF934B01EC015C01A40EAA
:1037D000B11C7B01E20EF11CCA15DB05B4F46401D7
:1037E000C70121E4E216F10414F080E490E0C81669
:1037F000D9064CF4402FB601CE010E94371B8FEF43
:10380000C81AD80AEDCF2196E7CFDF91CF910F915B
:10381000FF90EF90DF90CF90BF90AF909F908F90F0
:1038200008958F929F92AF92BF92CF92DF92EF92C4
:10383000FF920F931F93CF93DF935C01EB01042F53
:10384000E22E6034710514F40E945215EC0EFD2E28
:10385000F11CB701615071096034710520F4402FEB
:10386000C5010E9452154E01670181E4E816F1047A
:103870001CF080E4C82ED12C8C149D044CF441E043
:10388000B401C5010E94371B8FEF881A980AECCF4C
:103890000A0D1B2D111D01501109CC15DD053CF43D
:1038A00041E0BE01C8010E94371B2196F6CFDF918F
:1038B000CF911F910F91FF90EF90DF90CF90BF902D
:1038C000AF909F908F9008952F923F924F925F926A
:1038D0006F927F928F929F92AF92BF92CF92DF9220
:1038E000EF92FF920F931F93CF93DF9300D000D0FE
:1038F0001F92CDB7DEB7582E362E880F880F880F4F
:1039000092E0292E280E28E0C22ED12C10E000E0F3
:10391000E42EF12C852C912C37018FEF681A780A50
:10392000809E5001819EB00C909EB00C1124A60C7C
:10393000B71C832D90E09D838C83412C9C819A83BE
:103940008D818B83602F842D0E9439148983222DD1
:10395000422DB7018A819B810E94111C998191306F
:1039600041F4252D452DB5018C819D8101960E9444
:10397000111C43948C819D81880D991D9D838C839E
:1039800098E04912DFCF0F5F1F4F81E0C81AD108BE
:1039900039F60F900F900F900F900F90DF91CF910D
:1039A0001F910F91FF90EF90DF90CF90BF90AF905D
:1039B0009F908F907F906F905F904F903F902F904F
:1039C00008952F923F924F925F926F927F928F92C3
:1039D0009F92AF92BF92CF92DF92EF92FF920F939E
:1039E0001F93CF93DF93CDB7DEB72A970FB6F89426
:1039F000DEBF0FBECDBF9A8389836A3061F5DC01DB
:103A000055968C91B8E08B9F90011124E981FA8141
:103A100081899289820F931F928B818B108A1786DE
:103A200081E090E02A960FB6F894DEBF0FBECDBFBE
:103A3000DF91CF911F910F91FF90EF90DF90CF908A
:103A4000BF90AF909F908F907F906F905F904F90BE
:103A50003F902F9008956D3019F329813A813A876C
:103A60002987D9011F96AD90BC90B0E8AB16B10480
:103A70000CF07BC0F901C188D288F0E4CF16D104E4
:103A80000CF073C0D90155966C90559745E095019F
:103A9000649E200D311D1124121613060CF065C012
:103AA000262C312C910153E0220F331F5A95E1F758
:103AB0002C0D3D1D121613060CF057C05496BC91E8
:103AC000BB83E985FA85F389FC83649FB0011124E7
:103AD0009B0126533F4F3A832983712CE981FA8158
:103AE0008491F5E07F1201C080E0460138E0532E5A
:103AF000282F30E03E832D834C8080FF4B80411087
:103B000004C03B818C813817E1F010E000E006151D
:103B1000C0F4D501A00FB11FB887AF83F12CE12C01
:103B2000E61460F4B701680D791D442D8F819885E6
:103B30000E94371BBFEFEB1AFB0AF2CF0F5F1F4F3C
:103B4000E6CF8D819E81959587955A94820C931C22
:103B50005110CECF7394E981FA813196FA83E983CB
:103B6000A20CB31CF6E07F12B9CFA985BA85559691
:103B70002C915597422F50E01F968D919C91B6E065
:103B80002B9F800D911D1124E985FA85908B8787E5
:103B90002689222309F444CF6AEF64039001659FCC
:103BA000300D112420583F4F281739070CF038CF1B
:103BB000DF010190F081E02D0190F081E02D6AE0BD
:103BC000CD0109952DCF0895089590E080E00895E6
:103BD000EF92FF920F931F93CF93DF93382F062F0F
:103BE000E42ED22F822FC0E04AE0882329F0642FF0
:103BF0000E94D933CF5FF9CF10E0D11111C022E478
:103C0000E11001C022E04DE85EE1B801832F90E0B1
:103C1000DF91CF911F910F91FF90EF900C94E81AD4
:103C2000C15ECC0FCC0FCC0FC30F8AE0F82E8D2FC6
:103C30006F2D0E94D93322E0E11022E4290F4DE8D4
:103C40005EE1B8018C2F90E00E94E81A8D2F6F2D55
:103C50000E94D933D82FC8508111E9CFDF91CF917D
:103C60001F910F91FF90EF9008959C0180E0F90162
:103C7000E80FF11D9081992311F08F5FF8CF08951F
:103C8000CF92DF92FF920F931F93CF93DF93C82FB2
:103C9000F42E6901D0E0062F10E0F601ED0FF11DC2
:103CA00080818823D9F1282F8134A8F08B3568F4DE
:103CB0002553F110205C4DE85EE1B8018C2F90E0B7
:103CC0000E94E81ADF5FC85FE8CF813630F08B379B
:103CD00030F42555EECF803380F08A3390F08A336C
:103CE00099F08B3399F08E3299F08F3599F08D32AF
:103CF00099F08C33F1F621E0DCCF803291F72FE39D
:103D0000D8CF22ED280FD5CF26E2D3CF2AE2D1CFCC
:103D100028E2CFCF29E2CDCF27E2CBCFDF91CF91E1
:103D20001F910F91FF90DF90CF900895AF92BF92B7
:103D3000CF92DF92EF92FF920F931F93CF93DF9377
:103D4000CDB7DEB729970FB6F894DEBF0FBECDBF53
:103D5000D12CC12C00E0B12CA12CF12C602F8F2D87
:103D60000E943914282F4FE852E2B601C5010E9483
:103D7000E81AF39438E0A30EB11C88E0F812EECFF5
:103D80000F5FE8E0CE0ED11C083029F7809149077B
:103D9000823009F4C6C008F0B9C0882309F4BBC05A
:103DA000813009F4BCC060914507F8E06F02B001B2
:103DB000112480914407212F4FE852E238E083021A
:103DC000C00111240E94E81A28EC31E041E064E1CE
:103DD00086E40E94401E2091C2062F5F41E064E10C
:103DE00080E70E94E81D25E431E041E068E286E4D6
:103DF0000E94401E2DE431E041E062E386E40E942F
:103E0000401E8091BC06813009F04BC024E531E0B2
:103E100041E06AE086E40E94401E4091BE06509157
:103E2000BF066091C0067091C1068E010F5F1F4FE3
:103E3000F80130E020E09FE0C92ED12CE12CF12CDC
:103E4000D701C601022E04C0880F991FAA1FBB1FED
:103E50000A94D2F784239523A623B723022E04C005
:103E6000B695A795979587950A94D2F781932C5F7D
:103E70003F4F2032310521F780E4E82EF12CF80184
:103E800021918F012E5B4DE85EE164E170E0C70196
:103E90000E94E81AF8E0EF0EF11C30E8E316F10496
:103EA00071F7E4ECF6E084E497E021913191232B63
:103EB000D1F18E179F07C9F700E020E440E470E0DD
:103EC00060E08FE390E00E94D91B00E420E44DE81D
:103ED0005CE170E060E08FE390E00E944F1480E0CE
:103EE0000E94131480ED97E029960FB6F894DEBF78
:103EF0000FBECDBFDF91CF911F910F91FF90EF903B
:103F0000DF90CF90BF90AF900C941F1B833029F0AF
:103F1000843009F048CF12E046CF15E044CF14E0DA
:103F200042CF13E040CF10914507F0904407612F36
:103F30008FEF8F0D0E94391401E0892B09F000E00A
:103F4000612F81E08F0D0E943914892B09F40F5FD6
:103F50006FEF610F8F2D0E943914892B09F40F5FC9
:103F600061E0610F8F2D0E943914892BD1F101116D
:103F700038C08091C3068F5F8093C3068A3088F172
:103F800025E140E468E070E080E490E00E94D91B05
:103F900001E023E24AE361E070E083E490E00E9404
:103FA000D91B00E025E14CE268E070E08AE490E093
:103FB0000E94D91B2EE531E041E06EE08CE42996A9
:103FC0000FB6F894DEBF0FBECDBFDF91CF911F912A
:103FD0000F91FF90EF90DF90CF90BF90AF900C9437
:103FE000401E29960FB6F894DEBF0FBECDBFDF91FD
:103FF000CF911F910F91FF90EF90DF90CF90BF90E6
:10400000AF90089524E631E040E062E082E00E9453
:10401000401E24E631E040E066E382E00C94401E5E
:10402000EF92FF920F931F93CF93DF937C018C014C
:10403000C4E6D0E0CE010E94C730F80181938F0121
:104040002196C836D105B1F7C701DF91CF911F91F5
:104050000F91FF90EF900895CF93DF9300D000D0A1
:10406000CDB7DEB7CE0101960E94102069817A811A
:104070008B819C810F900F900F900F90DF91CF91CB
:1040800008950C94C7300E941334FF920F931F932E
:10409000CF93DF93EC01F62E08811981C8010E94AD
:1040A000C730F81621F06F2DC8010E94CF30CE0125
:1040B000DF91CF911F910F91FF900895EF92FF92A2
:1040C0000F931F93CF93DF9300D000D000D0CDB7D4
:1040D000DEB76B837C838D839E831C821B827E0173
:1040E00083E0E80EF11C04E610E01A830983F7016F
:1040F00061917F01CE0101960E9445200F5F1F4F05
:104100000836110591F726960FB6F894DEBF0FBE5C
:10411000CDBFDF91CF911F910F91FF90EF90089548
:104120001F920F920FB60F9211248F939F9380913D
:10413000E1009091E100937F9093E10083FF0FC035
:104140001092E90091E09093EB001092EC0092E362
:104150009093ED0010926B0298E09093F00082FF34
:1041600022C093E09093E9009091F200992319F016
:104170009AE39093E80090915C02992341F090912A
:104180005C02915090935C02911101C05D989091F6
:104190006A02992341F090916A02915090936A02C9
:1041A000911101C0289884FF18C08091E2008E7E92
:1041B00081608093E2008091E1008F7E8093E10036
:1041C00080915D028E7E806180935D029F918F91D0
:1041D0000F900FBE0F901F90189580FFF7CF809122
:1041E000E2008E7E80618093E2008091E1008E7E0D
:1041F0008093E10080915D028E7E8160E5CF1F9209
:104200000F920FB60F921124CF92DF92EF92FF928E
:104210000F931F932F933F934F935F936F937F93CE
:104220008F939F93AF93BF93EF93FF93CF93DF93BE
:10423000CDB7DEB76C97DEBFCDBF1092E90080919D
:10424000E80083FF25C068E0CE0145960E94DB169A
:1042500082EF8093E8008D8987FF39C09091E80054
:1042600090FFFCCF982F907609F034C19E894F893A
:10427000588D2F89F88C911131C0803861F580916B
:104280005B028093F1001092F1008EEF8093E800C2
:104290006C960FB6F894DEBF0FBECDBFDF91CF9105
:1042A000FF91EF91BF91AF919F918F917F916F910E
:1042B0005F914F913F912F911F910F91FF90EF9040
:1042C000DF90CF900F900FBE0F901F9018959EEF2C
:1042D0009093E800C7CF1092F100D5CF913059F4F8
:1042E0008111D3CF4130510581F680915B028D7FE2
:1042F00080935B02CACF933049F48111C6CF41301D
:10430000510519F680915B028260F2CF953041F43D
:104310008091E80080FFFCCF20682093E300B5CFB8
:10432000963009F0A9C00B8D1C8D22E01092E90097
:104330001092590210925802F2122EC01092570297
:10434000109256020E94AA161F8299E09983FA825F
:1043500091E09E8390EA98879AEF9987209158027E
:1043600030915902275F3F4F3C832B838D831092FE
:10437000E9001092590210925802109357020093CC
:10438000560249E050E0BE016F5F7F4F80E00E941F
:1043900084160E94AA1679CF1093570200935602F2
:1043A0000E94C115DC0112960D911C910115110599
:1043B00009F451C1D801ED91FC910480F581E02D03
:1043C000BE016B5E7F4FC8010995009709F03EC1A1
:1043D000F80100851185EACFF3E0FF120EC08F8946
:1043E000882309F440C0823061F440E86DE08FE733
:1043F0009CE10E94DC23811148CF81E28093EB0095
:1044000047CF813029F440E86BE083E79CE1F1CFAE
:10441000833099F70E94C115DC011296ED90FC9053
:104420008E010F5F1F4F6801E114F10479F0D7018D
:10443000ED91FC910680F781E02DB801C701099547
:10444000080F111DF701E084F184EECFD8011C9212
:10445000F60101900020E9F73197BF016C197D0941
:1044600040E0C601C6CF6DE57CE1FB01449150E020
:1044700080E80E94841609CF973009F4BECF9830A7
:1044800021F481E08093F10000CF993009F0FDCE56
:10449000837009F0B2CFE1E1F1E081E031E096E331
:1044A0002191222371F08093E9003093EB00DF012A
:1044B00011972C912093EC009093ED008F5F873043
:1044C00079F78EE78093EA001092EA008F89809353
:1044D0006B02DBCE8B8D9C8D1092E90010925902FD
:1044E000109258029093570280935602898D811141
:1044F00092C08E899D89913A49F4813209F07DCF2D
:1045000047E050E064E071E080E0B3CF913209F021
:1045100074CF833269F48F89988DB0E0A0E08093E6
:10452000000190930101A0930201B0930301ADCE6D
:10453000803269F48091E80082FFFCCF67E084E07C
:1045400091E00E94DB168BEF8093E8009ECE8232D2
:1045500009F09BCE8F8980930B01EEEFFFE78591E9
:1045600094918B3F9C4D51F1E0E0F8E08091040183
:1045700090910501A0910601B0910701803B944004
:10458000A105B105F1F480910B0180FD1AC0EE3F49
:104590008AE0F80789F587E797E791838083809120
:1045A000600080935A0288E19BE00FB6F894A895CA
:1045B000809360000FBE9093600067CEEEEFFAE04C
:1045C000D5CF808191818737974709F05ECEA89536
:1045D0008091600088618093600080915A0280938E
:1045E0006000EE3F2AE0F20789F08091FE0A909188
:1045F000FF0A9183808349CE808191818737980714
:1046000051F29093FF0A8093FE0AC5CF1092FF0AE1
:104610001092FE0A3ACE0E94C115DC0112960D914D
:104620001C910115110509F4E8CED801ED91FC911A
:104630000190F081E02DBE016B5E7F4FC8010995AE
:10464000811123CEF80100851185EBCF18161906CC
:104650000CF41BCED2CEF1E0FF12BECE61E67CE1BF
:1046600004CF1F920F920FB60F9211242F933F93F6
:104670008F939F93AF93BF93809152029091530277
:10468000A0915402B091550230913C0223E0230FD7
:104690002D3758F50196A11DB11D20933C02809342
:1046A000520290935302A0935402B093550280910A
:1046B0003D0290913E02A0913F02B09140020196CE
:1046C000A11DB11D80933D0290933E02A0933F0235
:1046D000B0934002BF91AF919F918F913F912F91E5
:1046E0000F900FBE0F901F90189526E8230F02968B
:1046F000A11DB11DD2CF1F920F920FB60F921124A0
:104700002F933F934F935F936F937F938F939F93D9
:10471000AF93BF93EF93FF9380913802909139024A
:10472000A0913A02B0913B02892B8A2B8B2B09F482
:1047300040C08091370281110BC088B190E4892775
:1047400088B980913602882319F088B1805888B9D9
:104750008091380290913902A0913A02B0913B02C7
:10476000181619061A061B069CF4809138029091BF
:104770003902A0913A02B0913B020197A109B10917
:104780008093380290933902A0933A02B0933B028F
:10479000FF91EF91BF91AF919F918F917F916F9119
:1047A0005F914F913F912F910F900FBE0F901F90EF
:1047B00018950E943B18ECCFEF92FF920F931F9336
:1047C000CF93DF93F82E192FE62E042F81E0860F6A
:1047D000880F0E94561683E00E945616CF2DD12FC7
:1047E000EC0EFD2EF11CCE15DF05B9F007FF13C04E
:1047F000FE0184910E945616182F80E00E945616E2
:10480000812321968111EFCFDF91CF911F910F91DD
:10481000FF90EF9008958881EDCF81E0F5CF0F9361
:104820001F93CF93DF938C0181E090E00E944120A1
:1048300080FF32C08AE090E00E9441209FEF980FF5
:104840009E3F50F522E330E0D80150963C932E93E2
:104850001F9728E330E052963C932E935197CBE07C
:10486000D0E0D801ED91FC910190F081E02D682F0E
:10487000C8010995CE010E9441202196C131D10580
:1048800081F780E00E94131488EE93E0DF91CF91CE
:104890001F910F910C941F1BDF91CF911F910F91CE
:1048A000089504970C940F24ECE6F6E0138212822C
:1048B00088EE93E0A0E0B0E084839583A683B7837D
:1048C00083E291E0918380838FEF9FEF95878487C8
:1048D000ECEBF6E082E08083118212821382148274
:1048E000158285E08683178210924E0710924D073D
:1048F000109254071092550780E18093560710924A
:104900005307109252071092580785E391E0909355
:104910004C0780934B0783E491E09093500780937A
:104920004F0710925B0710925A0710925D07109282
:104930005C0781E080935E0710925F0780936007B9
:104940001092610710926307109264071092720729
:1049500010927307109275070895CF93DF93CDB728
:10496000DEB767970FB6F894DEBF0FBECDBF789461
:1049700084B5826084BD84B5816084BD85B5826064
:1049800085BD85B5816085BD80916E008160809315
:104990006E0010928100809181008260809381007E
:1049A000809181008160809381008091800081608E
:1049B000809380008091910082608093910080912B
:1049C000910081608093910080919000816080933C
:1049D00090008091C10084608093C1008091C100EB
:1049E00082608093C1008091C10081608093C1008A
:1049F0008091C30081608093C3008091C000826079
:104A00008093C0008091C20081608093C200809139
:104A10007A00846080937A0080917A00826080932B
:104A20007A0080917A00816080937A0080917A0088
:104A3000806880937A0010926B0210925B02109251
:104A40005D028091D70081608093D70080EA8093D7
:104A5000D80089B5806189BD89B5826089BD09B4F6
:104A600000FEFDCF61E070E080E090E00E946F17F3
:104A70008091D8008F7C80618093D8008091E00085
:104A8000807F8093E0008091E1008E7E8093E10042
:104A90008DE08093E200559A209A5D98289881ECE9
:104AA00080937C0085B1806F85B984B1877E84B99D
:104AB00084B1876E84B95E9A5F988AB1806D8AB935
:104AC000769A6E9881B3806F81BB899880B38D7020
:104AD00080BB80E58CBD81E08DBD85E090E00E94CB
:104AE0001F1B5F9A85E090E00E941F1B5E985C98F8
:104AF000EAE7F6E087E896E024912EBD00000DB4C9
:104B000007FEFDCF31968E179F07B1F75C9A81E8BB
:104B1000809364008091650081608093650080E0EF
:104B20000E9413140E94241B02E010E087FF15C0AE
:104B30005C9885EA8EBD00000DB407FEFDCF5C9A3F
:104B40002E982F982D988091640080628093640045
:104B500081E083BF889513BEFCCF0E94241B82FF97
:104B600040C02D980E94241B84788438C1F40E9490
:104B70001D1B88EC90E00E941F1B2F981A8309834D
:104B80006FEFCE0101960E94452084EF91E00E94D4
:104B90001F1B2F9A0E94241B84788438D9F30E940B
:104BA000241B84718431C1F40E941D1B88EC90E0A9
:104BB0000E941F1B2E981A83098360E0CE01019684
:104BC0000E94452084EF91E00E941F1B2E9A0E94B4
:104BD000241B84718431D9F388EC90E00E941F1B60
:104BE000BCCF0E941D1B82E090E00E9441208823E0
:104BF00009F473C00E94311B81E090E00E944120C3
:104C0000182F147081FF0EC011112E9840EFE42E62
:104C1000FF24FA940E94241B86FF62C02E9A2F9ACA
:104C20000E941D1B82E390E00E941F1B0E94241B18
:104C30008111F8CF80E1809356070E943D176115DE
:104C400071058105910511F00E94BE3088EE96E154
:104C50009093500280934F0280E090E890934E0230
:104C600080934D0246983E9A47983F9ACE0101960E
:104C70000E94102089819A81892B09F463C01092C7
:104C8000C20610924A071B821C8269817A818B813D
:104C90009C810E945E200E94C0138FB7F8944091BF
:104CA00052025091530260915402709155028FBF8D
:104CB00080915707942F981B892F9091580799231B
:104CC00009F447C0809359071092580780E090E09C
:104CD000892B19F30E940000E0CF0E942C1B8CCF7F
:104CE000112331F024E0E216F10411F42E9A2F98EA
:104CF00081E00E94131400E128E54AEC55E0B70179
:104D000084E190E00E944F1480E00E9413148FE031
:104D100090E00E941F1B4FEFE41AF40A59E1E516D8
:104D2000F10409F077CF112311F02F9A2D9880E923
:104D300091E00E941F1B0E941D1B8BE497E00E94C4
:104D40000F2470CF8B818093C2068C8180934A0799
:104D5000A2CF90915607891748F48F5F891708F002
:104D6000B5CF81E083BF889513BEB0CF81E080933B
:104D70005807409357078091520790915307019627
:104D8000909353078093520780915407809355075F
:104D90000E94241B8093540780E00E9422141092EA
:104DA0005D0710925C0710925B0710925A07E09122
:104DB000BD06EC3010F00C941F30F0E0EE51F94DD0
:104DC0000C940D34EE260427D82BC22CB82D952D2B
:104DD000C4273E282429702AF12A842E88E00E94C4
:104DE0002E14882319F081E08093BD0600E420E8AA
:104DF0004BE158E170E060E090E080E00E944F14E9
:104E000080E00E94131462CF80E80E942E14882351
:104E100039F080916307882319F0815080936307EC
:104E200080E10E942E14882339F08091630783303B
:104E300018F48F5F8093630788E00E942E14882304
:104E400069F080916307813009F492C008F48AC048
:104E5000823009F491C0833009F492C084E00E944A
:104E60002E14882321F0109263071092BD0681E072
:104E70000E94221483E791E09B878A878EE791E066
:104E80009D878C8787E891E09F878E8781E991E0F5
:104E9000998B888B6E01AAE0CA0ED11CB12C3CE024
:104EA000E32EF12CF601019111916F01980140E080
:104EB0006E2D80E00E94401E809163078B1148C0D8
:104EC000C8010E94351E182F609152077091530738
:104ED00090E080E00E944E3220E030E040E751E474
:104EE0000E94AD310E94493320E030E040E85FE3AA
:104EF0000E94413120E030E040E05FE30E94DC327C
:104F000020E030E040EA50E40E94DC322B013C011A
:104F1000F8E01F9FB0011124072E000C880B990B9D
:104F20000E9450329B01AC01C301B2010E94413189
:104F300020E030E040E85FE30E9441310E941F32F0
:104F4000862F2DE249E154E1B70190E00E94E81A72
:104F5000B39429E0E20EF11C44E0B412A3CF0E9406
:104F600002204ECF1092630782E08093BD0676CF79
:104F70001092630783E0F9CF1092630784E0F5CFC6
:104F80001092630785E0F1CF0E94241B84FF48C084
:104F900080916407882319F0815080936407809181
:104FA00064078093C2060E94C0138AEF90E00E94BB
:104FB0001F1B8BE991E00E94351E182F2BE931E071
:104FC00040E060E08EE10E94401E209164072F5F68
:104FD000812F880F880F880F40E060E0825E0E947A
:104FE000E81D4CE06AE285E00E94641C20916407A1
:104FF00040E064E18AE00E94E81D40E262E083E074
:105000000E94641C209164072E5F40E064E186E604
:105010000E94E81D40E262E683E00E94641CF0CE3C
:105020000E94241B87FF07C080916407833608F025
:10503000B6CF8F5FB2CF88E00E942E148823A1F0F4
:105040001092BE061092BF061092C0061092C106C2
:10505000809164078093C206109264071092BC0688
:1050600088E08093BD06A5CF84E00E942E1488239B
:1050700009F49FCF1092640782E0F3CF80E20E9490
:105080002E148823B1F180916E07882319F0815086
:1050900080936E0725E6E22E27E0F22ED12C00E267
:1050A00010E080916E078D11BBC02BE647E150E107
:1050B00060E170E0C8010E94E81AD7012C912E5BD4
:1050C0004DE85EE168E170E0C8010E94E81A2CE654
:1050D00047E150E160E270E0C8010E94E81AD39411
:1050E000085F1F4FFFEFEF1AFF0A28E0D212D9CF57
:1050F00087CE80E40E942E14882331F080916E07C1
:10510000883040F68F5FC4CF80E10E942E14882340
:1051100061F0E0916E07F0E0EB59F84F8081882351
:1051200009F4B8CF81508083B5CF80E80E942E1457
:10513000882359F0E0916E07F0E0EB59F84F808139
:105140008F3008F0A7CF8F5FEECF88E00E942E143B
:10515000882309F44BC089E0E5E6F7E0DE0111960B
:1051600001900D928A95E1F7FE01319630E020E042
:10517000819190E0B0E0A0E0022E04C0880F991F5A
:10518000AA1FBB1F0A94D2F74A895B896C897D8963
:10519000480F591F6A1F7B1F4A8B5B8B6C8B7D8B63
:1051A0002C5F3F4F2032310519F74093BE065093D4
:1051B000BF066093C0067093C106109265071092F7
:1051C000660710926707109268071092690710929D
:1051D0006A0710926B0710926C0710926E0781E0BD
:1051E0008093BC0688E08093BD0654CF84E00E9483
:1051F0002E14882309F44ECF10926E071092650783
:10520000109266071092670710926807109269075C
:1052100010926A0710926B0710926C0783E0E3CF3D
:105220002FE647E150E160E170E0C8010E94E81A12
:10523000F70120812E5B4DE85EE168E170E0C80176
:105240000E94E81A20E744CF8091BC0610924607DE
:105250001092470710924407109245071092480792
:10526000109249071092C306813009F036C160914F
:10527000BE067091BF068091C0069091C1066F5F17
:105280007F4F8F4F9F4F11F00E94BE306091BE063E
:105290007091BF068091C0069091C106611571059D
:1052A0008105910511F00E94BE300E946F3028E008
:1052B00030E040E050E00E94DD30609344070E94FF
:1052C0006F3028E030E040E050E00E94DD30609335
:1052D000450710E000E050E040E0612F802F0E9481
:1052E000AD130F5F0830B9F71F5F183099F7F090D2
:1052F0004407E09045070E946F3024E030E040E032
:1053000050E00E94DD3055245394560E452D50E058
:10531000542F44274427577058606E2D8F2D0E94BC
:10532000AD1300E0612C712C6E2D8FEF8F0D0E945C
:1053300003159695969596959E8B1F8A8E899F89C3
:1053400041E08427182F11706E2D81E08F0D0E948F
:10535000031593FF1F5F6FEF6E0D8F2D0E940315D6
:1053600093FF1F5F61E06E0D8F2D0E94031593FF69
:1053700003C0112309F494C0D62CC72C0E946F30AF
:1053800024E030E040E050E00E94DD30B62E11E035
:10539000160F1230A9F168F51130D1F1202F412FED
:1053A0006E2D8F2D0E940C15882341F353E0912C14
:1053B000412C5B1550F08B2D90E0FC01E55EFE4F1B
:1053C0004080895E9E4FDC019C90812CBE2CAF2CCE
:1053D000202F280D412F6B2D8A2D0E940C1588231C
:1053E000D9F0A40CB90C8394F3CF6D2C7C2C512EE6
:1053F0009BCF133049F0143089F6DD24D39406C0D6
:10540000D12CCC24C394CACFDD24DA94C12CC6CFCE
:10541000D12CCC24CA94C2CF912CB12CA12C8114B4
:105420009104A104B10439F00E946F30A5019401E8
:105430000E94DD304B01151579F06E0C7F0C662D46
:10544000872D0E94031593FD07C0402F50E0586040
:10545000662D872D0E94AD13A12EB12CBA2CAA2443
:10546000AA24B7E0BB226894B3F881E0800F880ECD
:10547000882D801B18160CF0B8CF202F412F6E2DD1
:105480008F2D0E940C15882309F4AFCF0F5FFC0C01
:10549000ED0CA501402B6E2D8F2D0E94AD13E8CF92
:1054A00010E000E0612F802F0E94391493FF05C0A7
:1054B000892F877050E040E011F441E050E0612F07
:1054C000802F0E94AD130F5F083061F71F5F183007
:1054D00041F789E08093BD0693CC0E94C013F9CFB9
:1054E0000E94241B87FF1BC060914507615080917B
:1054F00044070E943914892B79F4109246078FEFE4
:1055000080934707809148078093490783E0809301
:1055100048078AE08093BD060E94961E71CC0E94C7
:10552000241B86FF14C080914407609145078F5F5C
:105530000E943914892B81F781E0809346071092ED
:105540004707809148078093490782E0E0CF0E9497
:10555000241B84FF14C0609145076F5F809144074E
:105560000E943914892BC1F61092460781E080937E
:105570004707809148078093490784E0C8CF0E947D
:10558000241B85FF15C08091440760914507815019
:105590000E943914892B09F0BFCF8FEF8093460703
:1055A00010924707809148078093490781E0AFCF69
:1055B0000E94241B82FF0DC08091BC06813029F01F
:1055C00010F0823021F482E0A5CF83E0A3CF81E008
:1055D000A1CF88E00E942E14882309F49DCF88E093
:1055E00099CF809152079091530765E070E00E9437
:1055F000E533892B09F042C060914507809144074B
:1056000090914807923009F473C008F04EC0913071
:1056100009F45CC080914807809349078091450751
:1056200060914707062E000C770B680F711D87FDF0
:105630007A956830710514F067E070E077FD60E0FE
:10564000F62E8091440700914607002E000C110BA6
:10565000080F111D87FD1A950830110514F007E099
:1056600010E017FD00E06F2D802F0E943914892B68
:1056700009F06CC000934407F0924507E4ECF6E0B3
:1056800084E497E021913191232B09F445CF8E17C3
:105690009F07C1F78091BC06813009F479C008F4F6
:1056A00063C0823009F464C037CF9330B1F19430D5
:1056B00009F0B0CF90914907913009F441C0E8F169
:1056C000923009F440C0943091F1A4CF90914907F1
:1056D000913001F140F09330B1F1943009F09ACF5C
:1056E0004CE050E002C048E050E00E94AD1392CF81
:1056F00090914907923071F028F449E050E09923E5
:10570000A1F388CF9330E1F0943009F083CF4DE0DE
:1057100050E0EBCF4AE050E0E8CF9091490791305C
:10572000B1F340F09230E1F2933009F073CF4BE0E7
:1057300050E0DBCF46E050E0D8CF47E050E0D5CF97
:105740004FE050E0D2CF4EE050E0CFCF109246076E
:105750001092470764E170E084E690E00E94E3184D
:1057600089E08093BD068ACF8091C206833610F00F
:105770008BE0D0CE8F5F8093C2060E942C202091B8
:10578000C206821708F02BCF822F0E945E2027CFFF
:105790008091C2068F5F8093C2060E943D1760937E
:1057A000BE067093BF068093C0069093C10617CFC4
:1057B00080E80E942E14882309F48BC08091720720
:1057C000882319F081508093720781E00E9422148F
:1057D00082EA91E09B878A878CEA91E09D878C879B
:1057E00087EB91E09F878E878FEB91E0998B888B79
:1057F0005E01EAE0AE0EB11CCC24CA94DC2CBCE005
:10580000EB2E19E0712ED5018D909D905D019401D4
:1058100040E06E2D80E00E94401E009172070C1542
:105820001D0409F04DC0C4010E94351EF82E609180
:1058300052077091530790E080E00E944E3220E0C2
:1058400030E040E751E40E94AD310E944933079DAA
:10585000002D11240C5E10E020E030E040E85FE312
:105860000E94413120E030E040E05FE30E94DC3202
:1058700020E030E040EA50E40E94DC321B012C01C1
:10588000B8E0FB9EB0011124072E000C880B990B89
:105890000E9450329B01AC01C201B1010E94413112
:1058A00020E030E040E85FE30E9441310E941F3277
:1058B000862F2DE24DE85EE1B80190E00E94E81AE3
:1058C000E9E0EE0EFFEFCF1ADF0A20E3E2129BCFF2
:1058D00046CB80E10E942E14882339F08091720714
:1058E000823008F072CF8F5F6ECF88E00E942E1456
:1058F0008823F1F110917207113051F1A8F01230A4
:1059000009F063CF1092BE061092BF061092C00637
:105910001092C1061092C206109272070E94C01324
:105920001093BC0686E011C01092BE061092BF060E
:105930001092C0061092C1060E942C208093C206CD
:10594000109272071092BC0688E08093BD063DCF8E
:105950000E942C2080E00E945E201092BE061092D1
:10596000BF061092C0061092C1061092C206E8CF80
:1059700084E00E942E14882309F427CF1092720726
:1059800081E0E3CF80E80E942E14882309F487C0C9
:1059900080917307882319F081508093730781E009
:1059A0000E9422148EEC91E09B878A8787EB91E01E
:1059B0009D878C8786ED91E09F878E875E014AE008
:1059C000A40EB11CCC24CA94DC2CECE0EE2EF9E041
:1059D0007F2ED5018D909D905D01940140E06E2D4C
:1059E00080E00E94401E009173070C151D0409F011
:1059F0004DC0C4010E94351EF82E6091520770916F
:105A0000530790E080E00E944E3220E030E040E713
:105A100051E40E94AD310E944933079D002D1124AD
:105A20000C5E10E020E030E040E85FE30E9441318E
:105A300020E030E040E05FE30E94DC3220E030E034
:105A400040EA50E40E94DC321B012C01B8E0FB9ECE
:105A5000B0011124072E000C880B990B0E945032C4
:105A60009B01AC01C201B1010E94413120E030E054
:105A700040E85FE30E9441310E941F32862F2DE2F1
:105A800045E15CE0B80190E00E94E81AE9E0EE0E22
:105A9000FFEFCF1ADF0A27E2E2129BCF60CA80E154
:105AA0000E942E14882331F080917307811177CFE3
:105AB00081E073CF88E00E942E14882361F18091E9
:105AC0007307882399F0813009F069CF1092BE06E0
:105AD0001092BF061092C0061092C1061092C20624
